{
  "address": "0x5FbDB2315678afecb367f032d93F642f64180aa3",
  "abi": [
    {
      "inputs": [
        {
          "internalType": "address",
          "name": "_aragonGovernAddress",
          "type": "address"
        }
      ],
      "stateMutability": "nonpayable",
      "type": "constructor"
    },
    {
      "anonymous": false,
      "inputs": [
        {
          "indexed": false,
          "internalType": "address",
          "name": "questAddress",
          "type": "address"
        },
        {
          "indexed": false,
          "internalType": "bytes",
          "name": "_requirements",
          "type": "bytes"
        }
      ],
      "name": "QuestCreated",
      "type": "event"
    },
    {
      "inputs": [],
      "name": "aragonGovernAddress",
      "outputs": [
        {
          "internalType": "address",
          "name": "",
          "type": "address"
        }
      ],
      "stateMutability": "view",
      "type": "function"
    },
    {
      "inputs": [
        {
          "internalType": "bytes",
          "name": "_requirements",
          "type": "bytes"
        },
        {
          "internalType": "contract IERC20",
          "name": "_rewardToken",
          "type": "address"
        },
        {
          "internalType": "uint256",
          "name": "_expireTime",
          "type": "uint256"
        },
        {
          "internalType": "address payable",
          "name": "_fundsRecoveryAddress",
          "type": "address"
        }
      ],
      "name": "createQuest",
      "outputs": [],
      "stateMutability": "nonpayable",
      "type": "function"
    }
  ],
  "transactionHash": "0xafa3a35837507d1077bf54a602e275d6e06b75d6fe48a3c59a3b6998643151e3",
  "args": [
    "0x70997970C51812dc3A010C7d01b50e0d17dc79C8"
  ],
  "solcInputHash": "670cd19a11d127915defe6549f5f8d37",
  "bytecode": "0x608060405234801561001057600080fd5b5060405161120b38038061120b83398101604081905261002f91610054565b600080546001600160a01b0319166001600160a01b0392909216919091179055610082565b600060208284031215610065578081fd5b81516001600160a01b038116811461007b578182fd5b9392505050565b61117a806100916000396000f3fe608060405234801561001057600080fd5b50600436106100365760003560e01c8063b0a87ac11461003b578063c221a3f414610059575b600080fd5b61004361006e565b604051610050919061024c565b60405180910390f35b61006c610067366004610135565b61007d565b005b6000546001600160a01b031681565b600080546040518691869186916001600160a01b031690869061009f9061010c565b6100ad95949392919061028c565b604051809103906000f0801580156100c9573d6000803e3d6000fd5b5090507fc1c0adb5f3d23903a15d7db0b842db176ec2a00eaa4c7ceed0ada27726aa88f081866040516100fd929190610260565b60405180910390a15050505050565b610e5d806102e883390190565b80356001600160a01b038116811461013057600080fd5b919050565b6000806000806080858703121561014a578384fd5b843567ffffffffffffffff80821115610161578586fd5b818701915087601f830112610174578586fd5b8135602082821115610188576101886102d1565b604051601f8301601f19168101820184811182821017156101ab576101ab6102d1565b60405282815284830182018b10156101c1578889fd5b82828601838301378083018201989098526101dd898201610119565b965050505050604085013591506101f660608601610119565b905092959194509250565b60008151808452815b818110156102265760208185018101518683018201520161020a565b818111156102375782602083870101525b50601f01601f19169290920160200192915050565b6001600160a01b0391909116815260200190565b6001600160a01b038316815260406020820181905260009061028490830184610201565b949350505050565b600060a0825261029f60a0830188610201565b6001600160a01b0396871660208401526040830195909552509184166060830152909216608090920191909152919050565b634e487b7160e01b600052604160045260246000fdfe60806040523480156200001157600080fd5b5060405162000e5d38038062000e5d833981016040819052620000349162000157565b84516200004990600090602088019062000094565b50600180546001600160a01b039586166001600160a01b03199182161790915560029390935560038054928516928416929092179091556004805491909316911617905550620002bd565b828054620000a2906200026a565b90600052602060002090601f016020900481019282620000c6576000855562000111565b82601f10620000e157805160ff191683800117855562000111565b8280016001018555821562000111579182015b8281111562000111578251825591602001919060010190620000f4565b506200011f92915062000123565b5090565b5b808211156200011f576000815560010162000124565b80516001600160a01b03811681146200015257600080fd5b919050565b600080600080600060a086880312156200016f578081fd5b85516001600160401b038082111562000186578283fd5b818801915088601f8301126200019a578283fd5b815181811115620001af57620001af620002a7565b6040516020601f8301601f1916820181018481118382101715620001d757620001d7620002a7565b60405282825284830181018c1015620001ee578586fd5b8593505b82841015620002115784840181015182850182015292830192620001f2565b828411156200022257858184840101525b81995062000232818c016200013a565b98505050505050604086015192506200024e606087016200013a565b91506200025e608087016200013a565b90509295509295909350565b6002810460018216806200027f57607f821691505b60208210811415620002a157634e487b7160e01b600052602260045260246000fd5b50919050565b634e487b7160e01b600052604160045260246000fd5b610b9080620002cd6000396000f3fe608060405234801561001057600080fd5b50600436106100885760003560e01c8063a51b4b651161005b578063a51b4b65146100dd578063a888c2cd146100f2578063b0a87ac114610114578063f7c618c11461011c57610088565b8063310a1ee31461008d5780634621d082146100ab5780637ceae310146100b557806399b44ba0146100ca575b600080fd5b610095610124565b6040516100a29190610ad0565b60405180910390f35b6100b361012a565b005b6100bd6101f3565b6040516100a2919061090c565b6100b36100d83660046107d8565b610202565b6100e561038a565b6040516100a29190610939565b610105610100366004610894565b610418565b6040516100a29392919061094c565b6100bd6104e4565b6100bd6104f3565b60025481565b60025442116101545760405162461bcd60e51b815260040161014b906109c0565b60405180910390fd5b600480546001546040516370a0823160e01b81526101f1936001600160a01b0393841693909216916370a082319161018e9130910161090c565b60206040518083038186803b1580156101a657600080fd5b505afa1580156101ba573d6000803e3d6000fd5b505050506040513d601f19601f820116820180604052508101906101de91906108ac565b6001546001600160a01b03169190610502565b565b6004546001600160a01b031681565b6003546001600160a01b0316331461022c5760405162461bcd60e51b815260040161014b906109ec565b825161024a5760405162461bcd60e51b815260040161014b90610a5a565b801561026c57600154610267906001600160a01b03168383610502565b6102a7565b806102a7576001546040516370a0823160e01b81526102a79184916001600160a01b03909116906370a082319061018e90309060040161090c565b604080516060810182528481526001600160a01b0384166020808301919091529181018390526005805460018101825560009190915281518051929360039092027f036b6384b5eca791c62761152d0c79bb0604c104a5fb6f4eb0703f3154bb3db001926103189284920190610708565b5060208201516001820180546001600160a01b0319166001600160a01b03909216919091179055604091820151600290910155517fa1c3b325aa2c115e4b244062eba2515bc5585ae5b41556be8fef399ae9fde11b9061037d9085908590859061094c565b60405180910390a1505050565b6000805461039790610b09565b80601f01602080910402602001604051908101604052809291908181526020018280546103c390610b09565b80156104105780601f106103e557610100808354040283529160200191610410565b820191906000526020600020905b8154815290600101906020018083116103f357829003601f168201915b505050505081565b6005818154811061042857600080fd5b906000526020600020906003020160009150905080600001805461044b90610b09565b80601f016020809104026020016040519081016040528092919081815260200182805461047790610b09565b80156104c45780601f10610499576101008083540402835291602001916104c4565b820191906000526020600020905b8154815290600101906020018083116104a757829003601f168201915b50505050600183015460029093015491926001600160a01b031691905083565b6003546001600160a01b031681565b6001546001600160a01b031681565b6105588363a9059cbb60e01b8484604051602401610521929190610920565b60408051601f198184030181529190526020810180516001600160e01b03166001600160e01b03199093169290921790915261055d565b505050565b60006105b2826040518060400160405280602081526020017f5361666545524332303a206c6f772d6c6576656c2063616c6c206661696c6564815250856001600160a01b03166105ec9092919063ffffffff16565b80519091501561055857808060200190518101906105d091906107b8565b6105585760405162461bcd60e51b815260040161014b90610a86565b60606105fb8484600085610605565b90505b9392505050565b6060824710156106275760405162461bcd60e51b815260040161014b9061097a565b610630856106c5565b61064c5760405162461bcd60e51b815260040161014b90610a23565b600080866001600160a01b0316858760405161066891906108f0565b60006040518083038185875af1925050503d80600081146106a5576040519150601f19603f3d011682016040523d82523d6000602084013e6106aa565b606091505b50915091506106ba8282866106cf565b979650505050505050565b803b15155b919050565b606083156106de5750816105fe565b8251156106ee5782518084602001fd5b8160405162461bcd60e51b815260040161014b9190610939565b82805461071490610b09565b90600052602060002090601f016020900481019282610736576000855561077c565b82601f1061074f57805160ff191683800117855561077c565b8280016001018555821561077c579182015b8281111561077c578251825591602001919060010190610761565b5061078892915061078c565b5090565b5b80821115610788576000815560010161078d565b80356001600160a01b03811681146106ca57600080fd5b6000602082840312156107c9578081fd5b815180151581146105fe578182fd5b6000806000606084860312156107ec578182fd5b833567ffffffffffffffff80821115610803578384fd5b818601915086601f830112610816578384fd5b813560208282111561082a5761082a610b44565b604051601f8301601f191681018201848111828210171561084d5761084d610b44565b60405282815284830182018a1015610863578687fd5b8282860183830137808301820187905296506108808882016107a1565b955050505050604084013590509250925092565b6000602082840312156108a5578081fd5b5035919050565b6000602082840312156108bd578081fd5b5051919050565b600081518084526108dc816020860160208601610ad9565b601f01601f19169290920160200192915050565b60008251610902818460208701610ad9565b9190910192915050565b6001600160a01b0391909116815260200190565b6001600160a01b03929092168252602082015260400190565b6000602082526105fe60208301846108c4565b60006060825261095f60608301866108c4565b6001600160a01b039490941660208301525060400152919050565b60208082526026908201527f416464726573733a20696e73756666696369656e742062616c616e636520666f6040820152651c8818d85b1b60d21b606082015260800190565b60208082526012908201527111549493d48e88139bdd08195e1c1a5c995960721b604082015260600190565b60208082526018908201527f4552524f523a2053656e646572206e6f7420676f7665726e0000000000000000604082015260600190565b6020808252601d908201527f416464726573733a2063616c6c20746f206e6f6e2d636f6e7472616374000000604082015260600190565b6020808252601290820152714552524f523a204e6f2065766964656e636560701b604082015260600190565b6020808252602a908201527f5361666545524332303a204552433230206f7065726174696f6e20646964206e6040820152691bdd081cdd58d8d9595960b21b606082015260800190565b90815260200190565b60005b83811015610af4578181015183820152602001610adc565b83811115610b03576000848401525b50505050565b600281046001821680610b1d57607f821691505b60208210811415610b3e57634e487b7160e01b600052602260045260246000fd5b50919050565b634e487b7160e01b600052604160045260246000fdfea2646970667358221220c8ad43dc6900bb9abd03a4b71927382880fa48be941067e05a067a62ed30b70264736f6c63430008000033a2646970667358221220ab32f24ca5ae5bb9c0a04ad2812bee88213d7e54068be324e3d96b1330ab599964736f6c63430008000033",
  "devdoc": {
    "kind": "dev",
    "methods": {},
    "version": 1
  },
  "userdoc": {
    "kind": "user",
    "methods": {},
    "version": 1
  },
  "storageLayout": {
    "storage": [
      {
        "astId": 1368,
        "contract": "contracts/QuestFactory.sol:QuestFactory",
        "label": "aragonGovernAddress",
        "offset": 0,
        "slot": "0",
        "type": "t_address"
      }
    ],
    "types": {
      "t_address": {
        "encoding": "inplace",
        "label": "address",
        "numberOfBytes": "20"
      }
    }
  }
}