{
  "address": "0xdCA81bde631EA9A85D12c57150427cAc350E3952",
  "abi": [
    {
      "constant": false,
      "inputs": [
        {
          "name": "_owner",
          "type": "address"
        }
      ],
      "name": "setOwner",
      "outputs": [],
      "payable": false,
      "stateMutability": "nonpayable",
      "type": "function"
    },
    {
      "constant": false,
      "inputs": [
        {
          "name": "_disputeId",
          "type": "uint256"
        },
        {
          "name": "_state",
          "type": "uint8"
        }
      ],
      "name": "decideDispute",
      "outputs": [],
      "payable": false,
      "stateMutability": "nonpayable",
      "type": "function"
    },
    {
      "constant": true,
      "inputs": [
        {
          "name": "",
          "type": "uint256"
        }
      ],
      "name": "disputes",
      "outputs": [
        {
          "name": "subject",
          "type": "address"
        },
        {
          "name": "state",
          "type": "uint8"
        }
      ],
      "payable": false,
      "stateMutability": "view",
      "type": "function"
    },
    {
      "constant": true,
      "inputs": [],
      "name": "feeToken",
      "outputs": [
        {
          "name": "",
          "type": "address"
        }
      ],
      "payable": false,
      "stateMutability": "view",
      "type": "function"
    },
    {
      "constant": true,
      "inputs": [],
      "name": "feeAmount",
      "outputs": [
        {
          "name": "",
          "type": "uint256"
        }
      ],
      "payable": false,
      "stateMutability": "view",
      "type": "function"
    },
    {
      "constant": true,
      "inputs": [],
      "name": "getDisputeFees",
      "outputs": [
        {
          "name": "",
          "type": "address"
        },
        {
          "name": "",
          "type": "address"
        },
        {
          "name": "",
          "type": "uint256"
        }
      ],
      "payable": false,
      "stateMutability": "view",
      "type": "function"
    },
    {
      "constant": false,
      "inputs": [
        {
          "name": "_disputeId",
          "type": "uint256"
        },
        {
          "name": "_submitter",
          "type": "address"
        },
        {
          "name": "_evidence",
          "type": "bytes"
        }
      ],
      "name": "submitEvidence",
      "outputs": [],
      "payable": false,
      "stateMutability": "nonpayable",
      "type": "function"
    },
    {
      "constant": false,
      "inputs": [
        {
          "name": "_disputeId",
          "type": "uint256"
        }
      ],
      "name": "closeEvidencePeriod",
      "outputs": [],
      "payable": false,
      "stateMutability": "nonpayable",
      "type": "function"
    },
    {
      "constant": true,
      "inputs": [],
      "name": "owner",
      "outputs": [
        {
          "name": "",
          "type": "address"
        }
      ],
      "payable": false,
      "stateMutability": "view",
      "type": "function"
    },
    {
      "constant": false,
      "inputs": [
        {
          "name": "_possibleRulings",
          "type": "uint256"
        },
        {
          "name": "_metadata",
          "type": "bytes"
        }
      ],
      "name": "createDispute",
      "outputs": [
        {
          "name": "",
          "type": "uint256"
        }
      ],
      "payable": false,
      "stateMutability": "nonpayable",
      "type": "function"
    },
    {
      "constant": false,
      "inputs": [
        {
          "name": "_disputeId",
          "type": "uint256"
        }
      ],
      "name": "rule",
      "outputs": [
        {
          "name": "subject",
          "type": "address"
        },
        {
          "name": "ruling",
          "type": "uint256"
        }
      ],
      "payable": false,
      "stateMutability": "nonpayable",
      "type": "function"
    },
    {
      "constant": true,
      "inputs": [],
      "name": "currentId",
      "outputs": [
        {
          "name": "",
          "type": "uint256"
        }
      ],
      "payable": false,
      "stateMutability": "view",
      "type": "function"
    },
    {
      "inputs": [
        {
          "name": "_feeToken",
          "type": "address"
        },
        {
          "name": "_feeAmount",
          "type": "uint256"
        }
      ],
      "payable": false,
      "stateMutability": "nonpayable",
      "type": "constructor"
    }
  ],
  "transactionHash": "0x01a91cceb0f4ed93c5cd49b5a5418b6fb610c95b54856fd66de896bb2161b898",
  "args": [
    "0x3050E20FAbE19f8576865811c9F28e85b96Fa4f9",
    "50000000000000000"
  ],
  "solcInputHash": "a6944b2f61bcf83839b564892dd1b56e",
  "bytecode": "0x608060405234801561001057600080fd5b50604051604080610e898339810180604052604081101561003057600080fd5b81019080805190602001909291908051906020019092919050505033600360006101000a81548173ffffffffffffffffffffffffffffffffffffffff021916908373ffffffffffffffffffffffffffffffffffffffff160217905550816000806101000a81548173ffffffffffffffffffffffffffffffffffffffff021916908373ffffffffffffffffffffffffffffffffffffffff160217905550806001819055505050610da5806100e46000396000f3fe608060405234801561001057600080fd5b50600436106100b45760003560e01c80637cb57c64116100715780637cb57c64146102a75780637e9adccf1461034a5780638da5cb5b14610378578063c13517e1146103c2578063db18af6c14610459578063e00dd161146104ce576100b4565b806313af4035146100b95780631da213f2146100fd578063564a565d14610138578063647846a5146101bb57806369e15404146102055780637b751b9e14610223575b600080fd5b6100fb600480360360208110156100cf57600080fd5b81019080803573ffffffffffffffffffffffffffffffffffffffff1690602001909291905050506104ec565b005b6101366004803603604081101561011357600080fd5b8101908080359060200190929190803560ff1690602001909291905050506105f3565b005b6101646004803603602081101561014e57600080fd5b8101908080359060200190929190505050610844565b604051808373ffffffffffffffffffffffffffffffffffffffff1673ffffffffffffffffffffffffffffffffffffffff1681526020018260048111156101a657fe5b60ff1681526020019250505060405180910390f35b6101c3610895565b604051808273ffffffffffffffffffffffffffffffffffffffff1673ffffffffffffffffffffffffffffffffffffffff16815260200191505060405180910390f35b61020d6108ba565b6040518082815260200191505060405180910390f35b61022b6108c0565b604051808473ffffffffffffffffffffffffffffffffffffffff1673ffffffffffffffffffffffffffffffffffffffff1681526020018373ffffffffffffffffffffffffffffffffffffffff1673ffffffffffffffffffffffffffffffffffffffff168152602001828152602001935050505060405180910390f35b610348600480360360608110156102bd57600080fd5b8101908080359060200190929190803573ffffffffffffffffffffffffffffffffffffffff1690602001909291908035906020019064010000000081111561030457600080fd5b82018360208201111561031657600080fd5b8035906020019184600183028401116401000000008311171561033857600080fd5b90919293919293905050506108f6565b005b6103766004803603602081101561036057600080fd5b81019080803590602001909291905050506108fc565b005b6103806108ff565b604051808273ffffffffffffffffffffffffffffffffffffffff1673ffffffffffffffffffffffffffffffffffffffff16815260200191505060405180910390f35b610443600480360360408110156103d857600080fd5b8101908080359060200190929190803590602001906401000000008111156103ff57600080fd5b82018360208201111561041157600080fd5b8035906020019184600183028401116401000000008311171561043357600080fd5b9091929391929390505050610925565b6040518082815260200191505060405180910390f35b6104856004803603602081101561046f57600080fd5b8101908080359060200190929190505050610ac9565b604051808373ffffffffffffffffffffffffffffffffffffffff1673ffffffffffffffffffffffffffffffffffffffff1681526020018281526020019250505060405180910390f35b6104d6610c0f565b6040518082815260200191505060405180910390f35b600360009054906101000a900473ffffffffffffffffffffffffffffffffffffffff1673ffffffffffffffffffffffffffffffffffffffff163373ffffffffffffffffffffffffffffffffffffffff16146105af576040517f08c379a000000000000000000000000000000000000000000000000000000000815260040180806020018281038252600d8152602001807f4552523a4e4f545f4f574e45520000000000000000000000000000000000000081525060200191505060405180910390fd5b80600360006101000a81548173ffffffffffffffffffffffffffffffffffffffff021916908373ffffffffffffffffffffffffffffffffffffffff16021790555050565b600360009054906101000a900473ffffffffffffffffffffffffffffffffffffffff1673ffffffffffffffffffffffffffffffffffffffff163373ffffffffffffffffffffffffffffffffffffffff16146106b6576040517f08c379a000000000000000000000000000000000000000000000000000000000815260040180806020018281038252600d8152602001807f4552523a4e4f545f4f574e45520000000000000000000000000000000000000081525060200191505060405180910390fd5b600060048111156106c357fe5b8160048111156106cf57fe5b141580156106f45750600160048111156106e557fe5b8160048111156106f157fe5b14155b610766576040517f08c379a000000000000000000000000000000000000000000000000000000000815260040180806020018281038252601a8152602001807f4552523a4f5554434f4d455f4e4f545f41535349474e41424c4500000000000081525060200191505060405180910390fd5b60006004600084815260200190815260200160002090506001600481111561078a57fe5b8160000160149054906101000a900460ff1660048111156107a757fe5b1461081a576040517f08c379a00000000000000000000000000000000000000000000000000000000081526004018080602001828103825260108152602001807f4552523a4e4f545f44495350555445440000000000000000000000000000000081525060200191505060405180910390fd5b818160000160146101000a81548160ff0219169083600481111561083a57fe5b0217905550505050565b60046020528060005260406000206000915090508060000160009054906101000a900473ffffffffffffffffffffffffffffffffffffffff16908060000160149054906101000a900460ff16905082565b6000809054906101000a900473ffffffffffffffffffffffffffffffffffffffff1681565b60015481565b6000806000306000809054906101000a900473ffffffffffffffffffffffffffffffffffffffff16600154925092509250909192565b50505050565b50565b600360009054906101000a900473ffffffffffffffffffffffffffffffffffffffff1681565b600080600254905060405180604001604052803373ffffffffffffffffffffffffffffffffffffffff1681526020016001600481111561096157fe5b8152506004600083815260200190815260200160002060008201518160000160006101000a81548173ffffffffffffffffffffffffffffffffffffffff021916908373ffffffffffffffffffffffffffffffffffffffff16021790555060208201518160000160146101000a81548160ff021916908360048111156109e257fe5b0217905550905050600260008154809291906001019190505550610a4c33306001546000809054906101000a900473ffffffffffffffffffffffffffffffffffffffff1673ffffffffffffffffffffffffffffffffffffffff16610c15909392919063ffffffff16565b610abe576040517f08c379a00000000000000000000000000000000000000000000000000000000081526004018080602001828103825260128152602001807f4552523a4445504f5349545f4641494c4544000000000000000000000000000081525060200191505060405180910390fd5b809150509392505050565b600080600060046000858152602001908152602001600020905060036004811115610af057fe5b8160000160149054906101000a900460ff166004811115610b0d57fe5b1415610b44578060000160009054906101000a900473ffffffffffffffffffffffffffffffffffffffff1660039250925050610c0a565b600480811115610b5057fe5b8160000160149054906101000a900460ff166004811115610b6d57fe5b1415610ba4578060000160009054906101000a900473ffffffffffffffffffffffffffffffffffffffff1660049250925050610c0a565b60026004811115610bb157fe5b8160000160149054906101000a900460ff166004811115610bce57fe5b1415610c05578060000160009054906101000a900473ffffffffffffffffffffffffffffffffffffffff1660009250925050610c0a565b600080fd5b915091565b60025481565b600060608573ffffffffffffffffffffffffffffffffffffffff166323b872dd905060e01b858585604051602401808473ffffffffffffffffffffffffffffffffffffffff1673ffffffffffffffffffffffffffffffffffffffff1681526020018373ffffffffffffffffffffffffffffffffffffffff1673ffffffffffffffffffffffffffffffffffffffff1681526020018281526020019350505050604051602081830303815290604052907bffffffffffffffffffffffffffffffffffffffffffffffffffffffff19166020820180517bffffffffffffffffffffffffffffffffffffffffffffffffffffffff83818316178352505050509050610d1c8682610d27565b915050949350505050565b6000806040516020818551602087016000895af16000811115610d6d573d60008114610d5a5760208114610d6357610d6b565b60019350610d6b565b600183511493505b505b5050809150509291505056fea165627a7a7230582024ba3bfca91557b0788050b8a32baa06b2ab282acae29c13e5e404d361b01bac0029",
  "devdoc": {
    "methods": {
      "closeEvidencePeriod(uint256)": {
        "details": "Close the evidence period of a dispute\r",
        "params": {
          "_disputeId": "Identification number of the dispute to close its evidence submitting period\r"
        }
      },
      "createDispute(uint256,bytes)": {
        "details": "Create a dispute over the Arbitrable sender with a number of possible rulings\r",
        "params": {
          "_metadata": "Optional metadata that can be used to provide additional information on the dispute to be created\r",
          "_possibleRulings": "Number of possible rulings allowed for the dispute\r"
        },
        "return": "Dispute identification number\r"
      },
      "getDisputeFees()": {
        "details": "Tell the dispute fees information to create a dispute\r",
        "return": "recipient Address where the corresponding dispute fees must be transferred to\rfeeToken ERC20 token used for the fees\rfeeAmount Total amount of fees that must be allowed to the recipient\r"
      },
      "rule(uint256)": {
        "params": {
          "_disputeId": "Identification number of the dispute to be ruled\r"
        },
        "return": "subject Arbitrable instance associated to the dispute\rruling Ruling number computed for the given dispute\r"
      },
      "submitEvidence(uint256,address,bytes)": {
        "details": "Submit evidence for a dispute\r",
        "params": {
          "_disputeId": "Id of the dispute in the Protocol\r",
          "_evidence": "Data submitted for the evidence related to the dispute\r",
          "_submitter": "Address of the account submitting the evidence\r"
        }
      }
    }
  },
  "userdoc": {
    "methods": {
      "rule(uint256)": {
        "notice": "Rule dispute #`_disputeId` if ready\r"
      }
    }
  }
}