{
  "address": "0x49230EAd7f26859Cce31bF6cC5836FA1B1725fBA",
  "abi": [
    {
      "inputs": [
        {
          "internalType": "address",
          "name": "_aragonGovernAddress",
          "type": "address"
        },
        {
          "internalType": "contract IERC20",
          "name": "_depositToken",
          "type": "address"
        },
        {
          "internalType": "uint256",
          "name": "_depositAmount",
          "type": "uint256"
        },
        {
          "internalType": "address",
          "name": "_initialOwner",
          "type": "address"
        }
      ],
      "stateMutability": "nonpayable",
      "type": "constructor"
    },
    {
      "anonymous": false,
      "inputs": [
        {
          "indexed": false,
          "internalType": "uint256",
          "name": "timestamp",
          "type": "uint256"
        },
        {
          "indexed": false,
          "internalType": "address",
          "name": "token",
          "type": "address"
        },
        {
          "indexed": false,
          "internalType": "uint256",
          "name": "amount",
          "type": "uint256"
        }
      ],
      "name": "DepositChanged",
      "type": "event"
    },
    {
      "anonymous": false,
      "inputs": [
        {
          "indexed": true,
          "internalType": "address",
          "name": "previousOwner",
          "type": "address"
        },
        {
          "indexed": true,
          "internalType": "address",
          "name": "newOwner",
          "type": "address"
        }
      ],
      "name": "OwnershipTransferred",
      "type": "event"
    },
    {
      "anonymous": false,
      "inputs": [
        {
          "indexed": false,
          "internalType": "address",
          "name": "questAddress",
          "type": "address"
        },
        {
          "indexed": false,
          "internalType": "string",
          "name": "questTitle",
          "type": "string"
        },
        {
          "indexed": false,
          "internalType": "bytes",
          "name": "questDetailsRef",
          "type": "bytes"
        },
        {
          "indexed": false,
          "internalType": "address",
          "name": "rewardTokenAddress",
          "type": "address"
        },
        {
          "indexed": false,
          "internalType": "uint256",
          "name": "expireTime",
          "type": "uint256"
        },
        {
          "indexed": false,
          "internalType": "address",
          "name": "fundsRecoveryAddress",
          "type": "address"
        },
        {
          "indexed": false,
          "internalType": "address",
          "name": "depositToken",
          "type": "address"
        },
        {
          "indexed": false,
          "internalType": "uint256",
          "name": "depositAmount",
          "type": "uint256"
        },
        {
          "indexed": false,
          "internalType": "address",
          "name": "creator",
          "type": "address"
        }
      ],
      "name": "QuestCreated",
      "type": "event"
    },
    {
      "inputs": [],
      "name": "aragonGovernAddress",
      "outputs": [
        {
          "internalType": "address",
          "name": "",
          "type": "address"
        }
      ],
      "stateMutability": "view",
      "type": "function"
    },
    {
      "inputs": [
        {
          "internalType": "string",
          "name": "_questTitle",
          "type": "string"
        },
        {
          "internalType": "bytes",
          "name": "_questDetailsRef",
          "type": "bytes"
        },
        {
          "internalType": "contract IERC20",
          "name": "_rewardToken",
          "type": "address"
        },
        {
          "internalType": "uint256",
          "name": "_expireTime",
          "type": "uint256"
        },
        {
          "internalType": "address payable",
          "name": "_fundsRecoveryAddress",
          "type": "address"
        }
      ],
      "name": "createQuest",
      "outputs": [
        {
          "internalType": "address",
          "name": "",
          "type": "address"
        }
      ],
      "stateMutability": "nonpayable",
      "type": "function"
    },
    {
      "inputs": [],
      "name": "deposit",
      "outputs": [
        {
          "internalType": "contract IERC20",
          "name": "token",
          "type": "address"
        },
        {
          "internalType": "uint256",
          "name": "amount",
          "type": "uint256"
        }
      ],
      "stateMutability": "view",
      "type": "function"
    },
    {
      "inputs": [],
      "name": "owner",
      "outputs": [
        {
          "internalType": "address",
          "name": "",
          "type": "address"
        }
      ],
      "stateMutability": "view",
      "type": "function"
    },
    {
      "inputs": [],
      "name": "renounceOwnership",
      "outputs": [],
      "stateMutability": "nonpayable",
      "type": "function"
    },
    {
      "inputs": [
        {
          "internalType": "contract IERC20",
          "name": "token",
          "type": "address"
        },
        {
          "internalType": "uint256",
          "name": "amount",
          "type": "uint256"
        }
      ],
      "name": "setDeposit",
      "outputs": [],
      "stateMutability": "nonpayable",
      "type": "function"
    },
    {
      "inputs": [
        {
          "internalType": "address",
          "name": "newOwner",
          "type": "address"
        }
      ],
      "name": "transferOwnership",
      "outputs": [],
      "stateMutability": "nonpayable",
      "type": "function"
    }
  ],
  "transactionHash": "0x6f2d08e22debd9c73d2fba6aee936a3313ee6022f5b004e795652e72cff47e84",
  "args": [
    "0x7881C66Fa323eabE8470b3c6Fa14259B9918baEA",
    "0x3050E20FAbE19f8576865811c9F28e85b96Fa4f9",
    "10000000000000000",
    "0x7375Ed576952BD6CeD060EeE2Db763130eA13bA0"
  ],
  "solcInputHash": "55762042aa62f69cb5859e68ffbc45e6",
  "bytecode": "0x60806040523480156200001157600080fd5b50604051620029cb380380620029cb83398101604081905262000034916200023a565b620000486200004262000095565b62000099565b600180546001600160a01b0319166001600160a01b0386161790556200006f8383620000e9565b6001600160a01b03811633146200008b576200008b81620001ae565b5050505062000345565b3390565b600080546001600160a01b038381166001600160a01b0319831681178455604051919092169283917f8be0079c531659141344cd1fd0a4f28419497f9722a3daafe3b4186f6b6457e09190a35050565b620000f362000095565b6001600160a01b0316620001066200022b565b6001600160a01b031614620001385760405162461bcd60e51b81526004016200012f90620002db565b60405180910390fd5b6040805180820182526001600160a01b0384168082526020909101839052600280546001600160a01b03191690911790556003829055517f556f88907cfe81bbd1433b2c2ba3860920f0b50b218c55ca0a060558e7ca419990620001a29042908590859062000310565b60405180910390a15050565b620001b862000095565b6001600160a01b0316620001cb6200022b565b6001600160a01b031614620001f45760405162461bcd60e51b81526004016200012f90620002db565b6001600160a01b0381166200021d5760405162461bcd60e51b81526004016200012f9062000295565b620002288162000099565b50565b6000546001600160a01b031690565b6000806000806080858703121562000250578384fd5b84516200025d816200032f565b602086015190945062000270816200032f565b6040860151606087015191945092506200028a816200032f565b939692955090935050565b60208082526026908201527f4f776e61626c653a206e6577206f776e657220697320746865207a65726f206160408201526564647265737360d01b606082015260800190565b6020808252818101527f4f776e61626c653a2063616c6c6572206973206e6f7420746865206f776e6572604082015260600190565b9283526001600160a01b03919091166020830152604082015260600190565b6001600160a01b03811681146200022857600080fd5b61267680620003556000396000f3fe60806040523480156200001157600080fd5b5060043610620000885760003560e01c8063b0a87ac11162000063578063b0a87ac114620000d2578063c6b21b0214620000dc578063d0e30db014620000f3578063f2fde38b146200010d5762000088565b8063715018a6146200008d5780638da5cb5b1462000099578063abec0a0314620000bb575b600080fd5b6200009762000124565b005b620000a3620001b5565b604051620000b2919062000ca0565b60405180910390f35b620000a3620000cc36600462000b5b565b620001d1565b620000a3620002f5565b62000097620000ed36600462000b2d565b62000311565b620000fd62000426565b604051620000b292919062000d9a565b620000976200011e36600462000aec565b62000448565b6200012e62000520565b73ffffffffffffffffffffffffffffffffffffffff166200014e620001b5565b73ffffffffffffffffffffffffffffffffffffffff1614620001a7576040517f08c379a00000000000000000000000000000000000000000000000000000000081526004016200019e9062000f12565b60405180910390fd5b620001b3600062000524565b565b60005473ffffffffffffffffffffffffffffffffffffffff1690565b60015460025460035460405160009384938a938a938a938a9373ffffffffffffffffffffffffffffffffffffffff918216938b9392909116913390620002179062000a36565b6200022b9998979695949392919062000dd5565b604051809103906000f08015801562000248573d6000803e3d6000fd5b506040805180820190915260025473ffffffffffffffffffffffffffffffffffffffff16815260035460208201529091506200028690338362000599565b6002546003546040517f4cf18b7944786d158010105e0d058cfa9ca46ad789d42eb9b6fa9490be2a44f792620002e39285928c928c928c928c928c9273ffffffffffffffffffffffffffffffffffffffff90911691339062000d19565b60405180910390a19695505050505050565b60015473ffffffffffffffffffffffffffffffffffffffff1681565b6200031b62000520565b73ffffffffffffffffffffffffffffffffffffffff166200033b620001b5565b73ffffffffffffffffffffffffffffffffffffffff16146200038b576040517f08c379a00000000000000000000000000000000000000000000000000000000081526004016200019e9062000f12565b60408051808201825273ffffffffffffffffffffffffffffffffffffffff84168082526020909101839052600280547fffffffffffffffffffffffff00000000000000000000000000000000000000001690911790556003829055517f556f88907cfe81bbd1433b2c2ba3860920f0b50b218c55ca0a060558e7ca4199906200041a9042908590859062001012565b60405180910390a15050565b60025460035473ffffffffffffffffffffffffffffffffffffffff9091169082565b6200045262000520565b73ffffffffffffffffffffffffffffffffffffffff1662000472620001b5565b73ffffffffffffffffffffffffffffffffffffffff1614620004c2576040517f08c379a00000000000000000000000000000000000000000000000000000000081526004016200019e9062000f12565b73ffffffffffffffffffffffffffffffffffffffff811662000512576040517f08c379a00000000000000000000000000000000000000000000000000000000081526004016200019e9062000e58565b6200051d8162000524565b50565b3390565b6000805473ffffffffffffffffffffffffffffffffffffffff8381167fffffffffffffffffffffffff0000000000000000000000000000000000000000831681178455604051919092169283917f8be0079c531659141344cd1fd0a4f28419497f9722a3daafe3b4186f6b6457e09190a35050565b620005a58383620005b6565b620005b18382620006e5565b505050565b602082015115620006e15781516040517fdd62ed3e00000000000000000000000000000000000000000000000000000000815260009173ffffffffffffffffffffffffffffffffffffffff169063dd62ed3e906200061b908590309060040162000cc1565b60206040518083038186803b1580156200063457600080fd5b505afa15801562000649573d6000803e3d6000fd5b505050506040513d601f19601f820116820180604052508101906200066f919062000c1d565b90508260200151811015620006b2576040517f08c379a00000000000000000000000000000000000000000000000000000000081526004016200019e9062000f47565b60208301518351620005b19173ffffffffffffffffffffffffffffffffffffffff90911690849030906200071d565b5050565b602082015115620006e15760208201518251620006e19173ffffffffffffffffffffffffffffffffffffffff909116908390620007ca565b620007c4846323b872dd60e01b858585604051602401620007419392919062000ce8565b604080517fffffffffffffffffffffffffffffffffffffffffffffffffffffffffffffffe08184030181529190526020810180517bffffffffffffffffffffffffffffffffffffffffffffffffffffffff167fffffffff0000000000000000000000000000000000000000000000000000000090931692909217909152620007ec565b50505050565b620005b18363a9059cbb60e01b84846040516024016200074192919062000d9a565b600062000850826040518060400160405280602081526020017f5361666545524332303a206c6f772d6c6576656c2063616c6c206661696c65648152508573ffffffffffffffffffffffffffffffffffffffff16620008aa9092919063ffffffff16565b805190915015620005b1578080602001905181019062000871919062000b0b565b620005b1576040517f08c379a00000000000000000000000000000000000000000000000000000000081526004016200019e9062000fb5565b6060620008bb8484600085620008c5565b90505b9392505050565b60608247101562000904576040517f08c379a00000000000000000000000000000000000000000000000000000000081526004016200019e9062000eb5565b6200090f85620009d4565b62000948576040517f08c379a00000000000000000000000000000000000000000000000000000000081526004016200019e9062000f7e565b6000808673ffffffffffffffffffffffffffffffffffffffff16858760405162000973919062000c82565b60006040518083038185875af1925050503d8060008114620009b2576040519150601f19603f3d011682016040523d82523d6000602084013e620009b7565b606091505b5091509150620009c9828286620009de565b979650505050505050565b803b15155b919050565b60608315620009ef575081620008be565b82511562000a005782518084602001fd5b816040517f08c379a00000000000000000000000000000000000000000000000000000000081526004016200019e919062000dc0565b61158180620010c083390190565b600067ffffffffffffffff8084111562000a625762000a626200106d565b604051601f85017fffffffffffffffffffffffffffffffffffffffffffffffffffffffffffffffe0908116603f0116810190828211818310171562000aab5762000aab6200106d565b8160405280935085815286868601111562000ac557600080fd5b858560208301376000602087830101525050509392505050565b8035620009d9816200109c565b60006020828403121562000afe578081fd5b8135620008be816200109c565b60006020828403121562000b1d578081fd5b81518015158114620008be578182fd5b6000806040838503121562000b40578081fd5b823562000b4d816200109c565b946020939093013593505050565b600080600080600060a0868803121562000b73578081fd5b853567ffffffffffffffff8082111562000b8b578283fd5b818801915088601f83011262000b9f578283fd5b62000bb08983356020850162000a44565b9650602088013591508082111562000bc6578283fd5b508601601f8101881362000bd8578182fd5b62000be98882356020840162000a44565b94505062000bfa6040870162000adf565b92506060860135915062000c116080870162000adf565b90509295509295909350565b60006020828403121562000c2f578081fd5b5051919050565b6000815180845262000c508160208601602086016200103e565b601f017fffffffffffffffffffffffffffffffffffffffffffffffffffffffffffffffe0169290920160200192915050565b6000825162000c968184602087016200103e565b9190910192915050565b73ffffffffffffffffffffffffffffffffffffffff91909116815260200190565b73ffffffffffffffffffffffffffffffffffffffff92831681529116602082015260400190565b73ffffffffffffffffffffffffffffffffffffffff9384168152919092166020820152604081019190915260600190565b600061012073ffffffffffffffffffffffffffffffffffffffff808d16845281602085015262000d4c8285018d62000c36565b9150838203604085015262000d62828c62000c36565b99811660608501526080840198909852505093851660a085015291841660c084015260e0830152909116610100909101529392505050565b73ffffffffffffffffffffffffffffffffffffffff929092168252602082015260400190565b600060208252620008be602083018462000c36565b600061012080835262000deb8184018d62000c36565b9050828103602084015262000e01818c62000c36565b73ffffffffffffffffffffffffffffffffffffffff9a8b16604085015260608401999099525050948716608086015292861660a085015290851660c084015260e08301529092166101009092019190915292915050565b60208082526026908201527f4f776e61626c653a206e6577206f776e657220697320746865207a65726f206160408201527f6464726573730000000000000000000000000000000000000000000000000000606082015260800190565b60208082526026908201527f416464726573733a20696e73756666696369656e742062616c616e636520666f60408201527f722063616c6c0000000000000000000000000000000000000000000000000000606082015260800190565b6020808252818101527f4f776e61626c653a2063616c6c6572206973206e6f7420746865206f776e6572604082015260600190565b6020808252601d908201527f4552524f52203a204465706f7369742062616420616c6c6f77616e6365000000604082015260600190565b6020808252601d908201527f416464726573733a2063616c6c20746f206e6f6e2d636f6e7472616374000000604082015260600190565b6020808252602a908201527f5361666545524332303a204552433230206f7065726174696f6e20646964206e60408201527f6f74207375636365656400000000000000000000000000000000000000000000606082015260800190565b92835273ffffffffffffffffffffffffffffffffffffffff919091166020830152604082015260600190565b60005b838110156200105b57818101518382015260200162001041565b83811115620007c45750506000910152565b7f4e487b7100000000000000000000000000000000000000000000000000000000600052604160045260246000fd5b73ffffffffffffffffffffffffffffffffffffffff811681146200051d57600080fdfe60806040523480156200001157600080fd5b50604051620015813803806200158183398101604081905262000034916200027d565b8851620000499060019060208c0190620000ed565b5087516200005f9060029060208b0190620000ed565b50600380546001600160a01b03199081166001600160a01b03998a161790915560049690965560058054871695881695909517909455600680548616938716939093179092556000805485169386169390931790925560408051808201909152919093168082526020909101839052600880549092161790556009555050600a805460ff19169055620003bf565b828054620000fb906200036c565b90600052602060002090601f0160209004810192826200011f57600085556200016a565b82601f106200013a57805160ff19168380011785556200016a565b828001600101855582156200016a579182015b828111156200016a5782518255916020019190600101906200014d565b50620001789291506200017c565b5090565b5b808211156200017857600081556001016200017d565b60006001600160401b0380841115620001b057620001b0620003a9565b604051601f8501601f19908116603f01168101908282118183101715620001db57620001db620003a9565b81604052809350858152868686011115620001f557600080fd5b600092505b858310156200021a578285015160208483010152602083019250620001fa565b858311156200022d576000602087830101525b5050509392505050565b80516001600160a01b03811681146200024f57600080fd5b919050565b600082601f83011262000265578081fd5b620002768383516020850162000193565b9392505050565b60008060008060008060008060006101208a8c0312156200029c578485fd5b89516001600160401b0380821115620002b3578687fd5b818c0191508c601f830112620002c7578687fd5b620002d88d83516020850162000193565b9a5060208c0151915080821115620002ee578687fd5b50620002fd8c828d0162000254565b9850506200030e60408b0162000237565b965060608a015195506200032560808b0162000237565b94506200033560a08b0162000237565b93506200034560c08b0162000237565b925060e08a015191506200035d6101008b0162000237565b90509295985092959850929598565b6002810460018216806200038157607f821691505b60208210811415620003a357634e487b7160e01b600052602260045260246000fd5b50919050565b634e487b7160e01b600052604160045260246000fd5b6111b280620003cf6000396000f3fe608060405234801561001057600080fd5b50600436106100d45760003560e01c8063b0a87ac111610081578063e0c234231161005b578063e0c2342314610186578063f294cf381461019b578063f7c618c1146101a3576100d4565b8063b0a87ac114610155578063b434151c1461015d578063d0e30db014610170576100d4565b80637ceae310116100b25780637ceae31014610116578063990cc4891461011e578063a888c2cd14610133576100d4565b8063310a1ee3146100d9578063579ca2c9146100f75780636c3a4cce14610101575b600080fd5b6100e16101ab565b6040516100ee91906110af565b60405180910390f35b6100ff6101b1565b005b610109610338565b6040516100ee9190610e1c565b610109610354565b610126610370565b6040516100ee9190610e63565b610146610141366004610d86565b610379565b6040516100ee93929190610e81565b610109610452565b6100ff61016b366004610c91565b61046e565b6101786107a2565b6040516100ee929190610e3d565b61018e6107c4565b6040516100ee9190610e6e565b61018e610852565b61010961085f565b60045481565b60045442116101f5576040517f08c379a00000000000000000000000000000000000000000000000000000000081526004016101ec90610f76565b60405180910390fd5b600a5460ff16610267576000546040805180820190915260085473ffffffffffffffffffffffffffffffffffffffff9081168252600954602083015261023b921661087b565b600a80547fffffffffffffffffffffffffffffffffffffffffffffffffffffffffffffff001660011790555b6006546003546040517f70a082310000000000000000000000000000000000000000000000000000000081526103369273ffffffffffffffffffffffffffffffffffffffff9081169216906370a08231906102c6903090600401610e1c565b60206040518083038186803b1580156102de57600080fd5b505afa1580156102f2573d6000803e3d6000fd5b505050506040513d601f19601f820116820180604052508101906103169190610d9e565b60035473ffffffffffffffffffffffffffffffffffffffff1691906108b4565b565b60005473ffffffffffffffffffffffffffffffffffffffff1681565b60065473ffffffffffffffffffffffffffffffffffffffff1681565b600a5460ff1681565b6007818154811061038957600080fd5b90600052602060002090600302016000915090508060000180546103ac906110e8565b80601f01602080910402602001604051908101604052809291908181526020018280546103d8906110e8565b80156104255780601f106103fa57610100808354040283529160200191610425565b820191906000526020600020905b81548152906001019060200180831161040857829003601f168201915b505050506001830154600290930154919273ffffffffffffffffffffffffffffffffffffffff1691905083565b60055473ffffffffffffffffffffffffffffffffffffffff1681565b60055473ffffffffffffffffffffffffffffffffffffffff1633146104bf576040517f08c379a00000000000000000000000000000000000000000000000000000000081526004016101ec90610fad565b83516104f7576040517f08c379a00000000000000000000000000000000000000000000000000000000081526004016101ec9061101b565b6003546040517f70a0823100000000000000000000000000000000000000000000000000000000815260009173ffffffffffffffffffffffffffffffffffffffff16906370a082319061054e903090600401610e1c565b60206040518083038186803b15801561056657600080fd5b505afa15801561057a573d6000803e3d6000fd5b505050506040513d601f19601f8201168201806040525081019061059e9190610d9e565b905081156105eb5760085460035473ffffffffffffffffffffffffffffffffffffffff908116911614156105e7576009546000906105dd90839061095a565b94506105eb915050565b8092505b60085460035473ffffffffffffffffffffffffffffffffffffffff9081169116141561066157600061061d828561095a565b91505060086001015481101561065f576040517f08c379a00000000000000000000000000000000000000000000000000000000081526004016101ec90610ebc565b505b821561068b5760035461068b9073ffffffffffffffffffffffffffffffffffffffff1685856108b4565b6040805160608101825286815273ffffffffffffffffffffffffffffffffffffffff86166020808301919091529181018590526007805460018101825560009190915281518051929360039092027fa66cc928b5edb82af9bd49922954155ab7b0942694bea4ce44661d9a8736c68801926107099284920190610bad565b5060208201516001820180547fffffffffffffffffffffffff00000000000000000000000000000000000000001673ffffffffffffffffffffffffffffffffffffffff909216919091179055604091820151600290910155517fa1c3b325aa2c115e4b244062eba2515bc5585ae5b41556be8fef399ae9fde11b9061079390879087908790610e81565b60405180910390a15050505050565b60085460095473ffffffffffffffffffffffffffffffffffffffff9091169082565b600280546107d1906110e8565b80601f01602080910402602001604051908101604052809291908181526020018280546107fd906110e8565b801561084a5780601f1061081f5761010080835404028352916020019161084a565b820191906000526020600020905b81548152906001019060200180831161082d57829003601f168201915b505050505081565b600180546107d1906110e8565b60035473ffffffffffffffffffffffffffffffffffffffff1681565b6020820151156108b057602082015182516108b09173ffffffffffffffffffffffffffffffffffffffff9091169083906108b4565b5050565b6109558363a9059cbb60e01b84846040516024016108d3929190610e3d565b604080517fffffffffffffffffffffffffffffffffffffffffffffffffffffffffffffffe08184030181529190526020810180517bffffffffffffffffffffffffffffffffffffffffffffffffffffffff167fffffffff0000000000000000000000000000000000000000000000000000000090931692909217909152610980565b505050565b6000808383111561097057506000905080610979565b50600190508183035b9250929050565b60006109e2826040518060400160405280602081526020017f5361666545524332303a206c6f772d6c6576656c2063616c6c206661696c65648152508573ffffffffffffffffffffffffffffffffffffffff16610a369092919063ffffffff16565b8051909150156109555780806020019051810190610a009190610c75565b610955576040517f08c379a00000000000000000000000000000000000000000000000000000000081526004016101ec90611052565b6060610a458484600085610a4f565b90505b9392505050565b606082471015610a8b576040517f08c379a00000000000000000000000000000000000000000000000000000000081526004016101ec90610f19565b610a9485610b50565b610aca576040517f08c379a00000000000000000000000000000000000000000000000000000000081526004016101ec90610fe4565b6000808673ffffffffffffffffffffffffffffffffffffffff168587604051610af39190610e00565b60006040518083038185875af1925050503d8060008114610b30576040519150601f19603f3d011682016040523d82523d6000602084013e610b35565b606091505b5091509150610b45828286610b5a565b979650505050505050565b803b15155b919050565b60608315610b69575081610a48565b825115610b795782518084602001fd5b816040517f08c379a00000000000000000000000000000000000000000000000000000000081526004016101ec9190610e6e565b828054610bb9906110e8565b90600052602060002090601f016020900481019282610bdb5760008555610c21565b82601f10610bf457805160ff1916838001178555610c21565b82800160010185558215610c21579182015b82811115610c21578251825591602001919060010190610c06565b50610c2d929150610c31565b5090565b5b80821115610c2d5760008155600101610c32565b803573ffffffffffffffffffffffffffffffffffffffff81168114610b5557600080fd5b8035610b558161116b565b600060208284031215610c86578081fd5b8151610a488161116b565b60008060008060808587031215610ca6578283fd5b843567ffffffffffffffff80821115610cbd578485fd5b818701915087601f830112610cd0578485fd5b813581811115610ce257610ce261113c565b604051601f82017fffffffffffffffffffffffffffffffffffffffffffffffffffffffffffffffe0908116603f01168101908382118183101715610d2857610d2861113c565b816040528281528a6020848701011115610d40578788fd5b8260208601602083013787602084830101528098505050505050610d6660208601610c46565b925060408501359150610d7b60608601610c6a565b905092959194509250565b600060208284031215610d97578081fd5b5035919050565b600060208284031215610daf578081fd5b5051919050565b60008151808452610dce8160208601602086016110b8565b601f017fffffffffffffffffffffffffffffffffffffffffffffffffffffffffffffffe0169290920160200192915050565b60008251610e128184602087016110b8565b9190910192915050565b73ffffffffffffffffffffffffffffffffffffffff91909116815260200190565b73ffffffffffffffffffffffffffffffffffffffff929092168252602082015260400190565b901515815260200190565b600060208252610a486020830184610db6565b600060608252610e946060830186610db6565b73ffffffffffffffffffffffffffffffffffffffff9490941660208301525060400152919050565b60208082526027908201527f4552524f523a2053686f756c64206e6f742065786365656420616c6c6f77656460408201527f20626f756e747900000000000000000000000000000000000000000000000000606082015260800190565b60208082526026908201527f416464726573733a20696e73756666696369656e742062616c616e636520666f60408201527f722063616c6c0000000000000000000000000000000000000000000000000000606082015260800190565b60208082526012908201527f4552524f523a204e6f7420657870697265640000000000000000000000000000604082015260600190565b60208082526018908201527f4552524f523a2053656e646572206e6f7420676f7665726e0000000000000000604082015260600190565b6020808252601d908201527f416464726573733a2063616c6c20746f206e6f6e2d636f6e7472616374000000604082015260600190565b60208082526012908201527f4552524f523a204e6f2065766964656e63650000000000000000000000000000604082015260600190565b6020808252602a908201527f5361666545524332303a204552433230206f7065726174696f6e20646964206e60408201527f6f74207375636365656400000000000000000000000000000000000000000000606082015260800190565b90815260200190565b60005b838110156110d35781810151838201526020016110bb565b838111156110e2576000848401525b50505050565b6002810460018216806110fc57607f821691505b60208210811415611136577f4e487b7100000000000000000000000000000000000000000000000000000000600052602260045260246000fd5b50919050565b7f4e487b7100000000000000000000000000000000000000000000000000000000600052604160045260246000fd5b801515811461117957600080fd5b5056fea2646970667358221220ed56507b634ebeaae309509ea680f90e736b7873ed34daf4d911bd38dce7becb64736f6c63430008010033a26469706673582212203b76689e14505056015d3b5e2ef896271124d6f9f50c1f051e2f0c3975176c7964736f6c63430008010033",
  "devdoc": {
    "kind": "dev",
    "methods": {
      "owner()": {
        "details": "Returns the address of the current owner."
      },
      "renounceOwnership()": {
        "details": "Leaves the contract without owner. It will not be possible to call `onlyOwner` functions anymore. Can only be called by the current owner. NOTE: Renouncing ownership will leave the contract without an owner, thereby removing any functionality that is only available to the owner."
      },
      "transferOwnership(address)": {
        "details": "Transfers ownership of the contract to a new account (`newOwner`). Can only be called by the current owner."
      }
    },
    "version": 1
  },
  "userdoc": {
    "kind": "user",
    "methods": {},
    "version": 1
  },
  "storageLayout": {
    "storage": [
      {
        "astId": 7,
        "contract": "contracts/QuestFactory.sol:QuestFactory",
        "label": "_owner",
        "offset": 0,
        "slot": "0",
        "type": "t_address"
      },
      {
        "astId": 1905,
        "contract": "contracts/QuestFactory.sol:QuestFactory",
        "label": "aragonGovernAddress",
        "offset": 0,
        "slot": "1",
        "type": "t_address"
      },
      {
        "astId": 1908,
        "contract": "contracts/QuestFactory.sol:QuestFactory",
        "label": "deposit",
        "offset": 0,
        "slot": "2",
        "type": "t_struct(Deposit)2189_storage"
      }
    ],
    "types": {
      "t_address": {
        "encoding": "inplace",
        "label": "address",
        "numberOfBytes": "20"
      },
      "t_contract(IERC20)728": {
        "encoding": "inplace",
        "label": "contract IERC20",
        "numberOfBytes": "20"
      },
      "t_struct(Deposit)2189_storage": {
        "encoding": "inplace",
        "label": "struct Models.Deposit",
        "members": [
          {
            "astId": 2186,
            "contract": "contracts/QuestFactory.sol:QuestFactory",
            "label": "token",
            "offset": 0,
            "slot": "0",
            "type": "t_contract(IERC20)728"
          },
          {
            "astId": 2188,
            "contract": "contracts/QuestFactory.sol:QuestFactory",
            "label": "amount",
            "offset": 0,
            "slot": "1",
            "type": "t_uint256"
          }
        ],
        "numberOfBytes": "64"
      },
      "t_uint256": {
        "encoding": "inplace",
        "label": "uint256",
        "numberOfBytes": "32"
      }
    }
  }
}