{
  "address": "0x1a98911e0b4d12Ef8FDE90a9EfCf16EAF23DCce0",
  "abi": [
    {
      "inputs": [
        {
          "internalType": "address",
          "name": "_aragonGovernAddress",
          "type": "address"
        }
      ],
      "stateMutability": "nonpayable",
      "type": "constructor"
    },
    {
      "anonymous": false,
      "inputs": [
        {
          "indexed": false,
          "internalType": "address",
          "name": "questAddress",
          "type": "address"
        },
        {
          "indexed": false,
          "internalType": "string",
          "name": "questTitle",
          "type": "string"
        },
        {
          "indexed": false,
          "internalType": "string",
          "name": "questDetailsRef",
          "type": "string"
        },
        {
          "indexed": false,
          "internalType": "address",
          "name": "rewardTokenAddress",
          "type": "address"
        },
        {
          "indexed": false,
          "internalType": "uint256",
          "name": "expireTime",
          "type": "uint256"
        },
        {
          "indexed": false,
          "internalType": "string",
          "name": "version",
          "type": "string"
        }
      ],
      "name": "QuestCreated",
      "type": "event"
    },
    {
      "inputs": [],
      "name": "aragonGovernAddress",
      "outputs": [
        {
          "internalType": "address",
          "name": "",
          "type": "address"
        }
      ],
      "stateMutability": "view",
      "type": "function"
    },
    {
      "inputs": [
        {
          "internalType": "string",
          "name": "_questTitle",
          "type": "string"
        },
        {
          "internalType": "string",
          "name": "_questDetailsRef",
          "type": "string"
        },
        {
          "internalType": "contract IERC20",
          "name": "_rewardToken",
          "type": "address"
        },
        {
          "internalType": "uint256",
          "name": "_expireTime",
          "type": "uint256"
        },
        {
          "internalType": "address payable",
          "name": "_fundsRecoveryAddress",
          "type": "address"
        },
        {
          "internalType": "string",
          "name": "_version",
          "type": "string"
        }
      ],
      "name": "createQuest",
      "outputs": [],
      "stateMutability": "nonpayable",
      "type": "function"
    }
  ],
  "transactionHash": "0x23de4c3aa7bc6dc7442f5eb0541d3eefcf57597e198ca51ddceeb3009edaee73",
  "args": [
    "0xc03710063b0e4435f997A0B1bbdf2680A2f07E13"
  ],
  "solcInputHash": "2226a6a701d1ef07f9e30fd898b51452",
  "bytecode": "0x608060405234801561001057600080fd5b5060405161134a38038061134a83398101604081905261002f91610054565b600080546001600160a01b0319166001600160a01b0392909216919091179055610082565b600060208284031215610065578081fd5b81516001600160a01b038116811461007b578182fd5b9392505050565b6112b9806100916000396000f3fe608060405234801561001057600080fd5b50600436106100365760003560e01c8063b0a87ac11461003b578063c9c2f1a314610059575b600080fd5b61004361006e565b60405161005091906102ab565b60405180910390f35b61006c6100673660046101aa565b61007d565b005b6000546001600160a01b031681565b60008686868660008054906101000a90046001600160a01b0316876040516100a49061011c565b6100b396959493929190610323565b604051809103906000f0801580156100cf573d6000803e3d6000fd5b5090507fc5df7e7cac6a7417a0b903738c86ba06b39df84477a9d10ddc9cadf43673425a81888888888760405161010b969594939291906102bf565b60405180910390a150505050505050565b610ed9806103ab83390190565b600082601f830112610139578081fd5b813567ffffffffffffffff808211156101545761015461037c565b604051601f8301601f1916810160200182811182821017156101785761017861037c565b60405282815284830160200186101561018f578384fd5b82602086016020830137918201602001929092529392505050565b60008060008060008060c087890312156101c2578182fd5b863567ffffffffffffffff808211156101d9578384fd5b6101e58a838b01610129565b975060208901359150808211156101fa578384fd5b6102068a838b01610129565b96506040890135915061021882610392565b9094506060880135935060808801359061023182610392565b90925060a08801359080821115610246578283fd5b5061025389828a01610129565b9150509295509295509295565b60008151808452815b8181101561028557602081850181015186830182015201610269565b818111156102965782602083870101525b50601f01601f19169290920160200192915050565b6001600160a01b0391909116815260200190565b600060018060a01b03808916835260c060208401526102e160c0840189610260565b83810360408501526102f38189610260565b9050818716606085015285608085015283810360a08501526103158186610260565b9a9950505050505050505050565b600060c0825261033660c0830189610260565b82810360208401526103488189610260565b6001600160a01b03978816604085015260608401969096525050918416608083015290921660a09092019190915292915050565b634e487b7160e01b600052604160045260246000fd5b6001600160a01b03811681146103a757600080fd5b5056fe60806040523480156200001157600080fd5b5060405162000ed938038062000ed98339810160408190526200003491620001fd565b855162000049906000906020890190620000ac565b5084516200005f906001906020880190620000ac565b50600280546001600160a01b039586166001600160a01b031991821617909155600393909355600480549285169284169290921790915560058054919093169116179055506200031a9050565b828054620000ba90620002ae565b90600052602060002090601f016020900481019282620000de576000855562000129565b82601f10620000f957805160ff191683800117855562000129565b8280016001018555821562000129579182015b82811115620001295782518255916020019190600101906200010c565b50620001379291506200013b565b5090565b5b808211156200013757600081556001016200013c565b600082601f83011262000163578081fd5b81516001600160401b0380821115620001805762000180620002eb565b6040516020601f8401601f1916820181018381118382101715620001a857620001a8620002eb565b6040528382528584018101871015620001bf578485fd5b8492505b83831015620001e25785830181015182840182015291820191620001c3565b83831115620001f357848185840101525b5095945050505050565b60008060008060008060c0878903121562000216578182fd5b86516001600160401b03808211156200022d578384fd5b6200023b8a838b0162000152565b9750602089015191508082111562000251578384fd5b506200026089828a0162000152565b9550506040870151620002738162000301565b6060880151608089015191955093506200028d8162000301565b60a0880151909250620002a08162000301565b809150509295509295509295565b600281046001821680620002c357607f821691505b60208210811415620002e557634e487b7160e01b600052602260045260246000fd5b50919050565b634e487b7160e01b600052604160045260246000fd5b6001600160a01b03811681146200031757600080fd5b50565b610baf806200032a6000396000f3fe608060405234801561001057600080fd5b50600436106100935760003560e01c8063a888c2cd11610066578063a888c2cd146100e8578063b0a87ac11461010a578063e0c2342314610112578063f294cf3814610127578063f7c618c11461012f57610093565b8063310a1ee3146100985780634621d082146100b65780637ceae310146100c057806399b44ba0146100d5575b600080fd5b6100a0610137565b6040516100ad9190610aef565b60405180910390f35b6100be61013d565b005b6100c8610205565b6040516100ad919061092b565b6100be6100e33660046107f7565b610214565b6100fb6100f63660046108b3565b61039c565b6040516100ad93929190610958565b6100c8610468565b61011a610477565b6040516100ad9190610986565b61011a610505565b6100c8610512565b60035481565b60035442116101675760405162461bcd60e51b815260040161015e906109df565b60405180910390fd5b6005546002546040516370a0823160e01b8152610203926001600160a01b039081169216906370a08231906101a090309060040161092b565b60206040518083038186803b1580156101b857600080fd5b505afa1580156101cc573d6000803e3d6000fd5b505050506040513d601f19601f820116820180604052508101906101f091906108cb565b6002546001600160a01b03169190610521565b565b6005546001600160a01b031681565b6004546001600160a01b0316331461023e5760405162461bcd60e51b815260040161015e90610a0b565b825161025c5760405162461bcd60e51b815260040161015e90610a79565b801561027e57600254610279906001600160a01b03168383610521565b6102b9565b806102b9576002546040516370a0823160e01b81526102b99184916001600160a01b03909116906370a08231906101a090309060040161092b565b604080516060810182528481526001600160a01b0384166020808301919091529181018390526006805460018101825560009190915281518051929360039092027ff652222313e28459528d920b65115c16c04f3efc82aaedc97be59f3f377c0d3f019261032a9284920190610727565b5060208201516001820180546001600160a01b0319166001600160a01b03909216919091179055604091820151600290910155517fa1c3b325aa2c115e4b244062eba2515bc5585ae5b41556be8fef399ae9fde11b9061038f90859085908590610958565b60405180910390a1505050565b600681815481106103ac57600080fd5b90600052602060002090600302016000915090508060000180546103cf90610b28565b80601f01602080910402602001604051908101604052809291908181526020018280546103fb90610b28565b80156104485780601f1061041d57610100808354040283529160200191610448565b820191906000526020600020905b81548152906001019060200180831161042b57829003601f168201915b50505050600183015460029093015491926001600160a01b031691905083565b6004546001600160a01b031681565b6001805461048490610b28565b80601f01602080910402602001604051908101604052809291908181526020018280546104b090610b28565b80156104fd5780601f106104d2576101008083540402835291602001916104fd565b820191906000526020600020905b8154815290600101906020018083116104e057829003601f168201915b505050505081565b6000805461048490610b28565b6002546001600160a01b031681565b6105778363a9059cbb60e01b848460405160240161054092919061093f565b60408051601f198184030181529190526020810180516001600160e01b03166001600160e01b03199093169290921790915261057c565b505050565b60006105d1826040518060400160405280602081526020017f5361666545524332303a206c6f772d6c6576656c2063616c6c206661696c6564815250856001600160a01b031661060b9092919063ffffffff16565b80519091501561057757808060200190518101906105ef91906107d7565b6105775760405162461bcd60e51b815260040161015e90610aa5565b606061061a8484600085610624565b90505b9392505050565b6060824710156106465760405162461bcd60e51b815260040161015e90610999565b61064f856106e4565b61066b5760405162461bcd60e51b815260040161015e90610a42565b600080866001600160a01b03168587604051610687919061090f565b60006040518083038185875af1925050503d80600081146106c4576040519150601f19603f3d011682016040523d82523d6000602084013e6106c9565b606091505b50915091506106d98282866106ee565b979650505050505050565b803b15155b919050565b606083156106fd57508161061d565b82511561070d5782518084602001fd5b8160405162461bcd60e51b815260040161015e9190610986565b82805461073390610b28565b90600052602060002090601f016020900481019282610755576000855561079b565b82601f1061076e57805160ff191683800117855561079b565b8280016001018555821561079b579182015b8281111561079b578251825591602001919060010190610780565b506107a79291506107ab565b5090565b5b808211156107a757600081556001016107ac565b80356001600160a01b03811681146106e957600080fd5b6000602082840312156107e8578081fd5b8151801515811461061d578182fd5b60008060006060848603121561080b578182fd5b833567ffffffffffffffff80821115610822578384fd5b818601915086601f830112610835578384fd5b813560208282111561084957610849610b63565b604051601f8301601f191681018201848111828210171561086c5761086c610b63565b60405282815284830182018a1015610882578687fd5b82828601838301378083018201879052965061089f8882016107c0565b955050505050604084013590509250925092565b6000602082840312156108c4578081fd5b5035919050565b6000602082840312156108dc578081fd5b5051919050565b600081518084526108fb816020860160208601610af8565b601f01601f19169290920160200192915050565b60008251610921818460208701610af8565b9190910192915050565b6001600160a01b0391909116815260200190565b6001600160a01b03929092168252602082015260400190565b60006060825261096b60608301866108e3565b6001600160a01b039490941660208301525060400152919050565b60006020825261061d60208301846108e3565b60208082526026908201527f416464726573733a20696e73756666696369656e742062616c616e636520666f6040820152651c8818d85b1b60d21b606082015260800190565b60208082526012908201527111549493d48e88139bdd08195e1c1a5c995960721b604082015260600190565b60208082526018908201527f4552524f523a2053656e646572206e6f7420676f7665726e0000000000000000604082015260600190565b6020808252601d908201527f416464726573733a2063616c6c20746f206e6f6e2d636f6e7472616374000000604082015260600190565b6020808252601290820152714552524f523a204e6f2065766964656e636560701b604082015260600190565b6020808252602a908201527f5361666545524332303a204552433230206f7065726174696f6e20646964206e6040820152691bdd081cdd58d8d9595960b21b606082015260800190565b90815260200190565b60005b83811015610b13578181015183820152602001610afb565b83811115610b22576000848401525b50505050565b600281046001821680610b3c57607f821691505b60208210811415610b5d57634e487b7160e01b600052602260045260246000fd5b50919050565b634e487b7160e01b600052604160045260246000fdfea264697066735822122096d57ab621a6a0694728140e015ae063ca05870c70b36892cd19b375297fc7e064736f6c63430008000033a26469706673582212202f547d6b8dfbe6350b2475d6e8bb367abb2142f3f5e1a88c391e0f3237e14bcd64736f6c63430008000033",
  "devdoc": {
    "kind": "dev",
    "methods": {},
    "version": 1
  },
  "userdoc": {
    "kind": "user",
    "methods": {},
    "version": 1
  },
  "storageLayout": {
    "storage": [
      {
        "astId": 1376,
        "contract": "contracts/QuestFactory.sol:QuestFactory",
        "label": "aragonGovernAddress",
        "offset": 0,
        "slot": "0",
        "type": "t_address"
      }
    ],
    "types": {
      "t_address": {
        "encoding": "inplace",
        "label": "address",
        "numberOfBytes": "20"
      }
    }
  }
}