{
  "address": "0x295f9d37f6CD6362C49720A9CE5EAA1681d0b60E",
  "abi": [
    {
      "inputs": [
        {
          "internalType": "string",
          "name": "_questTitle",
          "type": "string"
        },
        {
          "internalType": "bytes",
          "name": "_questDetailsRef",
          "type": "bytes"
        },
        {
          "internalType": "contract IERC20",
          "name": "_rewardToken",
          "type": "address"
        },
        {
          "internalType": "uint256",
          "name": "_expireTime",
          "type": "uint256"
        },
        {
          "internalType": "address",
          "name": "_aragonGovernAddress",
          "type": "address"
        },
        {
          "internalType": "address payable",
          "name": "_fundsRecoveryAddress",
          "type": "address"
        },
        {
          "internalType": "contract IERC20",
          "name": "_depositToken",
          "type": "address"
        },
        {
          "internalType": "uint256",
          "name": "_depositAmount",
          "type": "uint256"
        },
        {
          "internalType": "address",
          "name": "_questCreator",
          "type": "address"
        }
      ],
      "stateMutability": "nonpayable",
      "type": "constructor"
    },
    {
      "anonymous": false,
      "inputs": [
        {
          "indexed": false,
          "internalType": "bytes",
          "name": "evidence",
          "type": "bytes"
        },
        {
          "indexed": false,
          "internalType": "address",
          "name": "player",
          "type": "address"
        },
        {
          "indexed": false,
          "internalType": "uint256",
          "name": "amount",
          "type": "uint256"
        }
      ],
      "name": "QuestClaimed",
      "type": "event"
    },
    {
      "inputs": [],
      "name": "aragonGovernAddress",
      "outputs": [
        {
          "internalType": "address",
          "name": "",
          "type": "address"
        }
      ],
      "stateMutability": "view",
      "type": "function"
    },
    {
      "inputs": [
        {
          "internalType": "bytes",
          "name": "_evidence",
          "type": "bytes"
        },
        {
          "internalType": "address",
          "name": "_player",
          "type": "address"
        },
        {
          "internalType": "uint256",
          "name": "_amount",
          "type": "uint256"
        },
        {
          "internalType": "bool",
          "name": "_claimAll",
          "type": "bool"
        }
      ],
      "name": "claim",
      "outputs": [],
      "stateMutability": "nonpayable",
      "type": "function"
    },
    {
      "inputs": [
        {
          "internalType": "uint256",
          "name": "",
          "type": "uint256"
        }
      ],
      "name": "claims",
      "outputs": [
        {
          "internalType": "bytes",
          "name": "evidence",
          "type": "bytes"
        },
        {
          "internalType": "address",
          "name": "player",
          "type": "address"
        },
        {
          "internalType": "uint256",
          "name": "amount",
          "type": "uint256"
        }
      ],
      "stateMutability": "view",
      "type": "function"
    },
    {
      "inputs": [],
      "name": "deposit",
      "outputs": [
        {
          "internalType": "contract IERC20",
          "name": "token",
          "type": "address"
        },
        {
          "internalType": "uint256",
          "name": "amount",
          "type": "uint256"
        }
      ],
      "stateMutability": "view",
      "type": "function"
    },
    {
      "inputs": [],
      "name": "expireTime",
      "outputs": [
        {
          "internalType": "uint256",
          "name": "",
          "type": "uint256"
        }
      ],
      "stateMutability": "view",
      "type": "function"
    },
    {
      "inputs": [],
      "name": "factory",
      "outputs": [
        {
          "internalType": "address",
          "name": "",
          "type": "address"
        }
      ],
      "stateMutability": "view",
      "type": "function"
    },
    {
      "inputs": [],
      "name": "fundsRecoveryAddress",
      "outputs": [
        {
          "internalType": "address payable",
          "name": "",
          "type": "address"
        }
      ],
      "stateMutability": "view",
      "type": "function"
    },
    {
      "inputs": [],
      "name": "questCreator",
      "outputs": [
        {
          "internalType": "address",
          "name": "",
          "type": "address"
        }
      ],
      "stateMutability": "view",
      "type": "function"
    },
    {
      "inputs": [],
      "name": "questDetailsRef",
      "outputs": [
        {
          "internalType": "bytes",
          "name": "",
          "type": "bytes"
        }
      ],
      "stateMutability": "view",
      "type": "function"
    },
    {
      "inputs": [],
      "name": "questTitle",
      "outputs": [
        {
          "internalType": "string",
          "name": "",
          "type": "string"
        }
      ],
      "stateMutability": "view",
      "type": "function"
    },
    {
      "inputs": [],
      "name": "recoverUnclaimedFunds",
      "outputs": [],
      "stateMutability": "nonpayable",
      "type": "function"
    },
    {
      "inputs": [],
      "name": "rewardToken",
      "outputs": [
        {
          "internalType": "contract IERC20",
          "name": "",
          "type": "address"
        }
      ],
      "stateMutability": "view",
      "type": "function"
    }
  ],
  "transactionHash": "0x800d09bcd6eeca37bc69014672f8582b546a0595772a5ebd7aa10656c40042fd",
  "args": [
    "ASDF",
    "0x00",
    "0xdf456B614fE9FF1C7c0B380330Da29C96d40FB02",
    0,
    "0x6e7c3BC98bee14302AA2A98B4c5C86b13eB4b6Cd",
    "0xdf456B614fE9FF1C7c0B380330Da29C96d40FB02",
    "0x6e7c3BC98bee14302AA2A98B4c5C86b13eB4b6Cd",
    "100000000000000000",
    "0xdf456B614fE9FF1C7c0B380330Da29C96d40FB02"
  ],
  "solcInputHash": "9887b9245a2243416e9317cbcc9f84e3",
  "bytecode": "0x60806040523480156200001157600080fd5b50604051620015bd380380620015bd833981016040819052620000349162000285565b8851620000499060029060208c0190620000f5565b5087516200005f9060039060208b0190620000f5565b50600480546001600160a01b03199081166001600160a01b03998a1617909155600596909655600680548716958816959095179094556007805486169387169390931790925560018054851693861693909317909255604080518082019091529190931680825260209091018390526009805483169091179055600a919091556000805433921691909117905550620003c79050565b828054620001039062000374565b90600052602060002090601f01602090048101928262000127576000855562000172565b82601f106200014257805160ff191683800117855562000172565b8280016001018555821562000172579182015b828111156200017257825182559160200191906001019062000155565b506200018092915062000184565b5090565b5b8082111562000180576000815560010162000185565b60006001600160401b0380841115620001b857620001b8620003b1565b604051601f8501601f19908116603f01168101908282118183101715620001e357620001e3620003b1565b81604052809350858152868686011115620001fd57600080fd5b600092505b858310156200022257828501516020848301015260208301925062000202565b8583111562000235576000602087830101525b5050509392505050565b80516001600160a01b03811681146200025757600080fd5b919050565b600082601f8301126200026d578081fd5b6200027e838351602085016200019b565b9392505050565b60008060008060008060008060006101208a8c031215620002a4578485fd5b89516001600160401b0380821115620002bb578687fd5b818c0191508c601f830112620002cf578687fd5b620002e08d8351602085016200019b565b9a5060208c0151915080821115620002f6578687fd5b50620003058c828d016200025c565b9850506200031660408b016200023f565b965060608a015195506200032d60808b016200023f565b94506200033d60a08b016200023f565b93506200034d60c08b016200023f565b925060e08a01519150620003656101008b016200023f565b90509295985092959850929598565b6002810460018216806200038957607f821691505b60208210811415620003ab57634e487b7160e01b600052602260045260246000fd5b50919050565b634e487b7160e01b600052604160045260246000fd5b6111e680620003d76000396000f3fe608060405234801561001057600080fd5b50600436106100d45760003560e01c8063b434151c11610081578063e0c234231161005b578063e0c2342314610179578063f294cf381461018e578063f7c618c114610196576100d4565b8063b434151c14610148578063c45a01551461015b578063d0e30db014610163576100d4565b80637ceae310116100b25780637ceae31014610116578063a888c2cd1461011e578063b0a87ac114610140576100d4565b8063310a1ee3146100d95780634621d082146100f75780636c3a4cce14610101575b600080fd5b6100e161019e565b6040516100ee91906110e3565b60405180910390f35b6100ff6101a4565b005b6101096102f5565b6040516100ee9190610e5b565b610109610311565b61013161012c366004610dc5565b61032d565b6040516100ee93929190610eb5565b610109610406565b6100ff610156366004610cd0565b610422565b610109610757565b61016b610773565b6040516100ee929190610e7c565b610181610795565b6040516100ee9190610ea2565b610181610823565b610109610830565b60055481565b60055442116101e8576040517f08c379a00000000000000000000000000000000000000000000000000000000081526004016101df90610faa565b60405180910390fd5b6001546040805180820190915260095473ffffffffffffffffffffffffffffffffffffffff9081168252600a546020830152610224921661084c565b600754600480546040517f70a082310000000000000000000000000000000000000000000000000000000081526102f39373ffffffffffffffffffffffffffffffffffffffff908116939216916370a082319161028391309101610e5b565b60206040518083038186803b15801561029b57600080fd5b505afa1580156102af573d6000803e3d6000fd5b505050506040513d601f19601f820116820180604052508101906102d39190610ddd565b60045473ffffffffffffffffffffffffffffffffffffffff1691906108f3565b565b60015473ffffffffffffffffffffffffffffffffffffffff1681565b60075473ffffffffffffffffffffffffffffffffffffffff1681565b6008818154811061033d57600080fd5b90600052602060002090600302016000915090508060000180546103609061111c565b80601f016020809104026020016040519081016040528092919081815260200182805461038c9061111c565b80156103d95780601f106103ae576101008083540402835291602001916103d9565b820191906000526020600020905b8154815290600101906020018083116103bc57829003601f168201915b505050506001830154600290930154919273ffffffffffffffffffffffffffffffffffffffff1691905083565b60065473ffffffffffffffffffffffffffffffffffffffff1681565b60065473ffffffffffffffffffffffffffffffffffffffff163314610473576040517f08c379a00000000000000000000000000000000000000000000000000000000081526004016101df90610fe1565b83516104ab576040517f08c379a00000000000000000000000000000000000000000000000000000000081526004016101df9061104f565b600480546040517f70a0823100000000000000000000000000000000000000000000000000000000815260009273ffffffffffffffffffffffffffffffffffffffff909216916370a082319161050391309101610e5b565b60206040518083038186803b15801561051b57600080fd5b505afa15801561052f573d6000803e3d6000fd5b505050506040513d601f19601f820116820180604052508101906105539190610ddd565b905081156105a05760095460045473ffffffffffffffffffffffffffffffffffffffff9081169116141561059c57600a54600090610592908390610999565b94506105a0915050565b8092505b60095460045473ffffffffffffffffffffffffffffffffffffffff908116911614156106165760006105d28285610999565b915050600960010154811015610614576040517f08c379a00000000000000000000000000000000000000000000000000000000081526004016101df90610ef0565b505b8215610640576004546106409073ffffffffffffffffffffffffffffffffffffffff1685856108f3565b6040805160608101825286815273ffffffffffffffffffffffffffffffffffffffff86166020808301919091529181018590526008805460018101825560009190915281518051929360039092027ff3f7a9fe364faab93b216da50a3214154f22a0a2b415b23a84c8169e8b636ee301926106be9284920190610bec565b5060208201516001820180547fffffffffffffffffffffffff00000000000000000000000000000000000000001673ffffffffffffffffffffffffffffffffffffffff909216919091179055604091820151600290910155517fa1c3b325aa2c115e4b244062eba2515bc5585ae5b41556be8fef399ae9fde11b9061074890879087908790610eb5565b60405180910390a15050505050565b60005473ffffffffffffffffffffffffffffffffffffffff1681565b600954600a5473ffffffffffffffffffffffffffffffffffffffff9091169082565b600380546107a29061111c565b80601f01602080910402602001604051908101604052809291908181526020018280546107ce9061111c565b801561081b5780601f106107f05761010080835404028352916020019161081b565b820191906000526020600020905b8154815290600101906020018083116107fe57829003601f168201915b505050505081565b600280546107a29061111c565b60045473ffffffffffffffffffffffffffffffffffffffff1681565b6020820151156108ef57602082015182516108819173ffffffffffffffffffffffffffffffffffffffff9091169083906108f3565b8073ffffffffffffffffffffffffffffffffffffffff16826000015173ffffffffffffffffffffffffffffffffffffffff167fc1c90b8e0705b212262c0dbd7580efe1862c2f185bf96899226f7596beb2db0984602001516040516108e691906110e3565b60405180910390a35b5050565b6109948363a9059cbb60e01b8484604051602401610912929190610e7c565b604080517fffffffffffffffffffffffffffffffffffffffffffffffffffffffffffffffe08184030181529190526020810180517bffffffffffffffffffffffffffffffffffffffffffffffffffffffff167fffffffff00000000000000000000000000000000000000000000000000000000909316929092179091526109bf565b505050565b600080838311156109af575060009050806109b8565b50600190508183035b9250929050565b6000610a21826040518060400160405280602081526020017f5361666545524332303a206c6f772d6c6576656c2063616c6c206661696c65648152508573ffffffffffffffffffffffffffffffffffffffff16610a759092919063ffffffff16565b8051909150156109945780806020019051810190610a3f9190610cb4565b610994576040517f08c379a00000000000000000000000000000000000000000000000000000000081526004016101df90611086565b6060610a848484600085610a8e565b90505b9392505050565b606082471015610aca576040517f08c379a00000000000000000000000000000000000000000000000000000000081526004016101df90610f4d565b610ad385610b8f565b610b09576040517f08c379a00000000000000000000000000000000000000000000000000000000081526004016101df90611018565b6000808673ffffffffffffffffffffffffffffffffffffffff168587604051610b329190610e3f565b60006040518083038185875af1925050503d8060008114610b6f576040519150601f19603f3d011682016040523d82523d6000602084013e610b74565b606091505b5091509150610b84828286610b99565b979650505050505050565b803b15155b919050565b60608315610ba8575081610a87565b825115610bb85782518084602001fd5b816040517f08c379a00000000000000000000000000000000000000000000000000000000081526004016101df9190610ea2565b828054610bf89061111c565b90600052602060002090601f016020900481019282610c1a5760008555610c60565b82601f10610c3357805160ff1916838001178555610c60565b82800160010185558215610c60579182015b82811115610c60578251825591602001919060010190610c45565b50610c6c929150610c70565b5090565b5b80821115610c6c5760008155600101610c71565b803573ffffffffffffffffffffffffffffffffffffffff81168114610b9457600080fd5b8035610b948161119f565b600060208284031215610cc5578081fd5b8151610a878161119f565b60008060008060808587031215610ce5578283fd5b843567ffffffffffffffff80821115610cfc578485fd5b818701915087601f830112610d0f578485fd5b813581811115610d2157610d21611170565b604051601f82017fffffffffffffffffffffffffffffffffffffffffffffffffffffffffffffffe0908116603f01168101908382118183101715610d6757610d67611170565b816040528281528a6020848701011115610d7f578788fd5b8260208601602083013787602084830101528098505050505050610da560208601610c85565b925060408501359150610dba60608601610ca9565b905092959194509250565b600060208284031215610dd6578081fd5b5035919050565b600060208284031215610dee578081fd5b5051919050565b60008151808452610e0d8160208601602086016110ec565b601f017fffffffffffffffffffffffffffffffffffffffffffffffffffffffffffffffe0169290920160200192915050565b60008251610e518184602087016110ec565b9190910192915050565b73ffffffffffffffffffffffffffffffffffffffff91909116815260200190565b73ffffffffffffffffffffffffffffffffffffffff929092168252602082015260400190565b600060208252610a876020830184610df5565b600060608252610ec86060830186610df5565b73ffffffffffffffffffffffffffffffffffffffff9490941660208301525060400152919050565b60208082526027908201527f4552524f523a2053686f756c64206e6f742065786365656420616c6c6f77656460408201527f20626f756e747900000000000000000000000000000000000000000000000000606082015260800190565b60208082526026908201527f416464726573733a20696e73756666696369656e742062616c616e636520666f60408201527f722063616c6c0000000000000000000000000000000000000000000000000000606082015260800190565b60208082526012908201527f4552524f523a204e6f7420657870697265640000000000000000000000000000604082015260600190565b60208082526018908201527f4552524f523a2053656e646572206e6f7420676f7665726e0000000000000000604082015260600190565b6020808252601d908201527f416464726573733a2063616c6c20746f206e6f6e2d636f6e7472616374000000604082015260600190565b60208082526012908201527f4552524f523a204e6f2065766964656e63650000000000000000000000000000604082015260600190565b6020808252602a908201527f5361666545524332303a204552433230206f7065726174696f6e20646964206e60408201527f6f74207375636365656400000000000000000000000000000000000000000000606082015260800190565b90815260200190565b60005b838110156111075781810151838201526020016110ef565b83811115611116576000848401525b50505050565b60028104600182168061113057607f821691505b6020821081141561116a577f4e487b7100000000000000000000000000000000000000000000000000000000600052602260045260246000fd5b50919050565b7f4e487b7100000000000000000000000000000000000000000000000000000000600052604160045260246000fd5b80151581146111ad57600080fd5b5056fea26469706673582212201ccec9a77e2b6c3c7dd44b7334aad8b6e61c52dee72fb1a2baeead3ef45feb6664736f6c63430008010033",
  "devdoc": {
    "kind": "dev",
    "methods": {},
    "version": 1
  },
  "userdoc": {
    "kind": "user",
    "methods": {},
    "version": 1
  },
  "storageLayout": {
    "storage": [
      {
        "astId": 1629,
        "contract": "contracts/Quest.sol:Quest",
        "label": "factory",
        "offset": 0,
        "slot": "0",
        "type": "t_address"
      },
      {
        "astId": 1631,
        "contract": "contracts/Quest.sol:Quest",
        "label": "questCreator",
        "offset": 0,
        "slot": "1",
        "type": "t_address"
      },
      {
        "astId": 1633,
        "contract": "contracts/Quest.sol:Quest",
        "label": "questTitle",
        "offset": 0,
        "slot": "2",
        "type": "t_string_storage"
      },
      {
        "astId": 1635,
        "contract": "contracts/Quest.sol:Quest",
        "label": "questDetailsRef",
        "offset": 0,
        "slot": "3",
        "type": "t_bytes_storage"
      },
      {
        "astId": 1638,
        "contract": "contracts/Quest.sol:Quest",
        "label": "rewardToken",
        "offset": 0,
        "slot": "4",
        "type": "t_contract(IERC20)728"
      },
      {
        "astId": 1640,
        "contract": "contracts/Quest.sol:Quest",
        "label": "expireTime",
        "offset": 0,
        "slot": "5",
        "type": "t_uint256"
      },
      {
        "astId": 1642,
        "contract": "contracts/Quest.sol:Quest",
        "label": "aragonGovernAddress",
        "offset": 0,
        "slot": "6",
        "type": "t_address"
      },
      {
        "astId": 1644,
        "contract": "contracts/Quest.sol:Quest",
        "label": "fundsRecoveryAddress",
        "offset": 0,
        "slot": "7",
        "type": "t_address_payable"
      },
      {
        "astId": 1648,
        "contract": "contracts/Quest.sol:Quest",
        "label": "claims",
        "offset": 0,
        "slot": "8",
        "type": "t_array(t_struct(Claim)2180_storage)dyn_storage"
      },
      {
        "astId": 1651,
        "contract": "contracts/Quest.sol:Quest",
        "label": "deposit",
        "offset": 0,
        "slot": "9",
        "type": "t_struct(Deposit)2173_storage"
      }
    ],
    "types": {
      "t_address": {
        "encoding": "inplace",
        "label": "address",
        "numberOfBytes": "20"
      },
      "t_address_payable": {
        "encoding": "inplace",
        "label": "address payable",
        "numberOfBytes": "20"
      },
      "t_array(t_struct(Claim)2180_storage)dyn_storage": {
        "base": "t_struct(Claim)2180_storage",
        "encoding": "dynamic_array",
        "label": "struct Models.Claim[]",
        "numberOfBytes": "32"
      },
      "t_bytes_storage": {
        "encoding": "bytes",
        "label": "bytes",
        "numberOfBytes": "32"
      },
      "t_contract(IERC20)728": {
        "encoding": "inplace",
        "label": "contract IERC20",
        "numberOfBytes": "20"
      },
      "t_string_storage": {
        "encoding": "bytes",
        "label": "string",
        "numberOfBytes": "32"
      },
      "t_struct(Claim)2180_storage": {
        "encoding": "inplace",
        "label": "struct Models.Claim",
        "members": [
          {
            "astId": 2175,
            "contract": "contracts/Quest.sol:Quest",
            "label": "evidence",
            "offset": 0,
            "slot": "0",
            "type": "t_bytes_storage"
          },
          {
            "astId": 2177,
            "contract": "contracts/Quest.sol:Quest",
            "label": "player",
            "offset": 0,
            "slot": "1",
            "type": "t_address"
          },
          {
            "astId": 2179,
            "contract": "contracts/Quest.sol:Quest",
            "label": "amount",
            "offset": 0,
            "slot": "2",
            "type": "t_uint256"
          }
        ],
        "numberOfBytes": "96"
      },
      "t_struct(Deposit)2173_storage": {
        "encoding": "inplace",
        "label": "struct Models.Deposit",
        "members": [
          {
            "astId": 2170,
            "contract": "contracts/Quest.sol:Quest",
            "label": "token",
            "offset": 0,
            "slot": "0",
            "type": "t_contract(IERC20)728"
          },
          {
            "astId": 2172,
            "contract": "contracts/Quest.sol:Quest",
            "label": "amount",
            "offset": 0,
            "slot": "1",
            "type": "t_uint256"
          }
        ],
        "numberOfBytes": "64"
      },
      "t_uint256": {
        "encoding": "inplace",
        "label": "uint256",
        "numberOfBytes": "32"
      }
    }
  }
}