{
  "address": "0xf20aeAD3583f35b5eA76b3fC59A652E525cCa83b",
  "abi": [
    {
      "inputs": [
        {
          "internalType": "string",
          "name": "_questTitle",
          "type": "string"
        },
        {
          "internalType": "bytes",
          "name": "_questDetailsRef",
          "type": "bytes"
        },
        {
          "internalType": "contract IERC20",
          "name": "_rewardToken",
          "type": "address"
        },
        {
          "internalType": "uint256",
          "name": "_expireTime",
          "type": "uint256"
        },
        {
          "internalType": "address",
          "name": "_aragonGovernAddress",
          "type": "address"
        },
        {
          "internalType": "address payable",
          "name": "_fundsRecoveryAddress",
          "type": "address"
        }
      ],
      "stateMutability": "nonpayable",
      "type": "constructor"
    },
    {
      "anonymous": false,
      "inputs": [
        {
          "indexed": false,
          "internalType": "bytes",
          "name": "evidence",
          "type": "bytes"
        },
        {
          "indexed": false,
          "internalType": "address",
          "name": "player",
          "type": "address"
        },
        {
          "indexed": false,
          "internalType": "uint256",
          "name": "amount",
          "type": "uint256"
        }
      ],
      "name": "QuestClaimed",
      "type": "event"
    },
    {
      "inputs": [],
      "name": "aragonGovernAddress",
      "outputs": [
        {
          "internalType": "address",
          "name": "",
          "type": "address"
        }
      ],
      "stateMutability": "view",
      "type": "function"
    },
    {
      "inputs": [
        {
          "internalType": "bytes",
          "name": "_evidence",
          "type": "bytes"
        },
        {
          "internalType": "address",
          "name": "_player",
          "type": "address"
        },
        {
          "internalType": "uint256",
          "name": "_amount",
          "type": "uint256"
        }
      ],
      "name": "claim",
      "outputs": [],
      "stateMutability": "nonpayable",
      "type": "function"
    },
    {
      "inputs": [
        {
          "internalType": "uint256",
          "name": "",
          "type": "uint256"
        }
      ],
      "name": "claims",
      "outputs": [
        {
          "internalType": "bytes",
          "name": "evidence",
          "type": "bytes"
        },
        {
          "internalType": "address",
          "name": "player",
          "type": "address"
        },
        {
          "internalType": "uint256",
          "name": "amount",
          "type": "uint256"
        }
      ],
      "stateMutability": "view",
      "type": "function"
    },
    {
      "inputs": [],
      "name": "expireTime",
      "outputs": [
        {
          "internalType": "uint256",
          "name": "",
          "type": "uint256"
        }
      ],
      "stateMutability": "view",
      "type": "function"
    },
    {
      "inputs": [],
      "name": "fundsRecoveryAddress",
      "outputs": [
        {
          "internalType": "address payable",
          "name": "",
          "type": "address"
        }
      ],
      "stateMutability": "view",
      "type": "function"
    },
    {
      "inputs": [],
      "name": "questDetailsRef",
      "outputs": [
        {
          "internalType": "bytes",
          "name": "",
          "type": "bytes"
        }
      ],
      "stateMutability": "view",
      "type": "function"
    },
    {
      "inputs": [],
      "name": "questTitle",
      "outputs": [
        {
          "internalType": "string",
          "name": "",
          "type": "string"
        }
      ],
      "stateMutability": "view",
      "type": "function"
    },
    {
      "inputs": [],
      "name": "recoverUnclaimedFunds",
      "outputs": [],
      "stateMutability": "nonpayable",
      "type": "function"
    },
    {
      "inputs": [],
      "name": "rewardToken",
      "outputs": [
        {
          "internalType": "contract IERC20",
          "name": "",
          "type": "address"
        }
      ],
      "stateMutability": "view",
      "type": "function"
    }
  ],
  "transactionHash": "0x83da35778e0aa04eb8c0320802ae280e054dca6c4c777af1e05865385a45d55a",
  "args": [
    "ASDF",
    "0x00",
    "0xdf456B614fE9FF1C7c0B380330Da29C96d40FB02",
    0,
    "0xdf456B614fE9FF1C7c0B380330Da29C96d40FB02",
    "0xdf456B614fE9FF1C7c0B380330Da29C96d40FB02"
  ],
  "solcInputHash": "99304b33a09ac11337de5cc443f6a962",
  "bytecode": "0x60806040523480156200001157600080fd5b5060405162000ef138038062000ef183398101604081905262000034916200020d565b855162000049906000906020890190620000ac565b5084516200005f906001906020880190620000ac565b50600280546001600160a01b039586166001600160a01b03199182161790915560039390935560048054928516928416929092179091556005805491909316911617905550620003329050565b828054620000ba90620002df565b90600052602060002090601f016020900481019282620000de576000855562000129565b82601f10620000f957805160ff191683800117855562000129565b8280016001018555821562000129579182015b82811115620001295782518255916020019190600101906200010c565b50620001379291506200013b565b5090565b5b808211156200013757600081556001016200013c565b60006001600160401b03808411156200016f576200016f6200031c565b6040516020601f8601601f19168201810183811183821017156200019757620001976200031c565b8060405250819350858252868686011115620001b257600080fd5b600092505b85831015620001d4578483015182840182015291820191620001b7565b85831115620001e65760008187840101525b5050509392505050565b80516001600160a01b03811681146200020857600080fd5b919050565b60008060008060008060c0878903121562000226578182fd5b86516001600160401b03808211156200023d578384fd5b818901915089601f83011262000251578384fd5b620002628a83516020850162000152565b9750602089015191508082111562000278578384fd5b508701601f810189136200028a578283fd5b6200029b8982516020840162000152565b955050620002ac60408801620001f0565b935060608701519250620002c360808801620001f0565b9150620002d360a08801620001f0565b90509295509295509295565b600281046001821680620002f457607f821691505b602082108114156200031657634e487b7160e01b600052602260045260246000fd5b50919050565b634e487b7160e01b600052604160045260246000fd5b610baf80620003426000396000f3fe608060405234801561001057600080fd5b50600436106100935760003560e01c8063a888c2cd11610066578063a888c2cd146100e8578063b0a87ac11461010a578063e0c2342314610112578063f294cf3814610127578063f7c618c11461012f57610093565b8063310a1ee3146100985780634621d082146100b65780637ceae310146100c057806399b44ba0146100d5575b600080fd5b6100a0610137565b6040516100ad9190610aef565b60405180910390f35b6100be61013d565b005b6100c8610205565b6040516100ad919061092b565b6100be6100e33660046107f7565b610214565b6100fb6100f63660046108b3565b61039c565b6040516100ad9392919061096b565b6100c8610468565b61011a610477565b6040516100ad9190610958565b61011a610505565b6100c8610512565b60035481565b60035442116101675760405162461bcd60e51b815260040161015e906109df565b60405180910390fd5b6005546002546040516370a0823160e01b8152610203926001600160a01b039081169216906370a08231906101a090309060040161092b565b60206040518083038186803b1580156101b857600080fd5b505afa1580156101cc573d6000803e3d6000fd5b505050506040513d601f19601f820116820180604052508101906101f091906108cb565b6002546001600160a01b03169190610521565b565b6005546001600160a01b031681565b6004546001600160a01b0316331461023e5760405162461bcd60e51b815260040161015e90610a0b565b825161025c5760405162461bcd60e51b815260040161015e90610a79565b801561027e57600254610279906001600160a01b03168383610521565b6102b9565b806102b9576002546040516370a0823160e01b81526102b99184916001600160a01b03909116906370a08231906101a090309060040161092b565b604080516060810182528481526001600160a01b0384166020808301919091529181018390526006805460018101825560009190915281518051929360039092027ff652222313e28459528d920b65115c16c04f3efc82aaedc97be59f3f377c0d3f019261032a9284920190610727565b5060208201516001820180546001600160a01b0319166001600160a01b03909216919091179055604091820151600290910155517fa1c3b325aa2c115e4b244062eba2515bc5585ae5b41556be8fef399ae9fde11b9061038f9085908590859061096b565b60405180910390a1505050565b600681815481106103ac57600080fd5b90600052602060002090600302016000915090508060000180546103cf90610b28565b80601f01602080910402602001604051908101604052809291908181526020018280546103fb90610b28565b80156104485780601f1061041d57610100808354040283529160200191610448565b820191906000526020600020905b81548152906001019060200180831161042b57829003601f168201915b50505050600183015460029093015491926001600160a01b031691905083565b6004546001600160a01b031681565b6001805461048490610b28565b80601f01602080910402602001604051908101604052809291908181526020018280546104b090610b28565b80156104fd5780601f106104d2576101008083540402835291602001916104fd565b820191906000526020600020905b8154815290600101906020018083116104e057829003601f168201915b505050505081565b6000805461048490610b28565b6002546001600160a01b031681565b6105778363a9059cbb60e01b848460405160240161054092919061093f565b60408051601f198184030181529190526020810180516001600160e01b03166001600160e01b03199093169290921790915261057c565b505050565b60006105d1826040518060400160405280602081526020017f5361666545524332303a206c6f772d6c6576656c2063616c6c206661696c6564815250856001600160a01b031661060b9092919063ffffffff16565b80519091501561057757808060200190518101906105ef91906107d7565b6105775760405162461bcd60e51b815260040161015e90610aa5565b606061061a8484600085610624565b90505b9392505050565b6060824710156106465760405162461bcd60e51b815260040161015e90610999565b61064f856106e4565b61066b5760405162461bcd60e51b815260040161015e90610a42565b600080866001600160a01b03168587604051610687919061090f565b60006040518083038185875af1925050503d80600081146106c4576040519150601f19603f3d011682016040523d82523d6000602084013e6106c9565b606091505b50915091506106d98282866106ee565b979650505050505050565b803b15155b919050565b606083156106fd57508161061d565b82511561070d5782518084602001fd5b8160405162461bcd60e51b815260040161015e9190610958565b82805461073390610b28565b90600052602060002090601f016020900481019282610755576000855561079b565b82601f1061076e57805160ff191683800117855561079b565b8280016001018555821561079b579182015b8281111561079b578251825591602001919060010190610780565b506107a79291506107ab565b5090565b5b808211156107a757600081556001016107ac565b80356001600160a01b03811681146106e957600080fd5b6000602082840312156107e8578081fd5b8151801515811461061d578182fd5b60008060006060848603121561080b578182fd5b833567ffffffffffffffff80821115610822578384fd5b818601915086601f830112610835578384fd5b813560208282111561084957610849610b63565b604051601f8301601f191681018201848111828210171561086c5761086c610b63565b60405282815284830182018a1015610882578687fd5b82828601838301378083018201879052965061089f8882016107c0565b955050505050604084013590509250925092565b6000602082840312156108c4578081fd5b5035919050565b6000602082840312156108dc578081fd5b5051919050565b600081518084526108fb816020860160208601610af8565b601f01601f19169290920160200192915050565b60008251610921818460208701610af8565b9190910192915050565b6001600160a01b0391909116815260200190565b6001600160a01b03929092168252602082015260400190565b60006020825261061d60208301846108e3565b60006060825261097e60608301866108e3565b6001600160a01b039490941660208301525060400152919050565b60208082526026908201527f416464726573733a20696e73756666696369656e742062616c616e636520666f6040820152651c8818d85b1b60d21b606082015260800190565b60208082526012908201527111549493d48e88139bdd08195e1c1a5c995960721b604082015260600190565b60208082526018908201527f4552524f523a2053656e646572206e6f7420676f7665726e0000000000000000604082015260600190565b6020808252601d908201527f416464726573733a2063616c6c20746f206e6f6e2d636f6e7472616374000000604082015260600190565b6020808252601290820152714552524f523a204e6f2065766964656e636560701b604082015260600190565b6020808252602a908201527f5361666545524332303a204552433230206f7065726174696f6e20646964206e6040820152691bdd081cdd58d8d9595960b21b606082015260800190565b90815260200190565b60005b83811015610b13578181015183820152602001610afb565b83811115610b22576000848401525b50505050565b600281046001821680610b3c57607f821691505b60208210811415610b5d57634e487b7160e01b600052602260045260246000fd5b50919050565b634e487b7160e01b600052604160045260246000fdfea2646970667358221220ad2857acb7ec86ce8b26d830a9822d2ab5f56bc250c441b88b0d22f7125e8f0264736f6c63430008000033",
  "devdoc": {
    "kind": "dev",
    "methods": {},
    "version": 1
  },
  "userdoc": {
    "kind": "user",
    "methods": {},
    "version": 1
  },
  "storageLayout": {
    "storage": [
      {
        "astId": 1208,
        "contract": "contracts/Quest.sol:Quest",
        "label": "questTitle",
        "offset": 0,
        "slot": "0",
        "type": "t_string_storage"
      },
      {
        "astId": 1210,
        "contract": "contracts/Quest.sol:Quest",
        "label": "questDetailsRef",
        "offset": 0,
        "slot": "1",
        "type": "t_bytes_storage"
      },
      {
        "astId": 1213,
        "contract": "contracts/Quest.sol:Quest",
        "label": "rewardToken",
        "offset": 0,
        "slot": "2",
        "type": "t_contract(IERC20)623"
      },
      {
        "astId": 1215,
        "contract": "contracts/Quest.sol:Quest",
        "label": "expireTime",
        "offset": 0,
        "slot": "3",
        "type": "t_uint256"
      },
      {
        "astId": 1217,
        "contract": "contracts/Quest.sol:Quest",
        "label": "aragonGovernAddress",
        "offset": 0,
        "slot": "4",
        "type": "t_address"
      },
      {
        "astId": 1219,
        "contract": "contracts/Quest.sol:Quest",
        "label": "fundsRecoveryAddress",
        "offset": 0,
        "slot": "5",
        "type": "t_address_payable"
      },
      {
        "astId": 1223,
        "contract": "contracts/Quest.sol:Quest",
        "label": "claims",
        "offset": 0,
        "slot": "6",
        "type": "t_array(t_struct(Claim)1206_storage)dyn_storage"
      }
    ],
    "types": {
      "t_address": {
        "encoding": "inplace",
        "label": "address",
        "numberOfBytes": "20"
      },
      "t_address_payable": {
        "encoding": "inplace",
        "label": "address payable",
        "numberOfBytes": "20"
      },
      "t_array(t_struct(Claim)1206_storage)dyn_storage": {
        "base": "t_struct(Claim)1206_storage",
        "encoding": "dynamic_array",
        "label": "struct Quest.Claim[]",
        "numberOfBytes": "32"
      },
      "t_bytes_storage": {
        "encoding": "bytes",
        "label": "bytes",
        "numberOfBytes": "32"
      },
      "t_contract(IERC20)623": {
        "encoding": "inplace",
        "label": "contract IERC20",
        "numberOfBytes": "20"
      },
      "t_string_storage": {
        "encoding": "bytes",
        "label": "string",
        "numberOfBytes": "32"
      },
      "t_struct(Claim)1206_storage": {
        "encoding": "inplace",
        "label": "struct Quest.Claim",
        "members": [
          {
            "astId": 1201,
            "contract": "contracts/Quest.sol:Quest",
            "label": "evidence",
            "offset": 0,
            "slot": "0",
            "type": "t_bytes_storage"
          },
          {
            "astId": 1203,
            "contract": "contracts/Quest.sol:Quest",
            "label": "player",
            "offset": 0,
            "slot": "1",
            "type": "t_address"
          },
          {
            "astId": 1205,
            "contract": "contracts/Quest.sol:Quest",
            "label": "amount",
            "offset": 0,
            "slot": "2",
            "type": "t_uint256"
          }
        ],
        "numberOfBytes": "96"
      },
      "t_uint256": {
        "encoding": "inplace",
        "label": "uint256",
        "numberOfBytes": "32"
      }
    }
  }
}