{
  "address": "0x6b81e57848A75369cC5F13ED98c62412a40F19E7",
  "abi": [
    {
      "constant": false,
      "inputs": [
        {
          "name": "_owner",
          "type": "address"
        }
      ],
      "name": "setOwner",
      "outputs": [],
      "payable": false,
      "stateMutability": "nonpayable",
      "type": "function"
    },
    {
      "constant": false,
      "inputs": [
        {
          "name": "_disputeId",
          "type": "uint256"
        },
        {
          "name": "_state",
          "type": "uint8"
        }
      ],
      "name": "decideDispute",
      "outputs": [],
      "payable": false,
      "stateMutability": "nonpayable",
      "type": "function"
    },
    {
      "constant": true,
      "inputs": [
        {
          "name": "",
          "type": "uint256"
        }
      ],
      "name": "disputes",
      "outputs": [
        {
          "name": "subject",
          "type": "address"
        },
        {
          "name": "state",
          "type": "uint8"
        }
      ],
      "payable": false,
      "stateMutability": "view",
      "type": "function"
    },
    {
      "constant": true,
      "inputs": [],
      "name": "feeToken",
      "outputs": [
        {
          "name": "",
          "type": "address"
        }
      ],
      "payable": false,
      "stateMutability": "view",
      "type": "function"
    },
    {
      "constant": true,
      "inputs": [],
      "name": "feeAmount",
      "outputs": [
        {
          "name": "",
          "type": "uint256"
        }
      ],
      "payable": false,
      "stateMutability": "view",
      "type": "function"
    },
    {
      "constant": true,
      "inputs": [],
      "name": "getDisputeFees",
      "outputs": [
        {
          "name": "",
          "type": "address"
        },
        {
          "name": "",
          "type": "address"
        },
        {
          "name": "",
          "type": "uint256"
        }
      ],
      "payable": false,
      "stateMutability": "view",
      "type": "function"
    },
    {
      "constant": false,
      "inputs": [
        {
          "name": "_disputeId",
          "type": "uint256"
        },
        {
          "name": "_submitter",
          "type": "address"
        },
        {
          "name": "_evidence",
          "type": "bytes"
        }
      ],
      "name": "submitEvidence",
      "outputs": [],
      "payable": false,
      "stateMutability": "nonpayable",
      "type": "function"
    },
    {
      "constant": false,
      "inputs": [
        {
          "name": "_disputeId",
          "type": "uint256"
        }
      ],
      "name": "closeEvidencePeriod",
      "outputs": [],
      "payable": false,
      "stateMutability": "nonpayable",
      "type": "function"
    },
    {
      "constant": true,
      "inputs": [],
      "name": "owner",
      "outputs": [
        {
          "name": "",
          "type": "address"
        }
      ],
      "payable": false,
      "stateMutability": "view",
      "type": "function"
    },
    {
      "constant": false,
      "inputs": [
        {
          "name": "_possibleRulings",
          "type": "uint256"
        },
        {
          "name": "_metadata",
          "type": "bytes"
        }
      ],
      "name": "createDispute",
      "outputs": [
        {
          "name": "",
          "type": "uint256"
        }
      ],
      "payable": false,
      "stateMutability": "nonpayable",
      "type": "function"
    },
    {
      "constant": false,
      "inputs": [
        {
          "name": "_disputeId",
          "type": "uint256"
        }
      ],
      "name": "rule",
      "outputs": [
        {
          "name": "subject",
          "type": "address"
        },
        {
          "name": "ruling",
          "type": "uint256"
        }
      ],
      "payable": false,
      "stateMutability": "nonpayable",
      "type": "function"
    },
    {
      "constant": true,
      "inputs": [],
      "name": "getDisputeManager",
      "outputs": [
        {
          "name": "",
          "type": "address"
        }
      ],
      "payable": false,
      "stateMutability": "view",
      "type": "function"
    },
    {
      "constant": true,
      "inputs": [],
      "name": "currentId",
      "outputs": [
        {
          "name": "",
          "type": "uint256"
        }
      ],
      "payable": false,
      "stateMutability": "view",
      "type": "function"
    },
    {
      "inputs": [
        {
          "name": "_feeToken",
          "type": "address"
        },
        {
          "name": "_feeAmount",
          "type": "uint256"
        }
      ],
      "payable": false,
      "stateMutability": "nonpayable",
      "type": "constructor"
    }
  ],
  "transactionHash": "0x3be57b2431fca73691b51b23db1c5378eff11cd5814205bef70e96d69ad4091e",
  "args": [
    "0xdc31Ee1784292379Fbb2964b3B9C4124D8F89C60",
    "50000000000000000"
  ],
  "solcInputHash": "3f60fc19bfc0c5c17dec7bc4781e004b",
  "bytecode": "0x608060405234801561001057600080fd5b506040516040806113978339810180604052604081101561003057600080fd5b81019080805190602001909291908051906020019092919050505033600460006101000a81548173ffffffffffffffffffffffffffffffffffffffff021916908373ffffffffffffffffffffffffffffffffffffffff16021790555081600160006101000a81548173ffffffffffffffffffffffffffffffffffffffff021916908373ffffffffffffffffffffffffffffffffffffffff16021790555080600281905550306040516100e19061017a565b808273ffffffffffffffffffffffffffffffffffffffff1673ffffffffffffffffffffffffffffffffffffffff168152602001915050604051809103906000f080158015610133573d6000803e3d6000fd5b506000806101000a81548173ffffffffffffffffffffffffffffffffffffffff021916908373ffffffffffffffffffffffffffffffffffffffff1602179055505050610187565b6103cb80610fcc83390190565b610e36806101966000396000f3fe608060405234801561001057600080fd5b50600436106100cf5760003560e01c80637cb57c641161008c578063c13517e111610066578063c13517e1146103dd578063db18af6c14610474578063db9bee46146104e9578063e00dd16114610533576100cf565b80637cb57c64146102c25780637e9adccf146103655780638da5cb5b14610393576100cf565b806313af4035146100d45780631da213f214610118578063564a565d14610153578063647846a5146101d657806369e15404146102205780637b751b9e1461023e575b600080fd5b610116600480360360208110156100ea57600080fd5b81019080803573ffffffffffffffffffffffffffffffffffffffff169060200190929190505050610551565b005b6101516004803603604081101561012e57600080fd5b8101908080359060200190929190803560ff169060200190929190505050610658565b005b61017f6004803603602081101561016957600080fd5b81019080803590602001909291905050506108a9565b604051808373ffffffffffffffffffffffffffffffffffffffff1673ffffffffffffffffffffffffffffffffffffffff1681526020018260048111156101c157fe5b60ff1681526020019250505060405180910390f35b6101de6108fa565b604051808273ffffffffffffffffffffffffffffffffffffffff1673ffffffffffffffffffffffffffffffffffffffff16815260200191505060405180910390f35b610228610920565b6040518082815260200191505060405180910390f35b610246610926565b604051808473ffffffffffffffffffffffffffffffffffffffff1673ffffffffffffffffffffffffffffffffffffffff1681526020018373ffffffffffffffffffffffffffffffffffffffff1673ffffffffffffffffffffffffffffffffffffffff168152602001828152602001935050505060405180910390f35b610363600480360360608110156102d857600080fd5b8101908080359060200190929190803573ffffffffffffffffffffffffffffffffffffffff1690602001909291908035906020019064010000000081111561031f57600080fd5b82018360208201111561033157600080fd5b8035906020019184600183028401116401000000008311171561035357600080fd5b909192939192939050505061095d565b005b6103916004803603602081101561037b57600080fd5b8101908080359060200190929190505050610963565b005b61039b610966565b604051808273ffffffffffffffffffffffffffffffffffffffff1673ffffffffffffffffffffffffffffffffffffffff16815260200191505060405180910390f35b61045e600480360360408110156103f357600080fd5b81019080803590602001909291908035906020019064010000000081111561041a57600080fd5b82018360208201111561042c57600080fd5b8035906020019184600183028401116401000000008311171561044e57600080fd5b909192939192939050505061098c565b6040518082815260200191505060405180910390f35b6104a06004803603602081101561048a57600080fd5b8101908080359060200190929190505050610b31565b604051808373ffffffffffffffffffffffffffffffffffffffff1673ffffffffffffffffffffffffffffffffffffffff1681526020018281526020019250505060405180910390f35b6104f1610c77565b604051808273ffffffffffffffffffffffffffffffffffffffff1673ffffffffffffffffffffffffffffffffffffffff16815260200191505060405180910390f35b61053b610ca0565b6040518082815260200191505060405180910390f35b600460009054906101000a900473ffffffffffffffffffffffffffffffffffffffff1673ffffffffffffffffffffffffffffffffffffffff163373ffffffffffffffffffffffffffffffffffffffff1614610614576040517f08c379a000000000000000000000000000000000000000000000000000000000815260040180806020018281038252600d8152602001807f4552523a4e4f545f4f574e45520000000000000000000000000000000000000081525060200191505060405180910390fd5b80600460006101000a81548173ffffffffffffffffffffffffffffffffffffffff021916908373ffffffffffffffffffffffffffffffffffffffff16021790555050565b600460009054906101000a900473ffffffffffffffffffffffffffffffffffffffff1673ffffffffffffffffffffffffffffffffffffffff163373ffffffffffffffffffffffffffffffffffffffff161461071b576040517f08c379a000000000000000000000000000000000000000000000000000000000815260040180806020018281038252600d8152602001807f4552523a4e4f545f4f574e45520000000000000000000000000000000000000081525060200191505060405180910390fd5b6000600481111561072857fe5b81600481111561073457fe5b1415801561075957506001600481111561074a57fe5b81600481111561075657fe5b14155b6107cb576040517f08c379a000000000000000000000000000000000000000000000000000000000815260040180806020018281038252601a8152602001807f4552523a4f5554434f4d455f4e4f545f41535349474e41424c4500000000000081525060200191505060405180910390fd5b6000600560008481526020019081526020016000209050600160048111156107ef57fe5b8160000160149054906101000a900460ff16600481111561080c57fe5b1461087f576040517f08c379a00000000000000000000000000000000000000000000000000000000081526004018080602001828103825260108152602001807f4552523a4e4f545f44495350555445440000000000000000000000000000000081525060200191505060405180910390fd5b818160000160146101000a81548160ff0219169083600481111561089f57fe5b0217905550505050565b60056020528060005260406000206000915090508060000160009054906101000a900473ffffffffffffffffffffffffffffffffffffffff16908060000160149054906101000a900460ff16905082565b600160009054906101000a900473ffffffffffffffffffffffffffffffffffffffff1681565b60025481565b600080600030600160009054906101000a900473ffffffffffffffffffffffffffffffffffffffff16600254925092509250909192565b50505050565b50565b600460009054906101000a900473ffffffffffffffffffffffffffffffffffffffff1681565b600080600354905060405180604001604052803373ffffffffffffffffffffffffffffffffffffffff168152602001600160048111156109c857fe5b8152506005600083815260200190815260200160002060008201518160000160006101000a81548173ffffffffffffffffffffffffffffffffffffffff021916908373ffffffffffffffffffffffffffffffffffffffff16021790555060208201518160000160146101000a81548160ff02191690836004811115610a4957fe5b0217905550905050600360008154809291906001019190505550610ab43330600254600160009054906101000a900473ffffffffffffffffffffffffffffffffffffffff1673ffffffffffffffffffffffffffffffffffffffff16610ca6909392919063ffffffff16565b610b26576040517f08c379a00000000000000000000000000000000000000000000000000000000081526004018080602001828103825260128152602001807f4552523a4445504f5349545f4641494c4544000000000000000000000000000081525060200191505060405180910390fd5b809150509392505050565b600080600060056000858152602001908152602001600020905060036004811115610b5857fe5b8160000160149054906101000a900460ff166004811115610b7557fe5b1415610bac578060000160009054906101000a900473ffffffffffffffffffffffffffffffffffffffff1660039250925050610c72565b600480811115610bb857fe5b8160000160149054906101000a900460ff166004811115610bd557fe5b1415610c0c578060000160009054906101000a900473ffffffffffffffffffffffffffffffffffffffff1660049250925050610c72565b60026004811115610c1957fe5b8160000160149054906101000a900460ff166004811115610c3657fe5b1415610c6d578060000160009054906101000a900473ffffffffffffffffffffffffffffffffffffffff1660009250925050610c72565b600080fd5b915091565b60008060009054906101000a900473ffffffffffffffffffffffffffffffffffffffff16905090565b60035481565b600060608573ffffffffffffffffffffffffffffffffffffffff166323b872dd905060e01b858585604051602401808473ffffffffffffffffffffffffffffffffffffffff1673ffffffffffffffffffffffffffffffffffffffff1681526020018373ffffffffffffffffffffffffffffffffffffffff1673ffffffffffffffffffffffffffffffffffffffff1681526020018281526020019350505050604051602081830303815290604052907bffffffffffffffffffffffffffffffffffffffffffffffffffffffff19166020820180517bffffffffffffffffffffffffffffffffffffffffffffffffffffffff83818316178352505050509050610dad8682610db8565b915050949350505050565b6000806040516020818551602087016000895af16000811115610dfe573d60008114610deb5760208114610df457610dfc565b60019350610dfc565b600183511493505b505b5050809150509291505056fea165627a7a72305820af124a41e65b1002e32b3feed7c4a711c24f3e185eb5f3a36b59ea6d7c5f092f0029608060405234801561001057600080fd5b506040516020806103cb8339810180604052602081101561003057600080fd5b8101908080519060200190929190505050806000806101000a81548173ffffffffffffffffffffffffffffffffffffffff021916908373ffffffffffffffffffffffffffffffffffffffff1602179055505061033a806100916000396000f3fe608060405234801561001057600080fd5b50600436106100365760003560e01c80637b751b9e1461003b578063e3a96cbd1461008c575b600080fd5b61004361014b565b604051808373ffffffffffffffffffffffffffffffffffffffff1673ffffffffffffffffffffffffffffffffffffffff1681526020018281526020019250505060405180910390f35b6100b8600480360360208110156100a257600080fd5b810190808035906020019092919050505061021c565b604051808773ffffffffffffffffffffffffffffffffffffffff1673ffffffffffffffffffffffffffffffffffffffff1681526020018660ff1660ff16815260200185600481111561010657fe5b60ff1681526020018460ff1660ff1681526020018381526020018267ffffffffffffffff1667ffffffffffffffff168152602001965050505050505060405180910390f35b60008060008060008060009054906101000a900473ffffffffffffffffffffffffffffffffffffffff1673ffffffffffffffffffffffffffffffffffffffff16637b751b9e6040518163ffffffff1660e01b815260040160606040518083038186803b1580156101ba57600080fd5b505afa1580156101ce573d6000803e3d6000fd5b505050506040513d60608110156101e457600080fd5b810190808051906020019092919080519060200190929190805190602001909291905050509250925092508181945094505050509091565b6000806000806000806000806000809054906101000a900473ffffffffffffffffffffffffffffffffffffffff1673ffffffffffffffffffffffffffffffffffffffff1663564a565d8a6040518263ffffffff1660e01b815260040180828152602001915050604080518083038186803b15801561029957600080fd5b505afa1580156102ad573d6000803e3d6000fd5b505050506040513d60408110156102c357600080fd5b8101908080519060200190929190805190602001909291905050509150915081600082600080600084945082925081915080905097509750975097509750975050509193955091939556fea165627a7a723058203a070fc6f0f6d68a7da906f852d4087cff437ecae9be3aa8d9d7afbf0f99888f0029",
  "devdoc": {
    "methods": {
      "closeEvidencePeriod(uint256)": {
        "details": "Close the evidence period of a dispute",
        "params": {
          "_disputeId": "Identification number of the dispute to close its evidence submitting period"
        }
      },
      "createDispute(uint256,bytes)": {
        "details": "Create a dispute over the Arbitrable sender with a number of possible rulings",
        "params": {
          "_metadata": "Optional metadata that can be used to provide additional information on the dispute to be created",
          "_possibleRulings": "Number of possible rulings allowed for the dispute"
        },
        "return": "Dispute identification number"
      },
      "getDisputeFees()": {
        "details": "Tell the dispute fees information to create a dispute",
        "return": "recipient Address where the corresponding dispute fees must be transferred tofeeToken ERC20 token used for the feesfeeAmount Total amount of fees that must be allowed to the recipient"
      },
      "rule(uint256)": {
        "params": {
          "_disputeId": "Identification number of the dispute to be ruled"
        },
        "return": "subject Arbitrable instance associated to the disputeruling Ruling number computed for the given dispute"
      },
      "submitEvidence(uint256,address,bytes)": {
        "details": "Submit evidence for a dispute",
        "params": {
          "_disputeId": "Id of the dispute in the Protocol",
          "_evidence": "Data submitted for the evidence related to the dispute",
          "_submitter": "Address of the account submitting the evidence"
        }
      }
    }
  },
  "userdoc": {
    "methods": {
      "rule(uint256)": {
        "notice": "Rule dispute #`_disputeId` if ready"
      }
    }
  }
}