{
  "address": "0x81AF972C86e55E45db1971fDe2549bEC0C7C8d70",
  "abi": [
    {
      "inputs": [
        {
          "internalType": "address",
          "name": "_aragonGovernAddress",
          "type": "address"
        },
        {
          "internalType": "contract IERC20",
          "name": "_createDepositToken",
          "type": "address"
        },
        {
          "internalType": "uint256",
          "name": "_createDepositAmount",
          "type": "uint256"
        },
        {
          "internalType": "contract IERC20",
          "name": "_playDepositToken",
          "type": "address"
        },
        {
          "internalType": "uint256",
          "name": "_playDepositAmount",
          "type": "uint256"
        },
        {
          "internalType": "address",
          "name": "_initialOwner",
          "type": "address"
        }
      ],
      "stateMutability": "nonpayable",
      "type": "constructor"
    },
    {
      "anonymous": false,
      "inputs": [
        {
          "indexed": false,
          "internalType": "uint256",
          "name": "timestamp",
          "type": "uint256"
        },
        {
          "indexed": false,
          "internalType": "address",
          "name": "token",
          "type": "address"
        },
        {
          "indexed": false,
          "internalType": "uint256",
          "name": "amount",
          "type": "uint256"
        }
      ],
      "name": "CreateDepositChanged",
      "type": "event"
    },
    {
      "anonymous": false,
      "inputs": [
        {
          "indexed": true,
          "internalType": "address",
          "name": "previousOwner",
          "type": "address"
        },
        {
          "indexed": true,
          "internalType": "address",
          "name": "newOwner",
          "type": "address"
        }
      ],
      "name": "OwnershipTransferred",
      "type": "event"
    },
    {
      "anonymous": false,
      "inputs": [
        {
          "indexed": false,
          "internalType": "uint256",
          "name": "timestamp",
          "type": "uint256"
        },
        {
          "indexed": false,
          "internalType": "address",
          "name": "token",
          "type": "address"
        },
        {
          "indexed": false,
          "internalType": "uint256",
          "name": "amount",
          "type": "uint256"
        }
      ],
      "name": "PlayDepositChanged",
      "type": "event"
    },
    {
      "anonymous": false,
      "inputs": [
        {
          "indexed": false,
          "internalType": "address",
          "name": "questAddress",
          "type": "address"
        },
        {
          "indexed": false,
          "internalType": "string",
          "name": "questTitle",
          "type": "string"
        },
        {
          "indexed": false,
          "internalType": "bytes",
          "name": "questDetailsRef",
          "type": "bytes"
        },
        {
          "indexed": false,
          "internalType": "address",
          "name": "rewardTokenAddress",
          "type": "address"
        },
        {
          "indexed": false,
          "internalType": "uint256",
          "name": "expireTime",
          "type": "uint256"
        },
        {
          "indexed": false,
          "internalType": "address",
          "name": "fundsRecoveryAddress",
          "type": "address"
        },
        {
          "indexed": false,
          "internalType": "address",
          "name": "createDepositToken",
          "type": "address"
        },
        {
          "indexed": false,
          "internalType": "uint256",
          "name": "createDepositAmount",
          "type": "uint256"
        },
        {
          "indexed": false,
          "internalType": "address",
          "name": "playDepositToken",
          "type": "address"
        },
        {
          "indexed": false,
          "internalType": "uint256",
          "name": "playDepositAmount",
          "type": "uint256"
        },
        {
          "indexed": false,
          "internalType": "address",
          "name": "creator",
          "type": "address"
        },
        {
          "indexed": false,
          "internalType": "uint32",
          "name": "maxPlayers",
          "type": "uint32"
        }
      ],
      "name": "QuestCreated",
      "type": "event"
    },
    {
      "inputs": [],
      "name": "aragonGovernAddress",
      "outputs": [
        {
          "internalType": "address",
          "name": "",
          "type": "address"
        }
      ],
      "stateMutability": "view",
      "type": "function"
    },
    {
      "inputs": [],
      "name": "createDeposit",
      "outputs": [
        {
          "internalType": "contract IERC20",
          "name": "token",
          "type": "address"
        },
        {
          "internalType": "uint256",
          "name": "amount",
          "type": "uint256"
        }
      ],
      "stateMutability": "view",
      "type": "function"
    },
    {
      "inputs": [
        {
          "internalType": "string",
          "name": "_questTitle",
          "type": "string"
        },
        {
          "internalType": "bytes",
          "name": "_questDetailsRef",
          "type": "bytes"
        },
        {
          "internalType": "contract IERC20",
          "name": "_rewardToken",
          "type": "address"
        },
        {
          "internalType": "uint256",
          "name": "_expireTime",
          "type": "uint256"
        },
        {
          "internalType": "address payable",
          "name": "_fundsRecoveryAddress",
          "type": "address"
        },
        {
          "internalType": "uint32",
          "name": "_maxPlayers",
          "type": "uint32"
        }
      ],
      "name": "createQuest",
      "outputs": [
        {
          "internalType": "address",
          "name": "",
          "type": "address"
        }
      ],
      "stateMutability": "nonpayable",
      "type": "function"
    },
    {
      "inputs": [],
      "name": "owner",
      "outputs": [
        {
          "internalType": "address",
          "name": "",
          "type": "address"
        }
      ],
      "stateMutability": "view",
      "type": "function"
    },
    {
      "inputs": [],
      "name": "playDeposit",
      "outputs": [
        {
          "internalType": "contract IERC20",
          "name": "token",
          "type": "address"
        },
        {
          "internalType": "uint256",
          "name": "amount",
          "type": "uint256"
        }
      ],
      "stateMutability": "view",
      "type": "function"
    },
    {
      "inputs": [],
      "name": "renounceOwnership",
      "outputs": [],
      "stateMutability": "nonpayable",
      "type": "function"
    },
    {
      "inputs": [
        {
          "internalType": "contract IERC20",
          "name": "token",
          "type": "address"
        },
        {
          "internalType": "uint256",
          "name": "amount",
          "type": "uint256"
        }
      ],
      "name": "setCreateDeposit",
      "outputs": [],
      "stateMutability": "nonpayable",
      "type": "function"
    },
    {
      "inputs": [
        {
          "internalType": "contract IERC20",
          "name": "token",
          "type": "address"
        },
        {
          "internalType": "uint256",
          "name": "amount",
          "type": "uint256"
        }
      ],
      "name": "setPlayDeposit",
      "outputs": [],
      "stateMutability": "nonpayable",
      "type": "function"
    },
    {
      "inputs": [
        {
          "internalType": "address",
          "name": "newOwner",
          "type": "address"
        }
      ],
      "name": "transferOwnership",
      "outputs": [],
      "stateMutability": "nonpayable",
      "type": "function"
    }
  ],
  "transactionHash": "0xf6402d214b2b43a40b082da5ff471c3422f4975bdde51d50530f5127288fc7b4",
  "args": [
    "0xd4a5b36e48a8b03DC05e3421623825c8E3f5D872",
    "0xbc74d76abB7FA2311eab46A31273452aAFD98DB1",
    "10000000000000000",
    "0xbc74d76abB7FA2311eab46A31273452aAFD98DB1",
    "10000000000000000",
    "0x7375Ed576952BD6CeD060EeE2Db763130eA13bA0"
  ],
  "solcInputHash": "2b5e717083037020519b0c990f909179",
  "bytecode": "0x60806040523480156200001157600080fd5b5060405162002c3438038062002c3483398101604081905262000034916200028c565b6200004862000042620000a3565b620000a7565b600180546001600160a01b0319166001600160a01b0388161790556200006f8585620000f7565b6200007b838362000177565b6001600160a01b038116331462000097576200009781620001eb565b505050505050620003b7565b3390565b600080546001600160a01b038381166001600160a01b0319831681178455604051919092169283917f8be0079c531659141344cd1fd0a4f28419497f9722a3daafe3b4186f6b6457e09190a35050565b6200010162000235565b6040805180820182526001600160a01b0384168082526020909101839052600280546001600160a01b03191690911790556003829055517f35c5e8a6f8bed2c61a2eb1996d117b1b96192314c0d4ca7cd96360f250920079906200016b9042908590859062000382565b60405180910390a15050565b6200018162000235565b6040805180820182526001600160a01b0384168082526020909101839052600480546001600160a01b03191690911790556005829055517f013c800b1a136f9798a25e471501a7b824156d1e9cba8439821c5a41adf2fb89906200016b9042908590859062000382565b620001f562000235565b6001600160a01b038116620002275760405162461bcd60e51b81526004016200021e9062000307565b60405180910390fd5b6200023281620000a7565b50565b6200023f620000a3565b6001600160a01b0316620002526200027d565b6001600160a01b0316146200027b5760405162461bcd60e51b81526004016200021e906200034d565b565b6000546001600160a01b031690565b60008060008060008060c08789031215620002a5578182fd5b8651620002b281620003a1565b6020880151909650620002c581620003a1565b604088015160608901519196509450620002df81620003a1565b608088015160a08901519194509250620002f981620003a1565b809150509295509295509295565b60208082526026908201527f4f776e61626c653a206e6577206f776e657220697320746865207a65726f206160408201526564647265737360d01b606082015260800190565b6020808252818101527f4f776e61626c653a2063616c6c6572206973206e6f7420746865206f776e6572604082015260600190565b9283526001600160a01b03919091166020830152604082015260600190565b6001600160a01b03811681146200023257600080fd5b61286d80620003c76000396000f3fe60806040523480156200001157600080fd5b5060043610620000a05760003560e01c8063b0a87ac1116200006f578063b0a87ac11462000104578063d03ffefb146200010e578063e87fae211462000118578063edeecdd3146200012f578063f2fde38b146200014657620000a0565b8063715018a614620000a55780638c43b41114620000b15780638c53c9bd14620000c85780638da5cb5b14620000eb575b600080fd5b620000af6200015d565b005b620000af620000c23660046200095f565b62000175565b620000d2620001f5565b604051620000e292919062000bd5565b60405180910390f35b620000f56200020a565b604051620000e2919062000ae7565b620000f562000219565b620000d262000228565b620000f5620001293660046200098d565b6200023d565b620000af620001403660046200095f565b6200039a565b620000af620001573660046200091e565b6200040e565b6200016762000458565b6200017360006200049e565b565b6200017f62000458565b6040805180820182526001600160a01b0384168082526020909101839052600480546001600160a01b03191690911790556005829055517f013c800b1a136f9798a25e471501a7b824156d1e9cba8439821c5a41adf2fb8990620001e99042908590859062000e19565b60405180910390a15050565b6004546005546001600160a01b039091169082565b6000546001600160a01b031690565b6001546001600160a01b031681565b6002546003546001600160a01b039091169082565b6001546040805180820182526002546001600160a01b039081168252600354602080840191909152835180850185526004548316815260055491810191909152925160009485948c948c948c948c9491909116928b929133908c90620002a39062000871565b620002b89a9998979695949392919062000c03565b604051809103906000f080158015620002d5573d6000803e3d6000fd5b50604080518082019091526002546001600160a01b03168152600354602082015290915062000306903383620004ee565b7f6b2fd076e791d7e0318fa62bf6e275ebe9ff601badea3d9bfdc43c02317d1119818989898989600260000160009054906101000a90046001600160a01b0316600260010154600460000160009054906101000a90046001600160a01b0316600460010154338e604051620003879c9b9a9998979695949392919062000b39565b60405180910390a1979650505050505050565b620003a462000458565b6040805180820182526001600160a01b0384168082526020909101839052600280546001600160a01b03191690911790556003829055517f35c5e8a6f8bed2c61a2eb1996d117b1b96192314c0d4ca7cd96360f25092007990620001e99042908590859062000e19565b6200041862000458565b6001600160a01b0381166200044a5760405162461bcd60e51b8152600401620004419062000ca0565b60405180910390fd5b62000455816200049e565b50565b620004626200050b565b6001600160a01b0316620004756200020a565b6001600160a01b031614620001735760405162461bcd60e51b8152600401620004419062000d2c565b600080546001600160a01b038381166001600160a01b0319831681178455604051919092169283917f8be0079c531659141344cd1fd0a4f28419497f9722a3daafe3b4186f6b6457e09190a35050565b620004fa83836200050f565b620005068382620005f1565b505050565b3390565b602082015115620005ed578151604051636eb1769f60e11b81526000916001600160a01b03169063dd62ed3e906200054e908590309060040162000afb565b60206040518083038186803b1580156200056757600080fd5b505afa1580156200057c573d6000803e3d6000fd5b505050506040513d601f19601f82011682018060405250810190620005a2919062000a60565b90508260200151811015620005cb5760405162461bcd60e51b8152600401620004419062000d61565b6020830151835162000506916001600160a01b0390911690849030906200061c565b5050565b602082015115620005ed5760208201518251620005ed916001600160a01b039091169083906200067e565b62000678846323b872dd60e01b858585604051602401620006409392919062000b15565b60408051601f198184030181529190526020810180516001600160e01b03166001600160e01b031990931692909217909152620006a0565b50505050565b620005068363a9059cbb60e01b84846040516024016200064092919062000bd5565b6000620006f7826040518060400160405280602081526020017f5361666545524332303a206c6f772d6c6576656c2063616c6c206661696c6564815250856001600160a01b0316620007379092919063ffffffff16565b8051909150156200050657808060200190518101906200071891906200093d565b620005065760405162461bcd60e51b8152600401620004419062000dcf565b606062000748848460008562000752565b90505b9392505050565b606082471015620007775760405162461bcd60e51b8152600401620004419062000ce6565b620007828562000820565b620007a15760405162461bcd60e51b8152600401620004419062000d98565b600080866001600160a01b03168587604051620007bf919062000ac9565b60006040518083038185875af1925050503d8060008114620007fe576040519150601f19603f3d011682016040523d82523d6000602084013e62000803565b606091505b50915091506200081582828662000833565b979650505050505050565b6001600160a01b0381163b15155b919050565b60608315620008445750816200074b565b825115620008555782518084602001fd5b8160405162461bcd60e51b815260040162000441919062000bee565b6119a48062000e9483390190565b600067ffffffffffffffff808411156200089d576200089d62000e67565b604051601f8501601f19908116603f01168101908282118183101715620008c857620008c862000e67565b81604052809350858152868686011115620008e257600080fd5b858560208301376000602087830101525050509392505050565b80356200082e8162000e7d565b803563ffffffff811681146200082e57600080fd5b60006020828403121562000930578081fd5b81356200074b8162000e7d565b6000602082840312156200094f578081fd5b815180151581146200074b578182fd5b6000806040838503121562000972578081fd5b82356200097f8162000e7d565b946020939093013593505050565b60008060008060008060c08789031215620009a6578182fd5b863567ffffffffffffffff80821115620009be578384fd5b818901915089601f830112620009d2578384fd5b620009e38a8335602085016200087f565b97506020890135915080821115620009f9578384fd5b508701601f8101891362000a0b578283fd5b62000a1c898235602084016200087f565b95505062000a2d60408801620008fc565b93506060870135925062000a4460808801620008fc565b915062000a5460a0880162000909565b90509295509295509295565b60006020828403121562000a72578081fd5b5051919050565b6000815180845262000a9381602086016020860162000e38565b601f01601f19169290920160200192915050565b80516001600160a01b03168252602090810151910152565b63ffffffff169052565b6000825162000add81846020870162000e38565b9190910192915050565b6001600160a01b0391909116815260200190565b6001600160a01b0392831681529116602082015260400190565b6001600160a01b039384168152919092166020820152604081019190915260600190565b600060018060a01b03808f168352610180602084015262000b5f61018084018f62000a79565b838103604085015262000b73818f62000a79565b925050808c1660608401528a6080840152808a1660a084015280891660c08401528760e0840152808716610100840152856101208401528085166101408401525062000bc461016083018462000abf565b9d9c50505050505050505050505050565b6001600160a01b03929092168252602082015260400190565b6000602082526200074b602083018462000a79565b600061018080835262000c198184018e62000a79565b9050828103602084015262000c2f818d62000a79565b6001600160a01b038c81166040860152606085018c90528a8116608086015289811660a0860152909250905062000c6a60c084018862000aa7565b62000c7a61010084018762000aa7565b8085166101408401525063ffffffff83166101608301529b9a5050505050505050505050565b60208082526026908201527f4f776e61626c653a206e6577206f776e657220697320746865207a65726f206160408201526564647265737360d01b606082015260800190565b60208082526026908201527f416464726573733a20696e73756666696369656e742062616c616e636520666f6040820152651c8818d85b1b60d21b606082015260800190565b6020808252818101527f4f776e61626c653a2063616c6c6572206973206e6f7420746865206f776e6572604082015260600190565b6020808252601d908201527f4552524f52203a204465706f7369742062616420616c6c6f77616e6365000000604082015260600190565b6020808252601d908201527f416464726573733a2063616c6c20746f206e6f6e2d636f6e7472616374000000604082015260600190565b6020808252602a908201527f5361666545524332303a204552433230206f7065726174696f6e20646964206e6040820152691bdd081cdd58d8d9595960b21b606082015260800190565b9283526001600160a01b03919091166020830152604082015260600190565b60005b8381101562000e5557818101518382015260200162000e3b565b83811115620006785750506000910152565b634e487b7160e01b600052604160045260246000fd5b6001600160a01b03811681146200045557600080fdfe60806040523480156200001157600080fd5b50604051620019a4380380620019a48339810160408190526200003491620002b7565b8951620000499060019060208d019062000118565b5088516200005f9060029060208c019062000118565b50600380546001600160a01b03199081166001600160a01b039a8b16179091556004979097556005805488169689169690961790955560068054600080548916938a16939093179092558351600880548916918a169190911790556020938401516009558251600a80548916918a169190911790559190920151600b55600c805460ff19169055931693169290921763ffffffff60a01b1916600160a01b63ffffffff90931692909202919091179055506200044e9050565b8280546200012690620003e2565b90600052602060002090601f0160209004810192826200014a576000855562000195565b82601f106200016557805160ff191683800117855562000195565b8280016001018555821562000195579182015b828111156200019557825182559160200191906001019062000178565b50620001a3929150620001a7565b5090565b5b80821115620001a35760008155600101620001a8565b8051620001cb8162000435565b919050565b600082601f830112620001e1578081fd5b81516001600160401b03811115620001fd57620001fd6200041f565b602062000213601f8301601f19168201620003af565b828152858284870101111562000227578384fd5b835b838110156200024657858101830151828201840152820162000229565b838111156200025757848385840101525b5095945050505050565b60006040828403121562000273578081fd5b6200027f6040620003af565b905081516200028e8162000435565b808252506020820151602082015292915050565b805163ffffffff81168114620001cb57600080fd5b6000806000806000806000806000806101808b8d031215620002d7578586fd5b8a516001600160401b0380821115620002ee578788fd5b620002fc8e838f01620001d0565b9b5060208d015191508082111562000312578788fd5b50620003218d828e01620001d0565b9950506200033260408c01620001be565b975060608b015196506200034960808c01620001be565b95506200035960a08c01620001be565b94506200036a8c60c08d0162000261565b93506200037c8c6101008d0162000261565b92506200038d6101408c01620001be565b91506200039e6101608c01620002a2565b90509295989b9194979a5092959850565b604051601f8201601f191681016001600160401b0381118282101715620003da57620003da6200041f565b604052919050565b600281046001821680620003f757607f821691505b602082108114156200041957634e487b7160e01b600052602260045260246000fd5b50919050565b634e487b7160e01b600052604160045260246000fd5b6001600160a01b03811681146200044b57600080fd5b50565b611546806200045e6000396000f3fe608060405234801561001057600080fd5b50600436106101165760003560e01c8063a888c2cd116100a2578063d03ffefb11610071578063d03ffefb14610216578063e0c234231461021e578063e492814f14610233578063f294cf3814610246578063f7c618c11461024e57610116565b8063a888c2cd146101c6578063ae6d9073146101e8578063b0a87ac1146101fb578063b434151c1461020357610116565b8063579ca2c9116100e9578063579ca2c9146101785780636c3a4cce146101805780637ceae3101461019557806385c99e2b1461019d5780638c53c9bd146101b057610116565b8063151dfb061461011b578063310a1ee31461013057806348d6cb531461014e5780634c2412a214610163575b600080fd5b61012e610129366004610f1a565b610256565b005b61013861036f565b6040516101459190611441565b60405180910390f35b610156610375565b604051610145919061110a565b61016b61037e565b604051610145919061144a565b61012e610391565b610188610498565b604051610145919061109f565b6101886104a7565b6101566101ab366004610f1a565b6104b6565b6101b86104ce565b6040516101459291906110f1565b6101d96101d4366004611027565b6104e3565b60405161014593929190611128565b6101886101f6366004611027565b6105af565b6101886105d9565b61012e610211366004610f50565b6105e8565b6101b8610842565b610226610857565b6040516101459190611115565b61012e610241366004610f1a565b6108e5565b610226610a62565b610188610a6f565b336001600160a01b038216148061027757506000546001600160a01b031633145b61029c5760405162461bcd60e51b8152600401610293906113fd565b60405180910390fd5b60006102a782610a7e565b90508060001914156102cb5760405162461bcd60e51b8152600401610293906111cb565b600d81815481106102ec57634e487b7160e01b600052603260045260246000fd5b60009182526020918290200180546001600160a01b031916905560408051808201909152600a546001600160a01b03168152600b54918101919091526103329083610af5565b7fc4a67a0877d477de99d765a3d9f48abfbe6181dff4727d68c3cb60715555417582426040516103639291906110f1565b60405180910390a15050565b60045481565b600c5460ff1681565b600654600160a01b900463ffffffff1681565b6004544210156103b35760405162461bcd60e51b815260040161029390611248565b600c5460ff166103fa57600054604080518082019091526008546001600160a01b03908116825260095460208301526103ec9216610af5565b600c805460ff191660011790555b6006546003546040516370a0823160e01b8152610496926001600160a01b039081169216906370a082319061043390309060040161109f565b60206040518083038186803b15801561044b57600080fd5b505afa15801561045f573d6000803e3d6000fd5b505050506040513d601f19601f82011682018060405250810190610483919061103f565b6003546001600160a01b03169190610b21565b565b6000546001600160a01b031681565b6006546001600160a01b031681565b60006104c182610a7e565b600019141590505b919050565b600a54600b546001600160a01b039091169082565b600781815481106104f357600080fd5b906000526020600020906003020160009150905080600001805461051690611487565b80601f016020809104026020016040519081016040528092919081815260200182805461054290611487565b801561058f5780601f106105645761010080835404028352916020019161058f565b820191906000526020600020905b81548152906001019060200180831161057257829003601f168201915b50505050600183015460029093015491926001600160a01b031691905083565b600d81815481106105bf57600080fd5b6000918252602090912001546001600160a01b0316905081565b6005546001600160a01b031681565b6005546001600160a01b031633146106125760405162461bcd60e51b8152600401610293906112ab565b83516106305760405162461bcd60e51b815260040161029390611350565b6003546040516370a0823160e01b81526000916001600160a01b0316906370a082319061066190309060040161109f565b60206040518083038186803b15801561067957600080fd5b505afa15801561068d573d6000803e3d6000fd5b505050506040513d601f19601f820116820180604052508101906106b1919061103f565b905081156106f1576008546003546001600160a01b03908116911614156106ed576009546000906106e3908390610b7c565b94506106f1915050565b8092505b6008546003546001600160a01b03908116911614156107405760006107168285610b7c565b91505060086001015481101561073e5760405162461bcd60e51b815260040161029390611184565b505b821561075d5760035461075d906001600160a01b03168585610b21565b604080516060810182528681526001600160a01b0386166020808301919091529181018590526007805460018101825560009190915281518051929360039092027fa66cc928b5edb82af9bd49922954155ab7b0942694bea4ce44661d9a8736c68801926107ce9284920190610e5f565b5060208201516001820180546001600160a01b0319166001600160a01b03909216919091179055604091820151600290910155517fa1c3b325aa2c115e4b244062eba2515bc5585ae5b41556be8fef399ae9fde11b9061083390879087908790611128565b60405180910390a15050505050565b6008546009546001600160a01b039091169082565b6002805461086490611487565b80601f016020809104026020016040519081016040528092919081815260200182805461089090611487565b80156108dd5780601f106108b2576101008083540402835291602001916108dd565b820191906000526020600020905b8154815290600101906020018083116108c057829003601f168201915b505050505081565b336001600160a01b038216148061090657506000546001600160a01b031633145b6109225760405162461bcd60e51b8152600401610293906113fd565b600654600160a01b900463ffffffff16158061094f5750600654600d54600160a01b90910463ffffffff16115b61096b5760405162461bcd60e51b815260040161029390611274565b600454421061098c5760405162461bcd60e51b815260040161029390611156565b600061099782610a7e565b905080600019146109ba5760405162461bcd60e51b81526004016102939061137c565b60408051808201909152600a546001600160a01b03168152600b5460208201526109e5903330610ba2565b600d80546001810182556000919091527fd7b6990105719101dabeb77144f2a3385c8033acd3af97e9423a695e81ad1eb50180546001600160a01b0319166001600160a01b0384161790556040517f35ec60f951b4abc8b287ab5148caf98524052482927d42e86a720cc71b8a76a19061036390849042906110f1565b6001805461086490611487565b6003546001600160a01b031681565b6000805b600d54811015610aeb57826001600160a01b0316600d8281548110610ab757634e487b7160e01b600052603260045260246000fd5b6000918252602090912001546001600160a01b03161415610ad95790506104c9565b80610ae3816114c2565b915050610a82565b5060001992915050565b602082015115610b1d5760208201518251610b1d916001600160a01b03909116908390610b21565b5050565b610b778363a9059cbb60e01b8484604051602401610b409291906110f1565b60408051601f198184030181529190526020810180516001600160e01b03166001600160e01b031990931692909217909152610bb6565b505050565b60008083831115610b9257506000905080610b9b565b50600190508183035b9250929050565b610bac8383610c45565b610b778382610af5565b6000610c0b826040518060400160405280602081526020017f5361666545524332303a206c6f772d6c6576656c2063616c6c206661696c6564815250856001600160a01b0316610d179092919063ffffffff16565b805190915015610b775780806020019051810190610c299190610f34565b610b775760405162461bcd60e51b8152600401610293906113b3565b602082015115610b1d578151604051636eb1769f60e11b81526000916001600160a01b03169063dd62ed3e90610c8190859030906004016110b3565b60206040518083038186803b158015610c9957600080fd5b505afa158015610cad573d6000803e3d6000fd5b505050506040513d601f19601f82011682018060405250810190610cd1919061103f565b90508260200151811015610cf75760405162461bcd60e51b8152600401610293906112e2565b60208301518351610b77916001600160a01b039091169084903090610d30565b6060610d268484600085610d57565b90505b9392505050565b610d51846323b872dd60e01b858585604051602401610b40939291906110cd565b50505050565b606082471015610d795760405162461bcd60e51b815260040161029390611202565b610d8285610e17565b610d9e5760405162461bcd60e51b815260040161029390611319565b600080866001600160a01b03168587604051610dba9190611083565b60006040518083038185875af1925050503d8060008114610df7576040519150601f19603f3d011682016040523d82523d6000602084013e610dfc565b606091505b5091509150610e0c828286610e26565b979650505050505050565b6001600160a01b03163b151590565b60608315610e35575081610d29565b825115610e455782518084602001fd5b8160405162461bcd60e51b81526004016102939190611115565b828054610e6b90611487565b90600052602060002090601f016020900481019282610e8d5760008555610ed3565b82601f10610ea657805160ff1916838001178555610ed3565b82800160010185558215610ed3579182015b82811115610ed3578251825591602001919060010190610eb8565b50610edf929150610ee3565b5090565b5b80821115610edf5760008155600101610ee4565b80356001600160a01b03811681146104c957600080fd5b80356104c9816114ff565b600060208284031215610f2b578081fd5b610d2982610ef8565b600060208284031215610f45578081fd5b8151610d29816114ff565b60008060008060808587031215610f65578283fd5b843567ffffffffffffffff80821115610f7c578485fd5b818701915087601f830112610f8f578485fd5b813581811115610fa157610fa16114e9565b604051601f8201601f19908116603f01168101908382118183101715610fc957610fc96114e9565b816040528281528a6020848701011115610fe1578788fd5b826020860160208301378760208483010152809850505050505061100760208601610ef8565b92506040850135915061101c60608601610f0f565b905092959194509250565b600060208284031215611038578081fd5b5035919050565b600060208284031215611050578081fd5b5051919050565b6000815180845261106f81602086016020860161145b565b601f01601f19169290920160200192915050565b6000825161109581846020870161145b565b9190910192915050565b6001600160a01b0391909116815260200190565b6001600160a01b0392831681529116602082015260400190565b6001600160a01b039384168152919092166020820152604081019190915260600190565b6001600160a01b03929092168252602082015260400190565b901515815260200190565b600060208252610d296020830184611057565b60006060825261113b6060830186611057565b6001600160a01b039490941660208301525060400152919050565b60208082526014908201527311549493d48e88145d595cdd08195e1c1a5c995960621b604082015260600190565b60208082526027908201527f4552524f523a2053686f756c64206e6f742065786365656420616c6c6f77656460408201526620626f756e747960c81b606082015260800190565b60208082526019908201527f4552524f523a20706c61796572206e6f7420696e206c69737400000000000000604082015260600190565b60208082526026908201527f416464726573733a20696e73756666696369656e742062616c616e636520666f6040820152651c8818d85b1b60d21b606082015260800190565b60208082526012908201527111549493d48e88139bdd08195e1c1a5c995960721b604082015260600190565b6020808252601a908201527f4552524f523a204d617820706c61796572732072656163686564000000000000604082015260600190565b60208082526018908201527f4552524f523a2053656e646572206e6f7420676f7665726e0000000000000000604082015260600190565b6020808252601d908201527f4552524f52203a204465706f7369742062616420616c6c6f77616e6365000000604082015260600190565b6020808252601d908201527f416464726573733a2063616c6c20746f206e6f6e2d636f6e7472616374000000604082015260600190565b6020808252601290820152714552524f523a204e6f2065766964656e636560701b604082015260600190565b6020808252601c908201527f4552524f523a20506c6179657220616c72656164792065786973747300000000604082015260600190565b6020808252602a908201527f5361666545524332303a204552433230206f7065726174696f6e20646964206e6040820152691bdd081cdd58d8d9595960b21b606082015260800190565b60208082526024908201527f4552524f523a2053656e646572206e6f7420706c61796572206e6f722063726560408201526330ba37b960e11b606082015260800190565b90815260200190565b63ffffffff91909116815260200190565b60005b8381101561147657818101518382015260200161145e565b83811115610d515750506000910152565b60028104600182168061149b57607f821691505b602082108114156114bc57634e487b7160e01b600052602260045260246000fd5b50919050565b60006000198214156114e257634e487b7160e01b81526011600452602481fd5b5060010190565b634e487b7160e01b600052604160045260246000fd5b801515811461150d57600080fd5b5056fea26469706673582212205456ac563b6308078b13d71198eea77269eb0ad25564366e42200ea57ba8d01364736f6c63430008010033a264697066735822122050253ff51b610537fd058ae9038d740f1cc4a126ef1f82b94cefc7345ad9206a64736f6c63430008010033",
  "devdoc": {
    "kind": "dev",
    "methods": {
      "owner()": {
        "details": "Returns the address of the current owner."
      },
      "renounceOwnership()": {
        "details": "Leaves the contract without owner. It will not be possible to call `onlyOwner` functions anymore. Can only be called by the current owner. NOTE: Renouncing ownership will leave the contract without an owner, thereby removing any functionality that is only available to the owner."
      },
      "transferOwnership(address)": {
        "details": "Transfers ownership of the contract to a new account (`newOwner`). Can only be called by the current owner."
      }
    },
    "version": 1
  },
  "userdoc": {
    "kind": "user",
    "methods": {},
    "version": 1
  },
  "storageLayout": {
    "storage": [
      {
        "astId": 7,
        "contract": "contracts/QuestFactory.sol:QuestFactory",
        "label": "_owner",
        "offset": 0,
        "slot": "0",
        "type": "t_address"
      },
      {
        "astId": 2258,
        "contract": "contracts/QuestFactory.sol:QuestFactory",
        "label": "aragonGovernAddress",
        "offset": 0,
        "slot": "1",
        "type": "t_address"
      },
      {
        "astId": 2261,
        "contract": "contracts/QuestFactory.sol:QuestFactory",
        "label": "createDeposit",
        "offset": 0,
        "slot": "2",
        "type": "t_struct(Deposit)2629_storage"
      },
      {
        "astId": 2264,
        "contract": "contracts/QuestFactory.sol:QuestFactory",
        "label": "playDeposit",
        "offset": 0,
        "slot": "4",
        "type": "t_struct(Deposit)2629_storage"
      }
    ],
    "types": {
      "t_address": {
        "encoding": "inplace",
        "label": "address",
        "numberOfBytes": "20"
      },
      "t_contract(IERC20)776": {
        "encoding": "inplace",
        "label": "contract IERC20",
        "numberOfBytes": "20"
      },
      "t_struct(Deposit)2629_storage": {
        "encoding": "inplace",
        "label": "struct Models.Deposit",
        "members": [
          {
            "astId": 2626,
            "contract": "contracts/QuestFactory.sol:QuestFactory",
            "label": "token",
            "offset": 0,
            "slot": "0",
            "type": "t_contract(IERC20)776"
          },
          {
            "astId": 2628,
            "contract": "contracts/QuestFactory.sol:QuestFactory",
            "label": "amount",
            "offset": 0,
            "slot": "1",
            "type": "t_uint256"
          }
        ],
        "numberOfBytes": "64"
      },
      "t_uint256": {
        "encoding": "inplace",
        "label": "uint256",
        "numberOfBytes": "32"
      }
    }
  }
}