{
  "address": "0xfb81a1C9486E5A9Ce3e81Fc6B8Ad148a98be53B7",
  "abi": [
    {
      "inputs": [
        {
          "internalType": "string",
          "name": "_questTitle",
          "type": "string"
        },
        {
          "internalType": "bytes",
          "name": "_questDetailsRef",
          "type": "bytes"
        },
        {
          "internalType": "contract IERC20",
          "name": "_rewardToken",
          "type": "address"
        },
        {
          "internalType": "uint256",
          "name": "_expireTime",
          "type": "uint256"
        },
        {
          "internalType": "address",
          "name": "_aragonGovernAddress",
          "type": "address"
        },
        {
          "internalType": "address payable",
          "name": "_fundsRecoveryAddress",
          "type": "address"
        },
        {
          "components": [
            {
              "internalType": "contract IERC20",
              "name": "token",
              "type": "address"
            },
            {
              "internalType": "uint256",
              "name": "amount",
              "type": "uint256"
            }
          ],
          "internalType": "struct Models.Deposit",
          "name": "_createDeposit",
          "type": "tuple"
        },
        {
          "components": [
            {
              "internalType": "contract IERC20",
              "name": "token",
              "type": "address"
            },
            {
              "internalType": "uint256",
              "name": "amount",
              "type": "uint256"
            }
          ],
          "internalType": "struct Models.Deposit",
          "name": "_playDeposit",
          "type": "tuple"
        },
        {
          "internalType": "address",
          "name": "_questCreator",
          "type": "address"
        },
        {
          "internalType": "uint32",
          "name": "_maxPlayers",
          "type": "uint32"
        }
      ],
      "stateMutability": "nonpayable",
      "type": "constructor"
    },
    {
      "anonymous": false,
      "inputs": [
        {
          "indexed": false,
          "internalType": "bytes",
          "name": "evidence",
          "type": "bytes"
        },
        {
          "indexed": false,
          "internalType": "address",
          "name": "player",
          "type": "address"
        },
        {
          "indexed": false,
          "internalType": "uint256",
          "name": "amount",
          "type": "uint256"
        }
      ],
      "name": "QuestClaimed",
      "type": "event"
    },
    {
      "anonymous": false,
      "inputs": [
        {
          "indexed": false,
          "internalType": "address",
          "name": "player",
          "type": "address"
        },
        {
          "indexed": false,
          "internalType": "uint256",
          "name": "timestamp",
          "type": "uint256"
        }
      ],
      "name": "QuestPlayed",
      "type": "event"
    },
    {
      "anonymous": false,
      "inputs": [
        {
          "indexed": false,
          "internalType": "address",
          "name": "player",
          "type": "address"
        },
        {
          "indexed": false,
          "internalType": "uint256",
          "name": "timestamp",
          "type": "uint256"
        }
      ],
      "name": "QuestUnplayed",
      "type": "event"
    },
    {
      "inputs": [],
      "name": "aragonGovernAddress",
      "outputs": [
        {
          "internalType": "address",
          "name": "",
          "type": "address"
        }
      ],
      "stateMutability": "view",
      "type": "function"
    },
    {
      "inputs": [
        {
          "internalType": "address",
          "name": "executer",
          "type": "address"
        }
      ],
      "name": "canExecute",
      "outputs": [
        {
          "internalType": "bool",
          "name": "",
          "type": "bool"
        }
      ],
      "stateMutability": "view",
      "type": "function"
    },
    {
      "inputs": [
        {
          "internalType": "bytes",
          "name": "_evidence",
          "type": "bytes"
        },
        {
          "internalType": "address",
          "name": "_player",
          "type": "address"
        },
        {
          "internalType": "uint256",
          "name": "_amount",
          "type": "uint256"
        },
        {
          "internalType": "bool",
          "name": "_claimAll",
          "type": "bool"
        }
      ],
      "name": "claim",
      "outputs": [],
      "stateMutability": "nonpayable",
      "type": "function"
    },
    {
      "inputs": [
        {
          "internalType": "uint256",
          "name": "",
          "type": "uint256"
        }
      ],
      "name": "claims",
      "outputs": [
        {
          "internalType": "bytes",
          "name": "evidence",
          "type": "bytes"
        },
        {
          "internalType": "address",
          "name": "player",
          "type": "address"
        },
        {
          "internalType": "uint256",
          "name": "amount",
          "type": "uint256"
        }
      ],
      "stateMutability": "view",
      "type": "function"
    },
    {
      "inputs": [],
      "name": "createDeposit",
      "outputs": [
        {
          "internalType": "contract IERC20",
          "name": "token",
          "type": "address"
        },
        {
          "internalType": "uint256",
          "name": "amount",
          "type": "uint256"
        }
      ],
      "stateMutability": "view",
      "type": "function"
    },
    {
      "inputs": [],
      "name": "expireTime",
      "outputs": [
        {
          "internalType": "uint256",
          "name": "",
          "type": "uint256"
        }
      ],
      "stateMutability": "view",
      "type": "function"
    },
    {
      "inputs": [],
      "name": "fundsRecoveryAddress",
      "outputs": [
        {
          "internalType": "address payable",
          "name": "",
          "type": "address"
        }
      ],
      "stateMutability": "view",
      "type": "function"
    },
    {
      "inputs": [],
      "name": "getPlayers",
      "outputs": [
        {
          "internalType": "address[]",
          "name": "",
          "type": "address[]"
        }
      ],
      "stateMutability": "view",
      "type": "function"
    },
    {
      "inputs": [],
      "name": "isCreateDepositReleased",
      "outputs": [
        {
          "internalType": "bool",
          "name": "",
          "type": "bool"
        }
      ],
      "stateMutability": "view",
      "type": "function"
    },
    {
      "inputs": [],
      "name": "maxPlayers",
      "outputs": [
        {
          "internalType": "uint32",
          "name": "",
          "type": "uint32"
        }
      ],
      "stateMutability": "view",
      "type": "function"
    },
    {
      "inputs": [
        {
          "internalType": "address",
          "name": "_player",
          "type": "address"
        }
      ],
      "name": "play",
      "outputs": [],
      "stateMutability": "nonpayable",
      "type": "function"
    },
    {
      "inputs": [],
      "name": "playDeposit",
      "outputs": [
        {
          "internalType": "contract IERC20",
          "name": "token",
          "type": "address"
        },
        {
          "internalType": "uint256",
          "name": "amount",
          "type": "uint256"
        }
      ],
      "stateMutability": "view",
      "type": "function"
    },
    {
      "inputs": [],
      "name": "questCreator",
      "outputs": [
        {
          "internalType": "address",
          "name": "",
          "type": "address"
        }
      ],
      "stateMutability": "view",
      "type": "function"
    },
    {
      "inputs": [],
      "name": "questDetailsRef",
      "outputs": [
        {
          "internalType": "bytes",
          "name": "",
          "type": "bytes"
        }
      ],
      "stateMutability": "view",
      "type": "function"
    },
    {
      "inputs": [],
      "name": "questTitle",
      "outputs": [
        {
          "internalType": "string",
          "name": "",
          "type": "string"
        }
      ],
      "stateMutability": "view",
      "type": "function"
    },
    {
      "inputs": [],
      "name": "recoverFundsAndDeposit",
      "outputs": [],
      "stateMutability": "nonpayable",
      "type": "function"
    },
    {
      "inputs": [],
      "name": "rewardToken",
      "outputs": [
        {
          "internalType": "contract IERC20",
          "name": "",
          "type": "address"
        }
      ],
      "stateMutability": "view",
      "type": "function"
    },
    {
      "inputs": [
        {
          "internalType": "address",
          "name": "_player",
          "type": "address"
        }
      ],
      "name": "unplay",
      "outputs": [],
      "stateMutability": "nonpayable",
      "type": "function"
    }
  ],
  "transactionHash": "0xc8734bbc2419022346f8401bde1b7ccbed6c7707c0edefda39167f9b93bb3020",
  "args": [
    "ASDF",
    "0x00",
    "0xdf456B614fE9FF1C7c0B380330Da29C96d40FB02",
    1700122574,
    "0x6e7c3BC98bee14302AA2A98B4c5C86b13eB4b6Cd",
    "0xdf456B614fE9FF1C7c0B380330Da29C96d40FB02",
    {
      "token": "0x6e7c3BC98bee14302AA2A98B4c5C86b13eB4b6Cd",
      "amount": "100000000000000000"
    },
    {
      "token": "0x6e7c3BC98bee14302AA2A98B4c5C86b13eB4b6Cd",
      "amount": "100000000000000000"
    },
    "0xdf456B614fE9FF1C7c0B380330Da29C96d40FB02",
    0
  ],
  "solcInputHash": "9ac700d4baddcbcb8ea293f3097f99e6",
  "bytecode": "0x60806040523480156200001157600080fd5b506040516200228e3803806200228e8339810160408190526200003491620002b7565b8951620000499060019060208d019062000118565b5088516200005f9060029060208c019062000118565b50600380546001600160a01b03199081166001600160a01b039a8b16179091556004979097556005805488169689169690961790955560068054600080548916938a16939093179092558351600880548916918a169190911790556020938401516009558251600a80548916918a169190911790559190920151600b55600c805460ff19169055931693169290921763ffffffff60a01b1916600160a01b63ffffffff90931692909202919091179055506200044e9050565b8280546200012690620003e2565b90600052602060002090601f0160209004810192826200014a576000855562000195565b82601f106200016557805160ff191683800117855562000195565b8280016001018555821562000195579182015b828111156200019557825182559160200191906001019062000178565b50620001a3929150620001a7565b5090565b5b80821115620001a35760008155600101620001a8565b8051620001cb8162000435565b919050565b600082601f830112620001e1578081fd5b81516001600160401b03811115620001fd57620001fd6200041f565b602062000213601f8301601f19168201620003af565b828152858284870101111562000227578384fd5b835b838110156200024657858101830151828201840152820162000229565b838111156200025757848385840101525b5095945050505050565b60006040828403121562000273578081fd5b6200027f6040620003af565b905081516200028e8162000435565b808252506020820151602082015292915050565b805163ffffffff81168114620001cb57600080fd5b6000806000806000806000806000806101808b8d031215620002d7578586fd5b8a516001600160401b0380821115620002ee578788fd5b620002fc8e838f01620001d0565b9b5060208d015191508082111562000312578788fd5b50620003218d828e01620001d0565b9950506200033260408c01620001be565b975060608b015196506200034960808c01620001be565b95506200035960a08c01620001be565b94506200036a8c60c08d0162000261565b93506200037c8c6101008d0162000261565b92506200038d6101408c01620001be565b91506200039e6101608c01620002a2565b90509295989b9194979a5092959850565b604051601f8201601f191681016001600160401b0381118282101715620003da57620003da6200041f565b604052919050565b600281046001821680620003f757607f821691505b602082108114156200041957634e487b7160e01b600052602260045260246000fd5b50919050565b634e487b7160e01b600052604160045260246000fd5b6001600160a01b03811681146200044b57600080fd5b50565b611e30806200045e6000396000f3fe608060405234801561001057600080fd5b50600436106101365760003560e01c80638c53c9bd116100b2578063d03ffefb11610081578063e492814f11610066578063e492814f14610255578063f294cf3814610268578063f7c618c11461027057610136565b8063d03ffefb14610238578063e0c234231461024057610136565b80638c53c9bd146101e5578063a888c2cd146101fb578063b0a87ac11461021d578063b434151c1461022557610136565b8063579ca2c9116101095780637ceae310116100ee5780637ceae310146101b557806385c99e2b146101bd5780638b5b9ccc146101d057610136565b8063579ca2c9146101985780636c3a4cce146101a057610136565b8063151dfb061461013b578063310a1ee31461015057806348d6cb531461016e5780634c2412a214610183575b600080fd5b61014e6101493660046115ee565b610278565b005b610158610553565b6040516101659190611c64565b60405180910390f35b610176610559565b60405161016591906118a8565b61018b610562565b6040516101659190611c6d565b61014e610586565b6101a8610705565b60405161016591906117af565b6101a8610721565b6101766101cb3660046115ee565b61073d565b6101d8610773565b604051610165919061184e565b6101ed6107e2565b604051610165929190611828565b61020e610209366004611719565b610804565b604051610165939291906118c6565b6101a86108dd565b61014e610233366004611624565b6108f9565b6101ed610c76565b610248610c98565b60405161016591906118b3565b61014e6102633660046115ee565b610d26565b610248610f97565b6101a8610fa4565b3373ffffffffffffffffffffffffffffffffffffffff821614806102b3575060005473ffffffffffffffffffffffffffffffffffffffff1633145b6102f2576040517f08c379a00000000000000000000000000000000000000000000000000000000081526004016102e990611c07565b60405180910390fd5b60006102fd82610fc0565b9050807fffffffffffffffffffffffffffffffffffffffffffffffffffffffffffffffff1415610359576040517f08c379a00000000000000000000000000000000000000000000000000000000081526004016102e990611995565b600d805461036990600190611cbb565b815481106103a0577f4e487b7100000000000000000000000000000000000000000000000000000000600052603260045260246000fd5b600091825260209091200154600d805473ffffffffffffffffffffffffffffffffffffffff9092169183908110610400577f4e487b7100000000000000000000000000000000000000000000000000000000600052603260045260246000fd5b9060005260206000200160006101000a81548173ffffffffffffffffffffffffffffffffffffffff021916908373ffffffffffffffffffffffffffffffffffffffff160217905550600d805480610480577f4e487b7100000000000000000000000000000000000000000000000000000000600052603160045260246000fd5b600082815260209081902082017fffffffffffffffffffffffffffffffffffffffffffffffffffffffffffffffff90810180547fffffffffffffffffffffffff000000000000000000000000000000000000000016905590910190915560408051808201909152600a5473ffffffffffffffffffffffffffffffffffffffff168152600b54918101919091526105169083611088565b7fc4a67a0877d477de99d765a3d9f48abfbe6181dff4727d68c3cb6071555541758242604051610547929190611828565b60405180910390a15050565b60045481565b600c5460ff1681565b60065474010000000000000000000000000000000000000000900463ffffffff1681565b6004544210156105c2576040517f08c379a00000000000000000000000000000000000000000000000000000000081526004016102e990611a29565b600c5460ff16610634576000546040805180820190915260085473ffffffffffffffffffffffffffffffffffffffff908116825260095460208301526106089216611088565b600c80547fffffffffffffffffffffffffffffffffffffffffffffffffffffffffffffff001660011790555b6006546003546040517f70a082310000000000000000000000000000000000000000000000000000000081526107039273ffffffffffffffffffffffffffffffffffffffff9081169216906370a08231906106939030906004016117af565b60206040518083038186803b1580156106ab57600080fd5b505afa1580156106bf573d6000803e3d6000fd5b505050506040513d601f19601f820116820180604052508101906106e39190611731565b60035473ffffffffffffffffffffffffffffffffffffffff1691906110c1565b565b60005473ffffffffffffffffffffffffffffffffffffffff1681565b60065473ffffffffffffffffffffffffffffffffffffffff1681565b600061074882610fc0565b7fffffffffffffffffffffffffffffffffffffffffffffffffffffffffffffffff141590505b919050565b6060600d8054806020026020016040519081016040528092919081815260200182805480156107d857602002820191906000526020600020905b815473ffffffffffffffffffffffffffffffffffffffff1681526001909101906020018083116107ad575b5050505050905090565b600a54600b5473ffffffffffffffffffffffffffffffffffffffff9091169082565b6007818154811061081457600080fd5b906000526020600020906003020160009150905080600001805461083790611cfe565b80601f016020809104026020016040519081016040528092919081815260200182805461086390611cfe565b80156108b05780601f10610885576101008083540402835291602001916108b0565b820191906000526020600020905b81548152906001019060200180831161089357829003601f168201915b505050506001830154600290930154919273ffffffffffffffffffffffffffffffffffffffff1691905083565b60055473ffffffffffffffffffffffffffffffffffffffff1681565b60055473ffffffffffffffffffffffffffffffffffffffff16331461094a576040517f08c379a00000000000000000000000000000000000000000000000000000000081526004016102e990611a97565b8351610982576040517f08c379a00000000000000000000000000000000000000000000000000000000081526004016102e990611b3c565b6003546040517f70a0823100000000000000000000000000000000000000000000000000000000815260009173ffffffffffffffffffffffffffffffffffffffff16906370a08231906109d99030906004016117af565b60206040518083038186803b1580156109f157600080fd5b505afa158015610a05573d6000803e3d6000fd5b505050506040513d601f19601f82011682018060405250810190610a299190611731565b90508115610abf5760085460035473ffffffffffffffffffffffffffffffffffffffff90811691161415610a7257600954600090610a68908390611167565b9450610a76915050565b8092505b600a5460035473ffffffffffffffffffffffffffffffffffffffff90811691161415610abf57600d54600b54600091610aba91610ab39190611c7e565b8590611167565b945050505b60085460035473ffffffffffffffffffffffffffffffffffffffff90811691161415610b35576000610af18285611167565b915050600860010154811015610b33576040517f08c379a00000000000000000000000000000000000000000000000000000000081526004016102e990611938565b505b8215610b5f57600354610b5f9073ffffffffffffffffffffffffffffffffffffffff1685856110c1565b6040805160608101825286815273ffffffffffffffffffffffffffffffffffffffff86166020808301919091529181018590526007805460018101825560009190915281518051929360039092027fa66cc928b5edb82af9bd49922954155ab7b0942694bea4ce44661d9a8736c6880192610bdd9284920190611526565b5060208201516001820180547fffffffffffffffffffffffff00000000000000000000000000000000000000001673ffffffffffffffffffffffffffffffffffffffff909216919091179055604091820151600290910155517fa1c3b325aa2c115e4b244062eba2515bc5585ae5b41556be8fef399ae9fde11b90610c67908790879087906118c6565b60405180910390a15050505050565b60085460095473ffffffffffffffffffffffffffffffffffffffff9091169082565b60028054610ca590611cfe565b80601f0160208091040260200160405190810160405280929190818152602001828054610cd190611cfe565b8015610d1e5780601f10610cf357610100808354040283529160200191610d1e565b820191906000526020600020905b815481529060010190602001808311610d0157829003601f168201915b505050505081565b3373ffffffffffffffffffffffffffffffffffffffff82161480610d61575060005473ffffffffffffffffffffffffffffffffffffffff1633145b610d97576040517f08c379a00000000000000000000000000000000000000000000000000000000081526004016102e990611c07565b60065474010000000000000000000000000000000000000000900463ffffffff161580610de65750600654600d547401000000000000000000000000000000000000000090910463ffffffff16115b610e1c576040517f08c379a00000000000000000000000000000000000000000000000000000000081526004016102e990611a60565b6004544210610e57576040517f08c379a00000000000000000000000000000000000000000000000000000000081526004016102e990611901565b6000610e6282610fc0565b9050807fffffffffffffffffffffffffffffffffffffffffffffffffffffffffffffffff14610ebd576040517f08c379a00000000000000000000000000000000000000000000000000000000081526004016102e990611b73565b60408051808201909152600a5473ffffffffffffffffffffffffffffffffffffffff168152600b546020820152610ef590333061118d565b600d80546001810182556000919091527fd7b6990105719101dabeb77144f2a3385c8033acd3af97e9423a695e81ad1eb50180547fffffffffffffffffffffffff00000000000000000000000000000000000000001673ffffffffffffffffffffffffffffffffffffffff84161790556040517f35ec60f951b4abc8b287ab5148caf98524052482927d42e86a720cc71b8a76a1906105479084904290611828565b60018054610ca590611cfe565b60035473ffffffffffffffffffffffffffffffffffffffff1681565b6000805b600d54811015611060578273ffffffffffffffffffffffffffffffffffffffff16600d828154811061101f577f4e487b7100000000000000000000000000000000000000000000000000000000600052603260045260246000fd5b60009182526020909120015473ffffffffffffffffffffffffffffffffffffffff16141561104e57905061076e565b8061105881611d52565b915050610fc4565b507fffffffffffffffffffffffffffffffffffffffffffffffffffffffffffffffff92915050565b6020820151156110bd57602082015182516110bd9173ffffffffffffffffffffffffffffffffffffffff9091169083906110c1565b5050565b6111628363a9059cbb60e01b84846040516024016110e0929190611828565b604080517fffffffffffffffffffffffffffffffffffffffffffffffffffffffffffffffe08184030181529190526020810180517bffffffffffffffffffffffffffffffffffffffffffffffffffffffff167fffffffff00000000000000000000000000000000000000000000000000000000909316929092179091526111a1565b505050565b6000808383111561117d57506000905080611186565b50600190508183035b9250929050565b6111978383611257565b6111628382611088565b6000611203826040518060400160405280602081526020017f5361666545524332303a206c6f772d6c6576656c2063616c6c206661696c65648152508573ffffffffffffffffffffffffffffffffffffffff166113769092919063ffffffff16565b80519091501561116257808060200190518101906112219190611608565b611162576040517f08c379a00000000000000000000000000000000000000000000000000000000081526004016102e990611baa565b6020820151156110bd5781516040517fdd62ed3e00000000000000000000000000000000000000000000000000000000815260009173ffffffffffffffffffffffffffffffffffffffff169063dd62ed3e906112b990859030906004016117d0565b60206040518083038186803b1580156112d157600080fd5b505afa1580156112e5573d6000803e3d6000fd5b505050506040513d601f19601f820116820180604052508101906113099190611731565b90508260200151811015611349576040517f08c379a00000000000000000000000000000000000000000000000000000000081526004016102e990611ace565b602083015183516111629173ffffffffffffffffffffffffffffffffffffffff909116908490309061138f565b606061138584846000856113b6565b90505b9392505050565b6113b0846323b872dd60e01b8585856040516024016110e0939291906117f7565b50505050565b6060824710156113f2576040517f08c379a00000000000000000000000000000000000000000000000000000000081526004016102e9906119cc565b6113fb856114b7565b611431576040517f08c379a00000000000000000000000000000000000000000000000000000000081526004016102e990611b05565b6000808673ffffffffffffffffffffffffffffffffffffffff16858760405161145a9190611793565b60006040518083038185875af1925050503d8060008114611497576040519150601f19603f3d011682016040523d82523d6000602084013e61149c565b606091505b50915091506114ac8282866114d3565b979650505050505050565b73ffffffffffffffffffffffffffffffffffffffff163b151590565b606083156114e2575081611388565b8251156114f25782518084602001fd5b816040517f08c379a00000000000000000000000000000000000000000000000000000000081526004016102e991906118b3565b82805461153290611cfe565b90600052602060002090601f016020900481019282611554576000855561159a565b82601f1061156d57805160ff191683800117855561159a565b8280016001018555821561159a579182015b8281111561159a57825182559160200191906001019061157f565b506115a69291506115aa565b5090565b5b808211156115a657600081556001016115ab565b803573ffffffffffffffffffffffffffffffffffffffff8116811461076e57600080fd5b803561076e81611de9565b6000602082840312156115ff578081fd5b611388826115bf565b600060208284031215611619578081fd5b815161138881611de9565b60008060008060808587031215611639578283fd5b843567ffffffffffffffff80821115611650578485fd5b818701915087601f830112611663578485fd5b81358181111561167557611675611dba565b604051601f82017fffffffffffffffffffffffffffffffffffffffffffffffffffffffffffffffe0908116603f011681019083821181831017156116bb576116bb611dba565b816040528281528a60208487010111156116d3578788fd5b82602086016020830137876020848301015280985050505050506116f9602086016115bf565b92506040850135915061170e606086016115e3565b905092959194509250565b60006020828403121561172a578081fd5b5035919050565b600060208284031215611742578081fd5b5051919050565b60008151808452611761816020860160208601611cd2565b601f017fffffffffffffffffffffffffffffffffffffffffffffffffffffffffffffffe0169290920160200192915050565b600082516117a5818460208701611cd2565b9190910192915050565b73ffffffffffffffffffffffffffffffffffffffff91909116815260200190565b73ffffffffffffffffffffffffffffffffffffffff92831681529116602082015260400190565b73ffffffffffffffffffffffffffffffffffffffff9384168152919092166020820152604081019190915260600190565b73ffffffffffffffffffffffffffffffffffffffff929092168252602082015260400190565b6020808252825182820181905260009190848201906040850190845b8181101561189c57835173ffffffffffffffffffffffffffffffffffffffff168352928401929184019160010161186a565b50909695505050505050565b901515815260200190565b6000602082526113886020830184611749565b6000606082526118d96060830186611749565b73ffffffffffffffffffffffffffffffffffffffff9490941660208301525060400152919050565b60208082526014908201527f4552524f523a2051756573742065787069726564000000000000000000000000604082015260600190565b60208082526027908201527f4552524f523a2053686f756c64206e6f742065786365656420616c6c6f77656460408201527f20626f756e747900000000000000000000000000000000000000000000000000606082015260800190565b60208082526019908201527f4552524f523a20706c61796572206e6f7420696e206c69737400000000000000604082015260600190565b60208082526026908201527f416464726573733a20696e73756666696369656e742062616c616e636520666f60408201527f722063616c6c0000000000000000000000000000000000000000000000000000606082015260800190565b60208082526012908201527f4552524f523a204e6f7420657870697265640000000000000000000000000000604082015260600190565b6020808252601a908201527f4552524f523a204d617820706c61796572732072656163686564000000000000604082015260600190565b60208082526018908201527f4552524f523a2053656e646572206e6f7420676f7665726e0000000000000000604082015260600190565b6020808252601d908201527f4552524f52203a204465706f7369742062616420616c6c6f77616e6365000000604082015260600190565b6020808252601d908201527f416464726573733a2063616c6c20746f206e6f6e2d636f6e7472616374000000604082015260600190565b60208082526012908201527f4552524f523a204e6f2065766964656e63650000000000000000000000000000604082015260600190565b6020808252601c908201527f4552524f523a20506c6179657220616c72656164792065786973747300000000604082015260600190565b6020808252602a908201527f5361666545524332303a204552433230206f7065726174696f6e20646964206e60408201527f6f74207375636365656400000000000000000000000000000000000000000000606082015260800190565b60208082526024908201527f4552524f523a2053656e646572206e6f7420706c61796572206e6f722063726560408201527f61746f7200000000000000000000000000000000000000000000000000000000606082015260800190565b90815260200190565b63ffffffff91909116815260200190565b6000817fffffffffffffffffffffffffffffffffffffffffffffffffffffffffffffffff0483118215151615611cb657611cb6611d8b565b500290565b600082821015611ccd57611ccd611d8b565b500390565b60005b83811015611ced578181015183820152602001611cd5565b838111156113b05750506000910152565b600281046001821680611d1257607f821691505b60208210811415611d4c577f4e487b7100000000000000000000000000000000000000000000000000000000600052602260045260246000fd5b50919050565b60007fffffffffffffffffffffffffffffffffffffffffffffffffffffffffffffffff821415611d8457611d84611d8b565b5060010190565b7f4e487b7100000000000000000000000000000000000000000000000000000000600052601160045260246000fd5b7f4e487b7100000000000000000000000000000000000000000000000000000000600052604160045260246000fd5b8015158114611df757600080fd5b5056fea26469706673582212206589e7bc26056d3a53f0278dc56d4df25b944f5eb3257529eb22ff639c7d5cc464736f6c63430008010033",
  "devdoc": {
    "kind": "dev",
    "methods": {
      "canExecute(address)": {
        "params": {
          "executer": "The player to verify"
        }
      },
      "play(address)": {
        "params": {
          "_player": "Player address. requires sender to be the quest creator or the player requires sender to put a deposit (if its creator, deposit will be released to player) requires player list is not full requires quest is not expired requires player is not already registered emit QuestPlayed with player and timestamp"
        }
      },
      "unplay(address)": {
        "params": {
          "_player": "Player address. requires sender to be the quest creator or the player requires player is registered emit QuestUnplayed with player and timestamp"
        }
      }
    },
    "version": 1
  },
  "userdoc": {
    "kind": "user",
    "methods": {
      "canExecute(address)": {
        "notice": "Verify given executer can execute this quest."
      },
      "getPlayers()": {
        "notice": "Simply return the player list as the entire array"
      },
      "play(address)": {
        "notice": "Register a player to the quest. (sender could be the player or quest creator)"
      },
      "unplay(address)": {
        "notice": "Unregister a player from the quest. (sender could be the player or quest creator)"
      }
    },
    "version": 1
  },
  "storageLayout": {
    "storage": [
      {
        "astId": 1770,
        "contract": "contracts/Quest.sol:Quest",
        "label": "questCreator",
        "offset": 0,
        "slot": "0",
        "type": "t_address"
      },
      {
        "astId": 1772,
        "contract": "contracts/Quest.sol:Quest",
        "label": "questTitle",
        "offset": 0,
        "slot": "1",
        "type": "t_string_storage"
      },
      {
        "astId": 1774,
        "contract": "contracts/Quest.sol:Quest",
        "label": "questDetailsRef",
        "offset": 0,
        "slot": "2",
        "type": "t_bytes_storage"
      },
      {
        "astId": 1777,
        "contract": "contracts/Quest.sol:Quest",
        "label": "rewardToken",
        "offset": 0,
        "slot": "3",
        "type": "t_contract(IERC20)776"
      },
      {
        "astId": 1779,
        "contract": "contracts/Quest.sol:Quest",
        "label": "expireTime",
        "offset": 0,
        "slot": "4",
        "type": "t_uint256"
      },
      {
        "astId": 1781,
        "contract": "contracts/Quest.sol:Quest",
        "label": "aragonGovernAddress",
        "offset": 0,
        "slot": "5",
        "type": "t_address"
      },
      {
        "astId": 1783,
        "contract": "contracts/Quest.sol:Quest",
        "label": "fundsRecoveryAddress",
        "offset": 0,
        "slot": "6",
        "type": "t_address_payable"
      },
      {
        "astId": 1785,
        "contract": "contracts/Quest.sol:Quest",
        "label": "maxPlayers",
        "offset": 20,
        "slot": "6",
        "type": "t_uint32"
      },
      {
        "astId": 1789,
        "contract": "contracts/Quest.sol:Quest",
        "label": "claims",
        "offset": 0,
        "slot": "7",
        "type": "t_array(t_struct(Claim)2683_storage)dyn_storage"
      },
      {
        "astId": 1792,
        "contract": "contracts/Quest.sol:Quest",
        "label": "createDeposit",
        "offset": 0,
        "slot": "8",
        "type": "t_struct(Deposit)2676_storage"
      },
      {
        "astId": 1795,
        "contract": "contracts/Quest.sol:Quest",
        "label": "playDeposit",
        "offset": 0,
        "slot": "10",
        "type": "t_struct(Deposit)2676_storage"
      },
      {
        "astId": 1797,
        "contract": "contracts/Quest.sol:Quest",
        "label": "isCreateDepositReleased",
        "offset": 0,
        "slot": "12",
        "type": "t_bool"
      },
      {
        "astId": 1800,
        "contract": "contracts/Quest.sol:Quest",
        "label": "playerList",
        "offset": 0,
        "slot": "13",
        "type": "t_array(t_address)dyn_storage"
      }
    ],
    "types": {
      "t_address": {
        "encoding": "inplace",
        "label": "address",
        "numberOfBytes": "20"
      },
      "t_address_payable": {
        "encoding": "inplace",
        "label": "address payable",
        "numberOfBytes": "20"
      },
      "t_array(t_address)dyn_storage": {
        "base": "t_address",
        "encoding": "dynamic_array",
        "label": "address[]",
        "numberOfBytes": "32"
      },
      "t_array(t_struct(Claim)2683_storage)dyn_storage": {
        "base": "t_struct(Claim)2683_storage",
        "encoding": "dynamic_array",
        "label": "struct Models.Claim[]",
        "numberOfBytes": "32"
      },
      "t_bool": {
        "encoding": "inplace",
        "label": "bool",
        "numberOfBytes": "1"
      },
      "t_bytes_storage": {
        "encoding": "bytes",
        "label": "bytes",
        "numberOfBytes": "32"
      },
      "t_contract(IERC20)776": {
        "encoding": "inplace",
        "label": "contract IERC20",
        "numberOfBytes": "20"
      },
      "t_string_storage": {
        "encoding": "bytes",
        "label": "string",
        "numberOfBytes": "32"
      },
      "t_struct(Claim)2683_storage": {
        "encoding": "inplace",
        "label": "struct Models.Claim",
        "members": [
          {
            "astId": 2678,
            "contract": "contracts/Quest.sol:Quest",
            "label": "evidence",
            "offset": 0,
            "slot": "0",
            "type": "t_bytes_storage"
          },
          {
            "astId": 2680,
            "contract": "contracts/Quest.sol:Quest",
            "label": "player",
            "offset": 0,
            "slot": "1",
            "type": "t_address"
          },
          {
            "astId": 2682,
            "contract": "contracts/Quest.sol:Quest",
            "label": "amount",
            "offset": 0,
            "slot": "2",
            "type": "t_uint256"
          }
        ],
        "numberOfBytes": "96"
      },
      "t_struct(Deposit)2676_storage": {
        "encoding": "inplace",
        "label": "struct Models.Deposit",
        "members": [
          {
            "astId": 2673,
            "contract": "contracts/Quest.sol:Quest",
            "label": "token",
            "offset": 0,
            "slot": "0",
            "type": "t_contract(IERC20)776"
          },
          {
            "astId": 2675,
            "contract": "contracts/Quest.sol:Quest",
            "label": "amount",
            "offset": 0,
            "slot": "1",
            "type": "t_uint256"
          }
        ],
        "numberOfBytes": "64"
      },
      "t_uint256": {
        "encoding": "inplace",
        "label": "uint256",
        "numberOfBytes": "32"
      },
      "t_uint32": {
        "encoding": "inplace",
        "label": "uint32",
        "numberOfBytes": "4"
      }
    }
  }
}