{
  "address": "0xE2fE4075536D77ab49c0e3B1eD2e128A49De6dCF",
  "abi": [
    {
      "inputs": [
        {
          "internalType": "string",
          "name": "_questTitle",
          "type": "string"
        },
        {
          "internalType": "bytes",
          "name": "_questDetailsRef",
          "type": "bytes"
        },
        {
          "internalType": "contract IERC20",
          "name": "_rewardToken",
          "type": "address"
        },
        {
          "internalType": "uint256",
          "name": "_expireTime",
          "type": "uint256"
        },
        {
          "internalType": "address",
          "name": "_aragonGovernAddress",
          "type": "address"
        },
        {
          "internalType": "address payable",
          "name": "_fundsRecoveryAddress",
          "type": "address"
        },
        {
          "internalType": "contract IERC20",
          "name": "_depositToken",
          "type": "address"
        },
        {
          "internalType": "uint256",
          "name": "_depositAmount",
          "type": "uint256"
        },
        {
          "internalType": "address",
          "name": "_questCreator",
          "type": "address"
        }
      ],
      "stateMutability": "nonpayable",
      "type": "constructor"
    },
    {
      "anonymous": false,
      "inputs": [
        {
          "indexed": false,
          "internalType": "bytes",
          "name": "evidence",
          "type": "bytes"
        },
        {
          "indexed": false,
          "internalType": "address",
          "name": "player",
          "type": "address"
        },
        {
          "indexed": false,
          "internalType": "uint256",
          "name": "amount",
          "type": "uint256"
        }
      ],
      "name": "QuestClaimed",
      "type": "event"
    },
    {
      "inputs": [],
      "name": "aragonGovernAddress",
      "outputs": [
        {
          "internalType": "address",
          "name": "",
          "type": "address"
        }
      ],
      "stateMutability": "view",
      "type": "function"
    },
    {
      "inputs": [
        {
          "internalType": "bytes",
          "name": "_evidence",
          "type": "bytes"
        },
        {
          "internalType": "address",
          "name": "_player",
          "type": "address"
        },
        {
          "internalType": "uint256",
          "name": "_amount",
          "type": "uint256"
        },
        {
          "internalType": "bool",
          "name": "_claimAll",
          "type": "bool"
        }
      ],
      "name": "claim",
      "outputs": [],
      "stateMutability": "nonpayable",
      "type": "function"
    },
    {
      "inputs": [
        {
          "internalType": "uint256",
          "name": "",
          "type": "uint256"
        }
      ],
      "name": "claims",
      "outputs": [
        {
          "internalType": "bytes",
          "name": "evidence",
          "type": "bytes"
        },
        {
          "internalType": "address",
          "name": "player",
          "type": "address"
        },
        {
          "internalType": "uint256",
          "name": "amount",
          "type": "uint256"
        }
      ],
      "stateMutability": "view",
      "type": "function"
    },
    {
      "inputs": [],
      "name": "deposit",
      "outputs": [
        {
          "internalType": "contract IERC20",
          "name": "token",
          "type": "address"
        },
        {
          "internalType": "uint256",
          "name": "amount",
          "type": "uint256"
        }
      ],
      "stateMutability": "view",
      "type": "function"
    },
    {
      "inputs": [],
      "name": "expireTime",
      "outputs": [
        {
          "internalType": "uint256",
          "name": "",
          "type": "uint256"
        }
      ],
      "stateMutability": "view",
      "type": "function"
    },
    {
      "inputs": [],
      "name": "fundsRecoveryAddress",
      "outputs": [
        {
          "internalType": "address payable",
          "name": "",
          "type": "address"
        }
      ],
      "stateMutability": "view",
      "type": "function"
    },
    {
      "inputs": [],
      "name": "isDepositReleased",
      "outputs": [
        {
          "internalType": "bool",
          "name": "",
          "type": "bool"
        }
      ],
      "stateMutability": "view",
      "type": "function"
    },
    {
      "inputs": [],
      "name": "questCreator",
      "outputs": [
        {
          "internalType": "address",
          "name": "",
          "type": "address"
        }
      ],
      "stateMutability": "view",
      "type": "function"
    },
    {
      "inputs": [],
      "name": "questDetailsRef",
      "outputs": [
        {
          "internalType": "bytes",
          "name": "",
          "type": "bytes"
        }
      ],
      "stateMutability": "view",
      "type": "function"
    },
    {
      "inputs": [],
      "name": "questTitle",
      "outputs": [
        {
          "internalType": "string",
          "name": "",
          "type": "string"
        }
      ],
      "stateMutability": "view",
      "type": "function"
    },
    {
      "inputs": [],
      "name": "recoverFundsAndDeposit",
      "outputs": [],
      "stateMutability": "nonpayable",
      "type": "function"
    },
    {
      "inputs": [],
      "name": "rewardToken",
      "outputs": [
        {
          "internalType": "contract IERC20",
          "name": "",
          "type": "address"
        }
      ],
      "stateMutability": "view",
      "type": "function"
    }
  ],
  "transactionHash": "0x90e91c2e849a9632050d1f1710692774ecda617bea4b1d6c54ba98a5112ae3bb",
  "args": [
    "ASDF",
    "0x00",
    "0xdf456B614fE9FF1C7c0B380330Da29C96d40FB02",
    0,
    "0x6e7c3BC98bee14302AA2A98B4c5C86b13eB4b6Cd",
    "0xdf456B614fE9FF1C7c0B380330Da29C96d40FB02",
    "0x6e7c3BC98bee14302AA2A98B4c5C86b13eB4b6Cd",
    "100000000000000000",
    "0xdf456B614fE9FF1C7c0B380330Da29C96d40FB02"
  ],
  "solcInputHash": "66197574aef0e75d6cd2c0286fb5a2c4",
  "bytecode": "0x60806040523480156200001157600080fd5b50604051620015973803806200159783398101604081905262000034916200027d565b8851620000499060019060208c0190620000ed565b5087516200005f9060029060208b0190620000ed565b50600380546001600160a01b03199081166001600160a01b03998a161790915560049690965560058054871695881695909517909455600680548616938716939093179092556000805485169386169390931790925560408051808201909152919093168082526020909101839052600880549092161790556009555050600a805460ff19169055620003bf565b828054620000fb906200036c565b90600052602060002090601f0160209004810192826200011f57600085556200016a565b82601f106200013a57805160ff19168380011785556200016a565b828001600101855582156200016a579182015b828111156200016a5782518255916020019190600101906200014d565b50620001789291506200017c565b5090565b5b808211156200017857600081556001016200017d565b60006001600160401b0380841115620001b057620001b0620003a9565b604051601f8501601f19908116603f01168101908282118183101715620001db57620001db620003a9565b81604052809350858152868686011115620001f557600080fd5b600092505b858310156200021a578285015160208483010152602083019250620001fa565b858311156200022d576000602087830101525b5050509392505050565b80516001600160a01b03811681146200024f57600080fd5b919050565b600082601f83011262000265578081fd5b620002768383516020850162000193565b9392505050565b60008060008060008060008060006101208a8c0312156200029c578485fd5b89516001600160401b0380821115620002b3578687fd5b818c0191508c601f830112620002c7578687fd5b620002d88d83516020850162000193565b9a5060208c0151915080821115620002ee578687fd5b50620002fd8c828d0162000254565b9850506200030e60408b0162000237565b965060608a015195506200032560808b0162000237565b94506200033560a08b0162000237565b93506200034560c08b0162000237565b925060e08a015191506200035d6101008b0162000237565b90509295985092959850929598565b6002810460018216806200038157607f821691505b60208210811415620003a357634e487b7160e01b600052602260045260246000fd5b50919050565b634e487b7160e01b600052604160045260246000fd5b6111c880620003cf6000396000f3fe608060405234801561001057600080fd5b50600436106100d45760003560e01c8063b0a87ac111610081578063e0c234231161005b578063e0c2342314610186578063f294cf381461019b578063f7c618c1146101a3576100d4565b8063b0a87ac114610155578063b434151c1461015d578063d0e30db014610170576100d4565b80637ceae310116100b25780637ceae31014610116578063990cc4891461011e578063a888c2cd14610133576100d4565b8063310a1ee3146100d9578063579ca2c9146100f75780636c3a4cce14610101575b600080fd5b6100e16101ab565b6040516100ee91906110c5565b60405180910390f35b6100ff6101b1565b005b610109610338565b6040516100ee9190610e32565b610109610354565b610126610370565b6040516100ee9190610e79565b610146610141366004610d9c565b610379565b6040516100ee93929190610e97565b610109610452565b6100ff61016b366004610ca7565b61046e565b6101786107a2565b6040516100ee929190610e53565b61018e6107c4565b6040516100ee9190610e84565b61018e610852565b61010961085f565b60045481565b60045442116101f5576040517f08c379a00000000000000000000000000000000000000000000000000000000081526004016101ec90610f8c565b60405180910390fd5b600a5460ff16610267576000546040805180820190915260085473ffffffffffffffffffffffffffffffffffffffff9081168252600954602083015261023b921661087b565b600a80547fffffffffffffffffffffffffffffffffffffffffffffffffffffffffffffff001660011790555b6006546003546040517f70a082310000000000000000000000000000000000000000000000000000000081526103369273ffffffffffffffffffffffffffffffffffffffff9081169216906370a08231906102c6903090600401610e32565b60206040518083038186803b1580156102de57600080fd5b505afa1580156102f2573d6000803e3d6000fd5b505050506040513d601f19601f820116820180604052508101906103169190610db4565b60035473ffffffffffffffffffffffffffffffffffffffff1691906108b4565b565b60005473ffffffffffffffffffffffffffffffffffffffff1681565b60065473ffffffffffffffffffffffffffffffffffffffff1681565b600a5460ff1681565b6007818154811061038957600080fd5b90600052602060002090600302016000915090508060000180546103ac906110fe565b80601f01602080910402602001604051908101604052809291908181526020018280546103d8906110fe565b80156104255780601f106103fa57610100808354040283529160200191610425565b820191906000526020600020905b81548152906001019060200180831161040857829003601f168201915b505050506001830154600290930154919273ffffffffffffffffffffffffffffffffffffffff1691905083565b60055473ffffffffffffffffffffffffffffffffffffffff1681565b60055473ffffffffffffffffffffffffffffffffffffffff1633146104bf576040517f08c379a00000000000000000000000000000000000000000000000000000000081526004016101ec90610fc3565b83516104f7576040517f08c379a00000000000000000000000000000000000000000000000000000000081526004016101ec90611031565b6003546040517f70a0823100000000000000000000000000000000000000000000000000000000815260009173ffffffffffffffffffffffffffffffffffffffff16906370a082319061054e903090600401610e32565b60206040518083038186803b15801561056657600080fd5b505afa15801561057a573d6000803e3d6000fd5b505050506040513d601f19601f8201168201806040525081019061059e9190610db4565b905081156105eb5760085460035473ffffffffffffffffffffffffffffffffffffffff908116911614156105e7576009546000906105dd90839061095a565b94506105eb915050565b8092505b60085460035473ffffffffffffffffffffffffffffffffffffffff9081169116141561066157600061061d828561095a565b91505060086001015481101561065f576040517f08c379a00000000000000000000000000000000000000000000000000000000081526004016101ec90610ed2565b505b821561068b5760035461068b9073ffffffffffffffffffffffffffffffffffffffff1685856108b4565b6040805160608101825286815273ffffffffffffffffffffffffffffffffffffffff86166020808301919091529181018590526007805460018101825560009190915281518051929360039092027fa66cc928b5edb82af9bd49922954155ab7b0942694bea4ce44661d9a8736c68801926107099284920190610bc3565b5060208201516001820180547fffffffffffffffffffffffff00000000000000000000000000000000000000001673ffffffffffffffffffffffffffffffffffffffff909216919091179055604091820151600290910155517fa1c3b325aa2c115e4b244062eba2515bc5585ae5b41556be8fef399ae9fde11b9061079390879087908790610e97565b60405180910390a15050505050565b60085460095473ffffffffffffffffffffffffffffffffffffffff9091169082565b600280546107d1906110fe565b80601f01602080910402602001604051908101604052809291908181526020018280546107fd906110fe565b801561084a5780601f1061081f5761010080835404028352916020019161084a565b820191906000526020600020905b81548152906001019060200180831161082d57829003601f168201915b505050505081565b600180546107d1906110fe565b60035473ffffffffffffffffffffffffffffffffffffffff1681565b6020820151156108b057602082015182516108b09173ffffffffffffffffffffffffffffffffffffffff9091169083906108b4565b5050565b6109558363a9059cbb60e01b84846040516024016108d3929190610e53565b604080517fffffffffffffffffffffffffffffffffffffffffffffffffffffffffffffffe08184030181529190526020810180517bffffffffffffffffffffffffffffffffffffffffffffffffffffffff167fffffffff0000000000000000000000000000000000000000000000000000000090931692909217909152610980565b505050565b6000808383111561097057506000905080610979565b50600190508183035b9250929050565b60006109e2826040518060400160405280602081526020017f5361666545524332303a206c6f772d6c6576656c2063616c6c206661696c65648152508573ffffffffffffffffffffffffffffffffffffffff16610a369092919063ffffffff16565b8051909150156109555780806020019051810190610a009190610c8b565b610955576040517f08c379a00000000000000000000000000000000000000000000000000000000081526004016101ec90611068565b6060610a458484600085610a4f565b90505b9392505050565b606082471015610a8b576040517f08c379a00000000000000000000000000000000000000000000000000000000081526004016101ec90610f2f565b610a9485610b50565b610aca576040517f08c379a00000000000000000000000000000000000000000000000000000000081526004016101ec90610ffa565b6000808673ffffffffffffffffffffffffffffffffffffffff168587604051610af39190610e16565b60006040518083038185875af1925050503d8060008114610b30576040519150601f19603f3d011682016040523d82523d6000602084013e610b35565b606091505b5091509150610b45828286610b70565b979650505050505050565b73ffffffffffffffffffffffffffffffffffffffff81163b15155b919050565b60608315610b7f575081610a48565b825115610b8f5782518084602001fd5b816040517f08c379a00000000000000000000000000000000000000000000000000000000081526004016101ec9190610e84565b828054610bcf906110fe565b90600052602060002090601f016020900481019282610bf15760008555610c37565b82601f10610c0a57805160ff1916838001178555610c37565b82800160010185558215610c37579182015b82811115610c37578251825591602001919060010190610c1c565b50610c43929150610c47565b5090565b5b80821115610c435760008155600101610c48565b803573ffffffffffffffffffffffffffffffffffffffff81168114610b6b57600080fd5b8035610b6b81611181565b600060208284031215610c9c578081fd5b8151610a4881611181565b60008060008060808587031215610cbc578283fd5b843567ffffffffffffffff80821115610cd3578485fd5b818701915087601f830112610ce6578485fd5b813581811115610cf857610cf8611152565b604051601f82017fffffffffffffffffffffffffffffffffffffffffffffffffffffffffffffffe0908116603f01168101908382118183101715610d3e57610d3e611152565b816040528281528a6020848701011115610d56578788fd5b8260208601602083013787602084830101528098505050505050610d7c60208601610c5c565b925060408501359150610d9160608601610c80565b905092959194509250565b600060208284031215610dad578081fd5b5035919050565b600060208284031215610dc5578081fd5b5051919050565b60008151808452610de48160208601602086016110ce565b601f017fffffffffffffffffffffffffffffffffffffffffffffffffffffffffffffffe0169290920160200192915050565b60008251610e288184602087016110ce565b9190910192915050565b73ffffffffffffffffffffffffffffffffffffffff91909116815260200190565b73ffffffffffffffffffffffffffffffffffffffff929092168252602082015260400190565b901515815260200190565b600060208252610a486020830184610dcc565b600060608252610eaa6060830186610dcc565b73ffffffffffffffffffffffffffffffffffffffff9490941660208301525060400152919050565b60208082526027908201527f4552524f523a2053686f756c64206e6f742065786365656420616c6c6f77656460408201527f20626f756e747900000000000000000000000000000000000000000000000000606082015260800190565b60208082526026908201527f416464726573733a20696e73756666696369656e742062616c616e636520666f60408201527f722063616c6c0000000000000000000000000000000000000000000000000000606082015260800190565b60208082526012908201527f4552524f523a204e6f7420657870697265640000000000000000000000000000604082015260600190565b60208082526018908201527f4552524f523a2053656e646572206e6f7420676f7665726e0000000000000000604082015260600190565b6020808252601d908201527f416464726573733a2063616c6c20746f206e6f6e2d636f6e7472616374000000604082015260600190565b60208082526012908201527f4552524f523a204e6f2065766964656e63650000000000000000000000000000604082015260600190565b6020808252602a908201527f5361666545524332303a204552433230206f7065726174696f6e20646964206e60408201527f6f74207375636365656400000000000000000000000000000000000000000000606082015260800190565b90815260200190565b60005b838110156110e95781810151838201526020016110d1565b838111156110f8576000848401525b50505050565b60028104600182168061111257607f821691505b6020821081141561114c577f4e487b7100000000000000000000000000000000000000000000000000000000600052602260045260246000fd5b50919050565b7f4e487b7100000000000000000000000000000000000000000000000000000000600052604160045260246000fd5b801515811461118f57600080fd5b5056fea2646970667358221220f12af06d21253e80de8141b57f9d59d499c4f0807e4e290ffcb5a22c4763921b64736f6c63430008010033",
  "devdoc": {
    "kind": "dev",
    "methods": {},
    "version": 1
  },
  "userdoc": {
    "kind": "user",
    "methods": {},
    "version": 1
  },
  "storageLayout": {
    "storage": [
      {
        "astId": 1768,
        "contract": "contracts/Quest.sol:Quest",
        "label": "questCreator",
        "offset": 0,
        "slot": "0",
        "type": "t_address"
      },
      {
        "astId": 1770,
        "contract": "contracts/Quest.sol:Quest",
        "label": "questTitle",
        "offset": 0,
        "slot": "1",
        "type": "t_string_storage"
      },
      {
        "astId": 1772,
        "contract": "contracts/Quest.sol:Quest",
        "label": "questDetailsRef",
        "offset": 0,
        "slot": "2",
        "type": "t_bytes_storage"
      },
      {
        "astId": 1775,
        "contract": "contracts/Quest.sol:Quest",
        "label": "rewardToken",
        "offset": 0,
        "slot": "3",
        "type": "t_contract(IERC20)776"
      },
      {
        "astId": 1777,
        "contract": "contracts/Quest.sol:Quest",
        "label": "expireTime",
        "offset": 0,
        "slot": "4",
        "type": "t_uint256"
      },
      {
        "astId": 1779,
        "contract": "contracts/Quest.sol:Quest",
        "label": "aragonGovernAddress",
        "offset": 0,
        "slot": "5",
        "type": "t_address"
      },
      {
        "astId": 1781,
        "contract": "contracts/Quest.sol:Quest",
        "label": "fundsRecoveryAddress",
        "offset": 0,
        "slot": "6",
        "type": "t_address_payable"
      },
      {
        "astId": 1785,
        "contract": "contracts/Quest.sol:Quest",
        "label": "claims",
        "offset": 0,
        "slot": "7",
        "type": "t_array(t_struct(Claim)2335_storage)dyn_storage"
      },
      {
        "astId": 1788,
        "contract": "contracts/Quest.sol:Quest",
        "label": "deposit",
        "offset": 0,
        "slot": "8",
        "type": "t_struct(Deposit)2328_storage"
      },
      {
        "astId": 1790,
        "contract": "contracts/Quest.sol:Quest",
        "label": "isDepositReleased",
        "offset": 0,
        "slot": "10",
        "type": "t_bool"
      }
    ],
    "types": {
      "t_address": {
        "encoding": "inplace",
        "label": "address",
        "numberOfBytes": "20"
      },
      "t_address_payable": {
        "encoding": "inplace",
        "label": "address payable",
        "numberOfBytes": "20"
      },
      "t_array(t_struct(Claim)2335_storage)dyn_storage": {
        "base": "t_struct(Claim)2335_storage",
        "encoding": "dynamic_array",
        "label": "struct Models.Claim[]",
        "numberOfBytes": "32"
      },
      "t_bool": {
        "encoding": "inplace",
        "label": "bool",
        "numberOfBytes": "1"
      },
      "t_bytes_storage": {
        "encoding": "bytes",
        "label": "bytes",
        "numberOfBytes": "32"
      },
      "t_contract(IERC20)776": {
        "encoding": "inplace",
        "label": "contract IERC20",
        "numberOfBytes": "20"
      },
      "t_string_storage": {
        "encoding": "bytes",
        "label": "string",
        "numberOfBytes": "32"
      },
      "t_struct(Claim)2335_storage": {
        "encoding": "inplace",
        "label": "struct Models.Claim",
        "members": [
          {
            "astId": 2330,
            "contract": "contracts/Quest.sol:Quest",
            "label": "evidence",
            "offset": 0,
            "slot": "0",
            "type": "t_bytes_storage"
          },
          {
            "astId": 2332,
            "contract": "contracts/Quest.sol:Quest",
            "label": "player",
            "offset": 0,
            "slot": "1",
            "type": "t_address"
          },
          {
            "astId": 2334,
            "contract": "contracts/Quest.sol:Quest",
            "label": "amount",
            "offset": 0,
            "slot": "2",
            "type": "t_uint256"
          }
        ],
        "numberOfBytes": "96"
      },
      "t_struct(Deposit)2328_storage": {
        "encoding": "inplace",
        "label": "struct Models.Deposit",
        "members": [
          {
            "astId": 2325,
            "contract": "contracts/Quest.sol:Quest",
            "label": "token",
            "offset": 0,
            "slot": "0",
            "type": "t_contract(IERC20)776"
          },
          {
            "astId": 2327,
            "contract": "contracts/Quest.sol:Quest",
            "label": "amount",
            "offset": 0,
            "slot": "1",
            "type": "t_uint256"
          }
        ],
        "numberOfBytes": "64"
      },
      "t_uint256": {
        "encoding": "inplace",
        "label": "uint256",
        "numberOfBytes": "32"
      }
    }
  }
}