{
  "address": "0x023d5610aE5285896B2c346622aeECc1D63dbaf1",
  "abi": [
    {
      "inputs": [
        {
          "internalType": "string",
          "name": "_questTitle",
          "type": "string"
        },
        {
          "internalType": "bytes",
          "name": "_questDetailsRef",
          "type": "bytes"
        },
        {
          "internalType": "contract IERC20",
          "name": "_rewardToken",
          "type": "address"
        },
        {
          "internalType": "uint256",
          "name": "_expireTime",
          "type": "uint256"
        },
        {
          "internalType": "address",
          "name": "_aragonGovernAddress",
          "type": "address"
        },
        {
          "internalType": "address payable",
          "name": "_fundsRecoveryAddress",
          "type": "address"
        },
        {
          "components": [
            {
              "internalType": "contract IERC20",
              "name": "token",
              "type": "address"
            },
            {
              "internalType": "uint256",
              "name": "amount",
              "type": "uint256"
            }
          ],
          "internalType": "struct Models.Deposit",
          "name": "_createDeposit",
          "type": "tuple"
        },
        {
          "components": [
            {
              "internalType": "contract IERC20",
              "name": "token",
              "type": "address"
            },
            {
              "internalType": "uint256",
              "name": "amount",
              "type": "uint256"
            }
          ],
          "internalType": "struct Models.Deposit",
          "name": "_playDeposit",
          "type": "tuple"
        },
        {
          "internalType": "address",
          "name": "_questCreator",
          "type": "address"
        },
        {
          "internalType": "uint32",
          "name": "_maxPlayers",
          "type": "uint32"
        }
      ],
      "stateMutability": "nonpayable",
      "type": "constructor"
    },
    {
      "anonymous": false,
      "inputs": [
        {
          "indexed": false,
          "internalType": "bytes",
          "name": "evidence",
          "type": "bytes"
        },
        {
          "indexed": false,
          "internalType": "address",
          "name": "player",
          "type": "address"
        },
        {
          "indexed": false,
          "internalType": "uint256",
          "name": "amount",
          "type": "uint256"
        }
      ],
      "name": "QuestClaimed",
      "type": "event"
    },
    {
      "anonymous": false,
      "inputs": [
        {
          "indexed": false,
          "internalType": "address",
          "name": "player",
          "type": "address"
        },
        {
          "indexed": false,
          "internalType": "uint256",
          "name": "timestamp",
          "type": "uint256"
        }
      ],
      "name": "QuestPlayed",
      "type": "event"
    },
    {
      "anonymous": false,
      "inputs": [
        {
          "indexed": false,
          "internalType": "address",
          "name": "player",
          "type": "address"
        },
        {
          "indexed": false,
          "internalType": "uint256",
          "name": "timestamp",
          "type": "uint256"
        }
      ],
      "name": "QuestUnplayed",
      "type": "event"
    },
    {
      "inputs": [],
      "name": "aragonGovernAddress",
      "outputs": [
        {
          "internalType": "address",
          "name": "",
          "type": "address"
        }
      ],
      "stateMutability": "view",
      "type": "function"
    },
    {
      "inputs": [
        {
          "internalType": "address",
          "name": "executer",
          "type": "address"
        }
      ],
      "name": "canExecute",
      "outputs": [
        {
          "internalType": "bool",
          "name": "",
          "type": "bool"
        }
      ],
      "stateMutability": "view",
      "type": "function"
    },
    {
      "inputs": [
        {
          "internalType": "bytes",
          "name": "_evidence",
          "type": "bytes"
        },
        {
          "internalType": "address",
          "name": "_player",
          "type": "address"
        },
        {
          "internalType": "uint256",
          "name": "_amount",
          "type": "uint256"
        },
        {
          "internalType": "bool",
          "name": "_claimAll",
          "type": "bool"
        }
      ],
      "name": "claim",
      "outputs": [],
      "stateMutability": "nonpayable",
      "type": "function"
    },
    {
      "inputs": [
        {
          "internalType": "uint256",
          "name": "",
          "type": "uint256"
        }
      ],
      "name": "claims",
      "outputs": [
        {
          "internalType": "bytes",
          "name": "evidence",
          "type": "bytes"
        },
        {
          "internalType": "address",
          "name": "player",
          "type": "address"
        },
        {
          "internalType": "uint256",
          "name": "amount",
          "type": "uint256"
        }
      ],
      "stateMutability": "view",
      "type": "function"
    },
    {
      "inputs": [],
      "name": "createDeposit",
      "outputs": [
        {
          "internalType": "contract IERC20",
          "name": "token",
          "type": "address"
        },
        {
          "internalType": "uint256",
          "name": "amount",
          "type": "uint256"
        }
      ],
      "stateMutability": "view",
      "type": "function"
    },
    {
      "inputs": [],
      "name": "expireTime",
      "outputs": [
        {
          "internalType": "uint256",
          "name": "",
          "type": "uint256"
        }
      ],
      "stateMutability": "view",
      "type": "function"
    },
    {
      "inputs": [],
      "name": "fundsRecoveryAddress",
      "outputs": [
        {
          "internalType": "address payable",
          "name": "",
          "type": "address"
        }
      ],
      "stateMutability": "view",
      "type": "function"
    },
    {
      "inputs": [],
      "name": "getPlayers",
      "outputs": [
        {
          "internalType": "address[]",
          "name": "",
          "type": "address[]"
        }
      ],
      "stateMutability": "view",
      "type": "function"
    },
    {
      "inputs": [],
      "name": "isCreateDepositReleased",
      "outputs": [
        {
          "internalType": "bool",
          "name": "",
          "type": "bool"
        }
      ],
      "stateMutability": "view",
      "type": "function"
    },
    {
      "inputs": [],
      "name": "maxPlayers",
      "outputs": [
        {
          "internalType": "uint32",
          "name": "",
          "type": "uint32"
        }
      ],
      "stateMutability": "view",
      "type": "function"
    },
    {
      "inputs": [
        {
          "internalType": "address",
          "name": "_player",
          "type": "address"
        }
      ],
      "name": "play",
      "outputs": [],
      "stateMutability": "nonpayable",
      "type": "function"
    },
    {
      "inputs": [],
      "name": "playDeposit",
      "outputs": [
        {
          "internalType": "contract IERC20",
          "name": "token",
          "type": "address"
        },
        {
          "internalType": "uint256",
          "name": "amount",
          "type": "uint256"
        }
      ],
      "stateMutability": "view",
      "type": "function"
    },
    {
      "inputs": [],
      "name": "questCreator",
      "outputs": [
        {
          "internalType": "address",
          "name": "",
          "type": "address"
        }
      ],
      "stateMutability": "view",
      "type": "function"
    },
    {
      "inputs": [],
      "name": "questDetailsRef",
      "outputs": [
        {
          "internalType": "bytes",
          "name": "",
          "type": "bytes"
        }
      ],
      "stateMutability": "view",
      "type": "function"
    },
    {
      "inputs": [],
      "name": "questTitle",
      "outputs": [
        {
          "internalType": "string",
          "name": "",
          "type": "string"
        }
      ],
      "stateMutability": "view",
      "type": "function"
    },
    {
      "inputs": [],
      "name": "recoverFundsAndDeposit",
      "outputs": [],
      "stateMutability": "nonpayable",
      "type": "function"
    },
    {
      "inputs": [],
      "name": "rewardToken",
      "outputs": [
        {
          "internalType": "contract IERC20",
          "name": "",
          "type": "address"
        }
      ],
      "stateMutability": "view",
      "type": "function"
    },
    {
      "inputs": [
        {
          "internalType": "address",
          "name": "_player",
          "type": "address"
        }
      ],
      "name": "unplay",
      "outputs": [],
      "stateMutability": "nonpayable",
      "type": "function"
    }
  ],
  "transactionHash": "0x32f8c5b27ab17cf51baebe67dea2efc2bd3cb94090bcc94c73015677d39c0727",
  "args": [
    "ASDF",
    "0x00",
    "0xdf456B614fE9FF1C7c0B380330Da29C96d40FB02",
    1700122574,
    "0x6e7c3BC98bee14302AA2A98B4c5C86b13eB4b6Cd",
    "0xdf456B614fE9FF1C7c0B380330Da29C96d40FB02",
    {
      "token": "0x6e7c3BC98bee14302AA2A98B4c5C86b13eB4b6Cd",
      "amount": "100000000000000000"
    },
    {
      "token": "0x6e7c3BC98bee14302AA2A98B4c5C86b13eB4b6Cd",
      "amount": "100000000000000000"
    },
    "0xdf456B614fE9FF1C7c0B380330Da29C96d40FB02",
    0
  ],
  "solcInputHash": "43ec75b4d32d0d9688889d9f95178422",
  "bytecode": "0x60806040523480156200001157600080fd5b50604051620022d5380380620022d58339810160408190526200003491620002b7565b8951620000499060019060208d019062000118565b5088516200005f9060029060208c019062000118565b50600380546001600160a01b03199081166001600160a01b039a8b16179091556004979097556005805488169689169690961790955560068054600080548916938a16939093179092558351600880548916918a169190911790556020938401516009558251600a80548916918a169190911790559190920151600b55600c805460ff19169055931693169290921763ffffffff60a01b1916600160a01b63ffffffff90931692909202919091179055506200044e9050565b8280546200012690620003e2565b90600052602060002090601f0160209004810192826200014a576000855562000195565b82601f106200016557805160ff191683800117855562000195565b8280016001018555821562000195579182015b828111156200019557825182559160200191906001019062000178565b50620001a3929150620001a7565b5090565b5b80821115620001a35760008155600101620001a8565b8051620001cb8162000435565b919050565b600082601f830112620001e1578081fd5b81516001600160401b03811115620001fd57620001fd6200041f565b602062000213601f8301601f19168201620003af565b828152858284870101111562000227578384fd5b835b838110156200024657858101830151828201840152820162000229565b838111156200025757848385840101525b5095945050505050565b60006040828403121562000273578081fd5b6200027f6040620003af565b905081516200028e8162000435565b808252506020820151602082015292915050565b805163ffffffff81168114620001cb57600080fd5b6000806000806000806000806000806101808b8d031215620002d7578586fd5b8a516001600160401b0380821115620002ee578788fd5b620002fc8e838f01620001d0565b9b5060208d015191508082111562000312578788fd5b50620003218d828e01620001d0565b9950506200033260408c01620001be565b975060608b015196506200034960808c01620001be565b95506200035960a08c01620001be565b94506200036a8c60c08d0162000261565b93506200037c8c6101008d0162000261565b92506200038d6101408c01620001be565b91506200039e6101608c01620002a2565b90509295989b9194979a5092959850565b604051601f8201601f191681016001600160401b0381118282101715620003da57620003da6200041f565b604052919050565b600281046001821680620003f757607f821691505b602082108114156200041957634e487b7160e01b600052602260045260246000fd5b50919050565b634e487b7160e01b600052604160045260246000fd5b6001600160a01b03811681146200044b57600080fd5b50565b611e77806200045e6000396000f3fe608060405234801561001057600080fd5b50600436106101365760003560e01c80638c53c9bd116100b2578063d03ffefb11610081578063e492814f11610066578063e492814f14610255578063f294cf3814610268578063f7c618c11461027057610136565b8063d03ffefb14610238578063e0c234231461024057610136565b80638c53c9bd146101e5578063a888c2cd146101fb578063b0a87ac11461021d578063b434151c1461022557610136565b8063579ca2c9116101095780637ceae310116100ee5780637ceae310146101b557806385c99e2b146101bd5780638b5b9ccc146101d057610136565b8063579ca2c9146101985780636c3a4cce146101a057610136565b8063151dfb061461013b578063310a1ee31461015057806348d6cb531461016e5780634c2412a214610183575b600080fd5b61014e610149366004611638565b610278565b005b610158610553565b6040516101659190611cae565b60405180910390f35b610176610559565b60405161016591906118f2565b61018b610562565b6040516101659190611cb7565b61014e610586565b6101a861074f565b60405161016591906117f9565b6101a861076b565b6101766101cb366004611638565b610787565b6101d86107bd565b6040516101659190611898565b6101ed61082c565b604051610165929190611872565b61020e610209366004611763565b61084e565b60405161016593929190611910565b6101a8610927565b61014e61023336600461166e565b610943565b6101ed610cc0565b610248610ce2565b60405161016591906118fd565b61014e610263366004611638565b610d70565b610248610fe1565b6101a8610fee565b3373ffffffffffffffffffffffffffffffffffffffff821614806102b3575060005473ffffffffffffffffffffffffffffffffffffffff1633145b6102f2576040517f08c379a00000000000000000000000000000000000000000000000000000000081526004016102e990611c51565b60405180910390fd5b60006102fd8261100a565b9050807fffffffffffffffffffffffffffffffffffffffffffffffffffffffffffffffff1415610359576040517f08c379a00000000000000000000000000000000000000000000000000000000081526004016102e9906119df565b600d805461036990600190611d05565b815481106103a0577f4e487b7100000000000000000000000000000000000000000000000000000000600052603260045260246000fd5b600091825260209091200154600d805473ffffffffffffffffffffffffffffffffffffffff9092169183908110610400577f4e487b7100000000000000000000000000000000000000000000000000000000600052603260045260246000fd5b9060005260206000200160006101000a81548173ffffffffffffffffffffffffffffffffffffffff021916908373ffffffffffffffffffffffffffffffffffffffff160217905550600d805480610480577f4e487b7100000000000000000000000000000000000000000000000000000000600052603160045260246000fd5b600082815260209081902082017fffffffffffffffffffffffffffffffffffffffffffffffffffffffffffffffff90810180547fffffffffffffffffffffffff000000000000000000000000000000000000000016905590910190915560408051808201909152600a5473ffffffffffffffffffffffffffffffffffffffff168152600b549181019190915261051690836110d2565b7fc4a67a0877d477de99d765a3d9f48abfbe6181dff4727d68c3cb6071555541758242604051610547929190611872565b60405180910390a15050565b60045481565b600c5460ff1681565b60065474010000000000000000000000000000000000000000900463ffffffff1681565b6004544210156105c2576040517f08c379a00000000000000000000000000000000000000000000000000000000081526004016102e990611a73565b600c5460ff16610634576000546040805180820190915260085473ffffffffffffffffffffffffffffffffffffffff9081168252600954602083015261060892166110d2565b600c80547fffffffffffffffffffffffffffffffffffffffffffffffffffffffffffffff001660011790555b6003546040517f70a0823100000000000000000000000000000000000000000000000000000000815260009173ffffffffffffffffffffffffffffffffffffffff16906370a082319061068b9030906004016117f9565b60206040518083038186803b1580156106a357600080fd5b505afa1580156106b7573d6000803e3d6000fd5b505050506040513d601f19601f820116820180604052508101906106db919061177b565b600a5460035491925073ffffffffffffffffffffffffffffffffffffffff9182169116141561072257600d54600b5461071e9161071791611cc8565b829061110b565b9150505b60065460035461074c9173ffffffffffffffffffffffffffffffffffffffff918216911683611131565b50565b60005473ffffffffffffffffffffffffffffffffffffffff1681565b60065473ffffffffffffffffffffffffffffffffffffffff1681565b60006107928261100a565b7fffffffffffffffffffffffffffffffffffffffffffffffffffffffffffffffff141590505b919050565b6060600d80548060200260200160405190810160405280929190818152602001828054801561082257602002820191906000526020600020905b815473ffffffffffffffffffffffffffffffffffffffff1681526001909101906020018083116107f7575b5050505050905090565b600a54600b5473ffffffffffffffffffffffffffffffffffffffff9091169082565b6007818154811061085e57600080fd5b906000526020600020906003020160009150905080600001805461088190611d48565b80601f01602080910402602001604051908101604052809291908181526020018280546108ad90611d48565b80156108fa5780601f106108cf576101008083540402835291602001916108fa565b820191906000526020600020905b8154815290600101906020018083116108dd57829003601f168201915b505050506001830154600290930154919273ffffffffffffffffffffffffffffffffffffffff1691905083565b60055473ffffffffffffffffffffffffffffffffffffffff1681565b60055473ffffffffffffffffffffffffffffffffffffffff163314610994576040517f08c379a00000000000000000000000000000000000000000000000000000000081526004016102e990611ae1565b83516109cc576040517f08c379a00000000000000000000000000000000000000000000000000000000081526004016102e990611b86565b6003546040517f70a0823100000000000000000000000000000000000000000000000000000000815260009173ffffffffffffffffffffffffffffffffffffffff16906370a0823190610a239030906004016117f9565b60206040518083038186803b158015610a3b57600080fd5b505afa158015610a4f573d6000803e3d6000fd5b505050506040513d601f19601f82011682018060405250810190610a73919061177b565b90508115610b095760085460035473ffffffffffffffffffffffffffffffffffffffff90811691161415610abc57600954600090610ab290839061110b565b9450610ac0915050565b8092505b600a5460035473ffffffffffffffffffffffffffffffffffffffff90811691161415610b0957600d54600b54600091610b0491610afd9190611cc8565b859061110b565b945050505b60085460035473ffffffffffffffffffffffffffffffffffffffff90811691161415610b7f576000610b3b828561110b565b915050600860010154811015610b7d576040517f08c379a00000000000000000000000000000000000000000000000000000000081526004016102e990611982565b505b8215610ba957600354610ba99073ffffffffffffffffffffffffffffffffffffffff168585611131565b6040805160608101825286815273ffffffffffffffffffffffffffffffffffffffff86166020808301919091529181018590526007805460018101825560009190915281518051929360039092027fa66cc928b5edb82af9bd49922954155ab7b0942694bea4ce44661d9a8736c6880192610c279284920190611570565b5060208201516001820180547fffffffffffffffffffffffff00000000000000000000000000000000000000001673ffffffffffffffffffffffffffffffffffffffff909216919091179055604091820151600290910155517fa1c3b325aa2c115e4b244062eba2515bc5585ae5b41556be8fef399ae9fde11b90610cb190879087908790611910565b60405180910390a15050505050565b60085460095473ffffffffffffffffffffffffffffffffffffffff9091169082565b60028054610cef90611d48565b80601f0160208091040260200160405190810160405280929190818152602001828054610d1b90611d48565b8015610d685780601f10610d3d57610100808354040283529160200191610d68565b820191906000526020600020905b815481529060010190602001808311610d4b57829003601f168201915b505050505081565b3373ffffffffffffffffffffffffffffffffffffffff82161480610dab575060005473ffffffffffffffffffffffffffffffffffffffff1633145b610de1576040517f08c379a00000000000000000000000000000000000000000000000000000000081526004016102e990611c51565b60065474010000000000000000000000000000000000000000900463ffffffff161580610e305750600654600d547401000000000000000000000000000000000000000090910463ffffffff16115b610e66576040517f08c379a00000000000000000000000000000000000000000000000000000000081526004016102e990611aaa565b6004544210610ea1576040517f08c379a00000000000000000000000000000000000000000000000000000000081526004016102e99061194b565b6000610eac8261100a565b9050807fffffffffffffffffffffffffffffffffffffffffffffffffffffffffffffffff14610f07576040517f08c379a00000000000000000000000000000000000000000000000000000000081526004016102e990611bbd565b60408051808201909152600a5473ffffffffffffffffffffffffffffffffffffffff168152600b546020820152610f3f9033306111d7565b600d80546001810182556000919091527fd7b6990105719101dabeb77144f2a3385c8033acd3af97e9423a695e81ad1eb50180547fffffffffffffffffffffffff00000000000000000000000000000000000000001673ffffffffffffffffffffffffffffffffffffffff84161790556040517f35ec60f951b4abc8b287ab5148caf98524052482927d42e86a720cc71b8a76a1906105479084904290611872565b60018054610cef90611d48565b60035473ffffffffffffffffffffffffffffffffffffffff1681565b6000805b600d548110156110aa578273ffffffffffffffffffffffffffffffffffffffff16600d8281548110611069577f4e487b7100000000000000000000000000000000000000000000000000000000600052603260045260246000fd5b60009182526020909120015473ffffffffffffffffffffffffffffffffffffffff1614156110985790506107b8565b806110a281611d9c565b91505061100e565b507fffffffffffffffffffffffffffffffffffffffffffffffffffffffffffffffff92915050565b60208201511561110757602082015182516111079173ffffffffffffffffffffffffffffffffffffffff909116908390611131565b5050565b600080838311156111215750600090508061112a565b50600190508183035b9250929050565b6111d28363a9059cbb60e01b8484604051602401611150929190611872565b604080517fffffffffffffffffffffffffffffffffffffffffffffffffffffffffffffffe08184030181529190526020810180517bffffffffffffffffffffffffffffffffffffffffffffffffffffffff167fffffffff00000000000000000000000000000000000000000000000000000000909316929092179091526111eb565b505050565b6111e183836112a1565b6111d283826110d2565b600061124d826040518060400160405280602081526020017f5361666545524332303a206c6f772d6c6576656c2063616c6c206661696c65648152508573ffffffffffffffffffffffffffffffffffffffff166113c09092919063ffffffff16565b8051909150156111d2578080602001905181019061126b9190611652565b6111d2576040517f08c379a00000000000000000000000000000000000000000000000000000000081526004016102e990611bf4565b6020820151156111075781516040517fdd62ed3e00000000000000000000000000000000000000000000000000000000815260009173ffffffffffffffffffffffffffffffffffffffff169063dd62ed3e90611303908590309060040161181a565b60206040518083038186803b15801561131b57600080fd5b505afa15801561132f573d6000803e3d6000fd5b505050506040513d601f19601f82011682018060405250810190611353919061177b565b90508260200151811015611393576040517f08c379a00000000000000000000000000000000000000000000000000000000081526004016102e990611b18565b602083015183516111d29173ffffffffffffffffffffffffffffffffffffffff90911690849030906113d9565b60606113cf8484600085611400565b90505b9392505050565b6113fa846323b872dd60e01b85858560405160240161115093929190611841565b50505050565b60608247101561143c576040517f08c379a00000000000000000000000000000000000000000000000000000000081526004016102e990611a16565b61144585611501565b61147b576040517f08c379a00000000000000000000000000000000000000000000000000000000081526004016102e990611b4f565b6000808673ffffffffffffffffffffffffffffffffffffffff1685876040516114a491906117dd565b60006040518083038185875af1925050503d80600081146114e1576040519150601f19603f3d011682016040523d82523d6000602084013e6114e6565b606091505b50915091506114f682828661151d565b979650505050505050565b73ffffffffffffffffffffffffffffffffffffffff163b151590565b6060831561152c5750816113d2565b82511561153c5782518084602001fd5b816040517f08c379a00000000000000000000000000000000000000000000000000000000081526004016102e991906118fd565b82805461157c90611d48565b90600052602060002090601f01602090048101928261159e57600085556115e4565b82601f106115b757805160ff19168380011785556115e4565b828001600101855582156115e4579182015b828111156115e45782518255916020019190600101906115c9565b506115f09291506115f4565b5090565b5b808211156115f057600081556001016115f5565b803573ffffffffffffffffffffffffffffffffffffffff811681146107b857600080fd5b80356107b881611e33565b600060208284031215611649578081fd5b6113d282611609565b600060208284031215611663578081fd5b81516113d281611e33565b60008060008060808587031215611683578283fd5b843567ffffffffffffffff8082111561169a578485fd5b818701915087601f8301126116ad578485fd5b8135818111156116bf576116bf611e04565b604051601f82017fffffffffffffffffffffffffffffffffffffffffffffffffffffffffffffffe0908116603f0116810190838211818310171561170557611705611e04565b816040528281528a602084870101111561171d578788fd5b826020860160208301378760208483010152809850505050505061174360208601611609565b9250604085013591506117586060860161162d565b905092959194509250565b600060208284031215611774578081fd5b5035919050565b60006020828403121561178c578081fd5b5051919050565b600081518084526117ab816020860160208601611d1c565b601f017fffffffffffffffffffffffffffffffffffffffffffffffffffffffffffffffe0169290920160200192915050565b600082516117ef818460208701611d1c565b9190910192915050565b73ffffffffffffffffffffffffffffffffffffffff91909116815260200190565b73ffffffffffffffffffffffffffffffffffffffff92831681529116602082015260400190565b73ffffffffffffffffffffffffffffffffffffffff9384168152919092166020820152604081019190915260600190565b73ffffffffffffffffffffffffffffffffffffffff929092168252602082015260400190565b6020808252825182820181905260009190848201906040850190845b818110156118e657835173ffffffffffffffffffffffffffffffffffffffff16835292840192918401916001016118b4565b50909695505050505050565b901515815260200190565b6000602082526113d26020830184611793565b6000606082526119236060830186611793565b73ffffffffffffffffffffffffffffffffffffffff9490941660208301525060400152919050565b60208082526014908201527f4552524f523a2051756573742065787069726564000000000000000000000000604082015260600190565b60208082526027908201527f4552524f523a2053686f756c64206e6f742065786365656420616c6c6f77656460408201527f20626f756e747900000000000000000000000000000000000000000000000000606082015260800190565b60208082526019908201527f4552524f523a20706c61796572206e6f7420696e206c69737400000000000000604082015260600190565b60208082526026908201527f416464726573733a20696e73756666696369656e742062616c616e636520666f60408201527f722063616c6c0000000000000000000000000000000000000000000000000000606082015260800190565b60208082526012908201527f4552524f523a204e6f7420657870697265640000000000000000000000000000604082015260600190565b6020808252601a908201527f4552524f523a204d617820706c61796572732072656163686564000000000000604082015260600190565b60208082526018908201527f4552524f523a2053656e646572206e6f7420676f7665726e0000000000000000604082015260600190565b6020808252601d908201527f4552524f52203a204465706f7369742062616420616c6c6f77616e6365000000604082015260600190565b6020808252601d908201527f416464726573733a2063616c6c20746f206e6f6e2d636f6e7472616374000000604082015260600190565b60208082526012908201527f4552524f523a204e6f2065766964656e63650000000000000000000000000000604082015260600190565b6020808252601c908201527f4552524f523a20506c6179657220616c72656164792065786973747300000000604082015260600190565b6020808252602a908201527f5361666545524332303a204552433230206f7065726174696f6e20646964206e60408201527f6f74207375636365656400000000000000000000000000000000000000000000606082015260800190565b60208082526024908201527f4552524f523a2053656e646572206e6f7420706c61796572206e6f722063726560408201527f61746f7200000000000000000000000000000000000000000000000000000000606082015260800190565b90815260200190565b63ffffffff91909116815260200190565b6000817fffffffffffffffffffffffffffffffffffffffffffffffffffffffffffffffff0483118215151615611d0057611d00611dd5565b500290565b600082821015611d1757611d17611dd5565b500390565b60005b83811015611d37578181015183820152602001611d1f565b838111156113fa5750506000910152565b600281046001821680611d5c57607f821691505b60208210811415611d96577f4e487b7100000000000000000000000000000000000000000000000000000000600052602260045260246000fd5b50919050565b60007fffffffffffffffffffffffffffffffffffffffffffffffffffffffffffffffff821415611dce57611dce611dd5565b5060010190565b7f4e487b7100000000000000000000000000000000000000000000000000000000600052601160045260246000fd5b7f4e487b7100000000000000000000000000000000000000000000000000000000600052604160045260246000fd5b801515811461074c57600080fdfea2646970667358221220001ecc7e3a56a6e8ceba0a2f6f0020ef13bacde460faf1b1cca5699bfd12ab1764736f6c63430008010033",
  "devdoc": {
    "kind": "dev",
    "methods": {
      "canExecute(address)": {
        "params": {
          "executer": "The player to verify"
        }
      },
      "play(address)": {
        "params": {
          "_player": "Player address. requires sender to be the quest creator or the player requires sender to put a deposit (if its creator, deposit will be released to player) requires player list is not full requires quest is not expired requires player is not already registered emit QuestPlayed with player and timestamp"
        }
      },
      "unplay(address)": {
        "params": {
          "_player": "Player address. requires sender to be the quest creator or the player requires player is registered emit QuestUnplayed with player and timestamp"
        }
      }
    },
    "version": 1
  },
  "userdoc": {
    "kind": "user",
    "methods": {
      "canExecute(address)": {
        "notice": "Verify given executer can execute this quest."
      },
      "getPlayers()": {
        "notice": "Simply return the player list as the entire array"
      },
      "play(address)": {
        "notice": "Register a player to the quest. (sender could be the player or quest creator)"
      },
      "unplay(address)": {
        "notice": "Unregister a player from the quest. (sender could be the player or quest creator)"
      }
    },
    "version": 1
  },
  "storageLayout": {
    "storage": [
      {
        "astId": 1770,
        "contract": "contracts/Quest.sol:Quest",
        "label": "questCreator",
        "offset": 0,
        "slot": "0",
        "type": "t_address"
      },
      {
        "astId": 1772,
        "contract": "contracts/Quest.sol:Quest",
        "label": "questTitle",
        "offset": 0,
        "slot": "1",
        "type": "t_string_storage"
      },
      {
        "astId": 1774,
        "contract": "contracts/Quest.sol:Quest",
        "label": "questDetailsRef",
        "offset": 0,
        "slot": "2",
        "type": "t_bytes_storage"
      },
      {
        "astId": 1777,
        "contract": "contracts/Quest.sol:Quest",
        "label": "rewardToken",
        "offset": 0,
        "slot": "3",
        "type": "t_contract(IERC20)776"
      },
      {
        "astId": 1779,
        "contract": "contracts/Quest.sol:Quest",
        "label": "expireTime",
        "offset": 0,
        "slot": "4",
        "type": "t_uint256"
      },
      {
        "astId": 1781,
        "contract": "contracts/Quest.sol:Quest",
        "label": "aragonGovernAddress",
        "offset": 0,
        "slot": "5",
        "type": "t_address"
      },
      {
        "astId": 1783,
        "contract": "contracts/Quest.sol:Quest",
        "label": "fundsRecoveryAddress",
        "offset": 0,
        "slot": "6",
        "type": "t_address_payable"
      },
      {
        "astId": 1785,
        "contract": "contracts/Quest.sol:Quest",
        "label": "maxPlayers",
        "offset": 20,
        "slot": "6",
        "type": "t_uint32"
      },
      {
        "astId": 1789,
        "contract": "contracts/Quest.sol:Quest",
        "label": "claims",
        "offset": 0,
        "slot": "7",
        "type": "t_array(t_struct(Claim)2711_storage)dyn_storage"
      },
      {
        "astId": 1792,
        "contract": "contracts/Quest.sol:Quest",
        "label": "createDeposit",
        "offset": 0,
        "slot": "8",
        "type": "t_struct(Deposit)2704_storage"
      },
      {
        "astId": 1795,
        "contract": "contracts/Quest.sol:Quest",
        "label": "playDeposit",
        "offset": 0,
        "slot": "10",
        "type": "t_struct(Deposit)2704_storage"
      },
      {
        "astId": 1797,
        "contract": "contracts/Quest.sol:Quest",
        "label": "isCreateDepositReleased",
        "offset": 0,
        "slot": "12",
        "type": "t_bool"
      },
      {
        "astId": 1800,
        "contract": "contracts/Quest.sol:Quest",
        "label": "playerList",
        "offset": 0,
        "slot": "13",
        "type": "t_array(t_address)dyn_storage"
      }
    ],
    "types": {
      "t_address": {
        "encoding": "inplace",
        "label": "address",
        "numberOfBytes": "20"
      },
      "t_address_payable": {
        "encoding": "inplace",
        "label": "address payable",
        "numberOfBytes": "20"
      },
      "t_array(t_address)dyn_storage": {
        "base": "t_address",
        "encoding": "dynamic_array",
        "label": "address[]",
        "numberOfBytes": "32"
      },
      "t_array(t_struct(Claim)2711_storage)dyn_storage": {
        "base": "t_struct(Claim)2711_storage",
        "encoding": "dynamic_array",
        "label": "struct Models.Claim[]",
        "numberOfBytes": "32"
      },
      "t_bool": {
        "encoding": "inplace",
        "label": "bool",
        "numberOfBytes": "1"
      },
      "t_bytes_storage": {
        "encoding": "bytes",
        "label": "bytes",
        "numberOfBytes": "32"
      },
      "t_contract(IERC20)776": {
        "encoding": "inplace",
        "label": "contract IERC20",
        "numberOfBytes": "20"
      },
      "t_string_storage": {
        "encoding": "bytes",
        "label": "string",
        "numberOfBytes": "32"
      },
      "t_struct(Claim)2711_storage": {
        "encoding": "inplace",
        "label": "struct Models.Claim",
        "members": [
          {
            "astId": 2706,
            "contract": "contracts/Quest.sol:Quest",
            "label": "evidence",
            "offset": 0,
            "slot": "0",
            "type": "t_bytes_storage"
          },
          {
            "astId": 2708,
            "contract": "contracts/Quest.sol:Quest",
            "label": "player",
            "offset": 0,
            "slot": "1",
            "type": "t_address"
          },
          {
            "astId": 2710,
            "contract": "contracts/Quest.sol:Quest",
            "label": "amount",
            "offset": 0,
            "slot": "2",
            "type": "t_uint256"
          }
        ],
        "numberOfBytes": "96"
      },
      "t_struct(Deposit)2704_storage": {
        "encoding": "inplace",
        "label": "struct Models.Deposit",
        "members": [
          {
            "astId": 2701,
            "contract": "contracts/Quest.sol:Quest",
            "label": "token",
            "offset": 0,
            "slot": "0",
            "type": "t_contract(IERC20)776"
          },
          {
            "astId": 2703,
            "contract": "contracts/Quest.sol:Quest",
            "label": "amount",
            "offset": 0,
            "slot": "1",
            "type": "t_uint256"
          }
        ],
        "numberOfBytes": "64"
      },
      "t_uint256": {
        "encoding": "inplace",
        "label": "uint256",
        "numberOfBytes": "32"
      },
      "t_uint32": {
        "encoding": "inplace",
        "label": "uint32",
        "numberOfBytes": "4"
      }
    }
  }
}